{
  "_format": "hh-sol-artifact-1",
  "contractName": "CVAProject",
  "sourceName": "src/contracts/projects/CVAProject.sol",
  "abi": [
    {
      "inputs": [
        {
          "internalType": "string",
          "name": "_name",
          "type": "string"
        },
        {
          "internalType": "address",
          "name": "_defaultToken",
          "type": "address"
        },
        {
          "internalType": "address",
          "name": "_rahatClaim",
          "type": "address"
        },
        {
          "internalType": "address",
          "name": "_otpServerAddress",
          "type": "address"
        },
        {
          "internalType": "address",
          "name": "_community",
          "type": "address"
        }
      ],
      "stateMutability": "nonpayable",
      "type": "constructor"
    },
    {
      "anonymous": false,
      "inputs": [
        {
          "indexed": true,
          "internalType": "address",
          "name": "",
          "type": "address"
        }
      ],
      "name": "BeneficiaryAdded",
      "type": "event"
    },
    {
      "anonymous": false,
      "inputs": [
        {
          "indexed": true,
          "internalType": "address",
          "name": "",
          "type": "address"
        }
      ],
      "name": "BeneficiaryRemoved",
      "type": "event"
    },
    {
      "anonymous": false,
      "inputs": [
        {
          "indexed": true,
          "internalType": "address",
          "name": "beneficiary",
          "type": "address"
        },
        {
          "indexed": false,
          "internalType": "uint256",
          "name": "amount",
          "type": "uint256"
        }
      ],
      "name": "ClaimAssigned",
      "type": "event"
    },
    {
      "anonymous": false,
      "inputs": [
        {
          "indexed": true,
          "internalType": "address",
          "name": "",
          "type": "address"
        }
      ],
      "name": "OtpServerUpdated",
      "type": "event"
    },
    {
      "anonymous": false,
      "inputs": [],
      "name": "ProjectLocked",
      "type": "event"
    },
    {
      "anonymous": false,
      "inputs": [],
      "name": "ProjectUnlocked",
      "type": "event"
    },
    {
      "anonymous": false,
      "inputs": [
        {
          "indexed": true,
          "internalType": "address",
          "name": "tokenAddress",
          "type": "address"
        },
        {
          "indexed": false,
          "internalType": "uint256",
          "name": "amount",
          "type": "uint256"
        }
      ],
      "name": "TokenBudgetDecrease",
      "type": "event"
    },
    {
      "anonymous": false,
      "inputs": [
        {
          "indexed": true,
          "internalType": "address",
          "name": "tokenAddress",
          "type": "address"
        },
        {
          "indexed": false,
          "internalType": "uint256",
          "name": "amount",
          "type": "uint256"
        }
      ],
      "name": "TokenBudgetIncrease",
      "type": "event"
    },
    {
      "anonymous": false,
      "inputs": [
        {
          "indexed": true,
          "internalType": "address",
          "name": "token",
          "type": "address"
        },
        {
          "indexed": true,
          "internalType": "address",
          "name": "from",
          "type": "address"
        },
        {
          "indexed": false,
          "internalType": "uint256",
          "name": "amount",
          "type": "uint256"
        }
      ],
      "name": "TokenReceived",
      "type": "event"
    },
    {
      "anonymous": false,
      "inputs": [
        {
          "indexed": true,
          "internalType": "address",
          "name": "tokenAddress",
          "type": "address"
        }
      ],
      "name": "TokenRegistered",
      "type": "event"
    },
    {
      "anonymous": false,
      "inputs": [
        {
          "indexed": true,
          "internalType": "address",
          "name": "token",
          "type": "address"
        },
        {
          "indexed": true,
          "internalType": "address",
          "name": "to",
          "type": "address"
        },
        {
          "indexed": false,
          "internalType": "uint256",
          "name": "amount",
          "type": "uint256"
        }
      ],
      "name": "TokenTransfer",
      "type": "event"
    },
    {
      "anonymous": false,
      "inputs": [
        {
          "indexed": true,
          "internalType": "address",
          "name": "vendor",
          "type": "address"
        },
        {
          "indexed": false,
          "internalType": "uint256",
          "name": "amount",
          "type": "uint256"
        }
      ],
      "name": "VendorAllowance",
      "type": "event"
    },
    {
      "anonymous": false,
      "inputs": [
        {
          "indexed": true,
          "internalType": "address",
          "name": "vendor",
          "type": "address"
        },
        {
          "indexed": false,
          "internalType": "uint256",
          "name": "amount",
          "type": "uint256"
        }
      ],
      "name": "VendorAllowanceAccept",
      "type": "event"
    },
    {
      "inputs": [],
      "name": "IID_RAHAT_PROJECT",
      "outputs": [
        {
          "internalType": "bytes4",
          "name": "",
          "type": "bytes4"
        }
      ],
      "stateMutability": "view",
      "type": "function"
    },
    {
      "inputs": [],
      "name": "RahatClaim",
      "outputs": [
        {
          "internalType": "contract IRahatClaim",
          "name": "",
          "type": "address"
        }
      ],
      "stateMutability": "view",
      "type": "function"
    },
    {
      "inputs": [],
      "name": "RahatCommunity",
      "outputs": [
        {
          "internalType": "contract IRahatCommunity",
          "name": "",
          "type": "address"
        }
      ],
      "stateMutability": "view",
      "type": "function"
    },
    {
      "inputs": [
        {
          "internalType": "uint256",
          "name": "_amount",
          "type": "uint256"
        }
      ],
      "name": "acceptAllowanceByVendor",
      "outputs": [],
      "stateMutability": "nonpayable",
      "type": "function"
    },
    {
      "inputs": [
        {
          "internalType": "address",
          "name": "_from",
          "type": "address"
        },
        {
          "internalType": "uint256",
          "name": "_amount",
          "type": "uint256"
        }
      ],
      "name": "acceptToken",
      "outputs": [],
      "stateMutability": "nonpayable",
      "type": "function"
    },
    {
      "inputs": [
        {
          "internalType": "address",
          "name": "_address",
          "type": "address"
        }
      ],
      "name": "addBeneficiary",
      "outputs": [],
      "stateMutability": "nonpayable",
      "type": "function"
    },
    {
      "inputs": [
        {
          "internalType": "address",
          "name": "_address",
          "type": "address"
        },
        {
          "internalType": "uint256",
          "name": "_claimAmount",
          "type": "uint256"
        }
      ],
      "name": "assignClaims",
      "outputs": [],
      "stateMutability": "nonpayable",
      "type": "function"
    },
    {
      "inputs": [
        {
          "internalType": "address",
          "name": "",
          "type": "address"
        }
      ],
      "name": "beneficiaryClaims",
      "outputs": [
        {
          "internalType": "uint256",
          "name": "",
          "type": "uint256"
        }
      ],
      "stateMutability": "view",
      "type": "function"
    },
    {
      "inputs": [],
      "name": "beneficiaryCount",
      "outputs": [
        {
          "internalType": "uint256",
          "name": "",
          "type": "uint256"
        }
      ],
      "stateMutability": "view",
      "type": "function"
    },
    {
      "inputs": [],
      "name": "community",
      "outputs": [
        {
          "internalType": "address",
          "name": "",
          "type": "address"
        }
      ],
      "stateMutability": "view",
      "type": "function"
    },
    {
      "inputs": [
        {
          "internalType": "address",
          "name": "_address",
          "type": "address"
        },
        {
          "internalType": "uint256",
          "name": "_amount",
          "type": "uint256"
        }
      ],
      "name": "createAllowanceToVendor",
      "outputs": [],
      "stateMutability": "nonpayable",
      "type": "function"
    },
    {
      "inputs": [],
      "name": "defaultToken",
      "outputs": [
        {
          "internalType": "address",
          "name": "",
          "type": "address"
        }
      ],
      "stateMutability": "view",
      "type": "function"
    },
    {
      "inputs": [
        {
          "internalType": "address",
          "name": "_address",
          "type": "address"
        }
      ],
      "name": "isBeneficiary",
      "outputs": [
        {
          "internalType": "bool",
          "name": "",
          "type": "bool"
        }
      ],
      "stateMutability": "view",
      "type": "function"
    },
    {
      "inputs": [
        {
          "internalType": "address",
          "name": "",
          "type": "address"
        }
      ],
      "name": "isDonor",
      "outputs": [
        {
          "internalType": "bool",
          "name": "",
          "type": "bool"
        }
      ],
      "stateMutability": "view",
      "type": "function"
    },
    {
      "inputs": [],
      "name": "isLocked",
      "outputs": [
        {
          "internalType": "bool",
          "name": "",
          "type": "bool"
        }
      ],
      "stateMutability": "view",
      "type": "function"
    },
    {
      "inputs": [],
      "name": "lockProject",
      "outputs": [],
      "stateMutability": "nonpayable",
      "type": "function"
    },
    {
      "inputs": [],
      "name": "lockProjectPermanently",
      "outputs": [],
      "stateMutability": "nonpayable",
      "type": "function"
    },
    {
      "inputs": [
        {
          "internalType": "bytes[]",
          "name": "data",
          "type": "bytes[]"
        }
      ],
      "name": "multicall",
      "outputs": [
        {
          "internalType": "bytes[]",
          "name": "results",
          "type": "bytes[]"
        }
      ],
      "stateMutability": "nonpayable",
      "type": "function"
    },
    {
      "inputs": [],
      "name": "name",
      "outputs": [
        {
          "internalType": "string",
          "name": "",
          "type": "string"
        }
      ],
      "stateMutability": "view",
      "type": "function"
    },
    {
      "inputs": [],
      "name": "otpServerAddress",
      "outputs": [
        {
          "internalType": "address",
          "name": "",
          "type": "address"
        }
      ],
      "stateMutability": "view",
      "type": "function"
    },
    {
      "inputs": [
        {
          "internalType": "address",
          "name": "_benAddress",
          "type": "address"
        },
        {
          "internalType": "string",
          "name": "_otp",
          "type": "string"
        }
      ],
      "name": "processTokenRequest",
      "outputs": [],
      "stateMutability": "nonpayable",
      "type": "function"
    },
    {
      "inputs": [
        {
          "internalType": "address",
          "name": "_address",
          "type": "address"
        }
      ],
      "name": "removeBeneficiary",
      "outputs": [],
      "stateMutability": "nonpayable",
      "type": "function"
    },
    {
      "inputs": [
        {
          "internalType": "address",
          "name": "_benAddress",
          "type": "address"
        },
        {
          "internalType": "uint256",
          "name": "_amount",
          "type": "uint256"
        },
        {
          "internalType": "address",
          "name": "_otpServerAddress",
          "type": "address"
        }
      ],
      "name": "requestTokenFromBeneficiary",
      "outputs": [
        {
          "internalType": "uint256",
          "name": "requestId",
          "type": "uint256"
        }
      ],
      "stateMutability": "nonpayable",
      "type": "function"
    },
    {
      "inputs": [
        {
          "internalType": "address",
          "name": "_benAddress",
          "type": "address"
        },
        {
          "internalType": "uint256",
          "name": "_amount",
          "type": "uint256"
        }
      ],
      "name": "requestTokenFromBeneficiary",
      "outputs": [
        {
          "internalType": "uint256",
          "name": "requestId",
          "type": "uint256"
        }
      ],
      "stateMutability": "nonpayable",
      "type": "function"
    },
    {
      "inputs": [
        {
          "internalType": "bytes4",
          "name": "interfaceId",
          "type": "bytes4"
        }
      ],
      "name": "supportsInterface",
      "outputs": [
        {
          "internalType": "bool",
          "name": "",
          "type": "bool"
        }
      ],
      "stateMutability": "view",
      "type": "function"
    },
    {
      "inputs": [
        {
          "internalType": "address",
          "name": "_tokenAddress",
          "type": "address"
        }
      ],
      "name": "tokenBudget",
      "outputs": [
        {
          "internalType": "uint256",
          "name": "",
          "type": "uint256"
        }
      ],
      "stateMutability": "view",
      "type": "function"
    },
    {
      "inputs": [
        {
          "internalType": "address",
          "name": "",
          "type": "address"
        },
        {
          "internalType": "address",
          "name": "",
          "type": "address"
        }
      ],
      "name": "tokenRequestIds",
      "outputs": [
        {
          "internalType": "uint256",
          "name": "",
          "type": "uint256"
        }
      ],
      "stateMutability": "view",
      "type": "function"
    },
    {
      "inputs": [],
      "name": "totalClaimsAssgined",
      "outputs": [
        {
          "internalType": "uint256",
          "name": "_totalClaims",
          "type": "uint256"
        }
      ],
      "stateMutability": "view",
      "type": "function"
    },
    {
      "inputs": [],
      "name": "totalVendorAllocation",
      "outputs": [
        {
          "internalType": "uint256",
          "name": "",
          "type": "uint256"
        }
      ],
      "stateMutability": "view",
      "type": "function"
    },
    {
      "inputs": [],
      "name": "unlockProject",
      "outputs": [],
      "stateMutability": "nonpayable",
      "type": "function"
    },
    {
      "inputs": [
        {
          "internalType": "address",
          "name": "_address",
          "type": "address"
        }
      ],
      "name": "updateOtpServer",
      "outputs": [],
      "stateMutability": "nonpayable",
      "type": "function"
    },
    {
      "inputs": [
        {
          "internalType": "address",
          "name": "",
          "type": "address"
        }
      ],
      "name": "vendorAllowance",
      "outputs": [
        {
          "internalType": "uint256",
          "name": "",
          "type": "uint256"
        }
      ],
      "stateMutability": "view",
      "type": "function"
    },
    {
      "inputs": [
        {
          "internalType": "address",
          "name": "",
          "type": "address"
        }
      ],
      "name": "vendorAllowancePending",
      "outputs": [
        {
          "internalType": "uint256",
          "name": "",
          "type": "uint256"
        }
      ],
      "stateMutability": "view",
      "type": "function"
    },
    {
      "inputs": [
        {
          "internalType": "address",
          "name": "_token",
          "type": "address"
        }
      ],
      "name": "withdrawToken",
      "outputs": [],
      "stateMutability": "nonpayable",
      "type": "function"
    }
  ],
  "bytecode": "0x60806040523480156200001157600080fd5b5060405162002ad038038062002ad0833981016040819052620000349162000131565b84816003620000448382620002e0565b5060048054610100600160a81b0319166101006001600160a01b03938416810291909117808355600780546001600160a01b03199081168b8716179091556008805482168a87161790556009805490911688861617905560405163521a58d360e11b8152309381019390935204909116915063a434b1a690602401600060405180830381600087803b158015620000da57600080fd5b505af1158015620000ef573d6000803e3d6000fd5b505050505050505050620003ac565b634e487b7160e01b600052604160045260246000fd5b80516001600160a01b03811681146200012c57600080fd5b919050565b600080600080600060a086880312156200014a57600080fd5b85516001600160401b03808211156200016257600080fd5b818801915088601f8301126200017757600080fd5b8151818111156200018c576200018c620000fe565b604051601f8201601f19908116603f01168101908382118183101715620001b757620001b7620000fe565b81604052828152602093508b84848701011115620001d457600080fd5b600091505b82821015620001f85784820184015181830185015290830190620001d9565b60008484830101528099505050506200021381890162000114565b95505050620002256040870162000114565b9250620002356060870162000114565b9150620002456080870162000114565b90509295509295909350565b600181811c908216806200026657607f821691505b6020821081036200028757634e487b7160e01b600052602260045260246000fd5b50919050565b601f821115620002db57600081815260208120601f850160051c81016020861015620002b65750805b601f850160051c820191505b81811015620002d757828155600101620002c2565b5050505b505050565b81516001600160401b03811115620002fc57620002fc620000fe565b62000314816200030d845462000251565b846200028d565b602080601f8311600181146200034c5760008415620003335750858301515b600019600386901b1c1916600185901b178555620002d7565b600085815260208120601f198616915b828110156200037d578886015182559484019460019091019084016200035c565b50858210156200039c5787850151600019600388901b60f8161c191681555b5050505050600190811b01905550565b61271480620003bc6000396000f3fe608060405234801561001057600080fd5b50600436106101c55760003560e01c806372a6c9b7116100fa57806398815c7f1161009d57806398815c7f1461040d5780639d19b22614610415578063a4e2d63414610428578063ac9650d814610435578063dc1fb5a514610455578063e6ea615d1461046b578063e730c8fb1461047e578063e9ecec5e1461049e578063eb681e62146104b157600080fd5b806372a6c9b714610370578063734b2a7c1461038357806374c13fda1461038b5780637b3657531461039e578063800fff3e146103b157806382209e08146103d157806389476069146103f15780638b17888c1461040457600080fd5b80633eb6c8931161016d5780633eb6c893146102b85780634a8d07e0146102c05780634fe21571146102d357806351b32234146102f95780635926651d1461030c57806359633a1c1461031f5780635bc4a4511461033257806364c20dc1146103455780636a4277f41461035857600080fd5b8062d008c6146101ca57806301ffc9a71461020857806306fdde031461023b5780631483f9171461025057806314e6d3d4146102655780632adc6f351461026d5780632bc3d7aa1461028d5780633cf991ae146102b0575b600080fd5b6101f56101d8366004611fd0565b600f60209081526000928352604080842090915290825290205481565b6040519081526020015b60405180910390f35b61022b610216366004612009565b6001600160e01b03191662f718eb60e81b1490565b60405190151581526020016101ff565b6102436104c4565b6040516101ff9190612083565b61026361025e366004612096565b610552565b005b610263610645565b600954610280906001600160a01b031681565b6040516101ff91906120c2565b61022b61029b3660046120d6565b600a6020526000908152604090205460ff1681565b6102636106d6565b6101f561077c565b6102636102ce366004612162565b6107dc565b6102e062f718eb60e81b81565b6040516001600160e01b031990911681526020016101ff565b610263610307366004612209565b6109e8565b61026361031a3660046120d6565b610bbc565b61026361032d3660046120d6565b610c7b565b6101f5610340366004612222565b610d42565b610263610353366004612096565b610f0a565b6004546102809061010090046001600160a01b031681565b61026361037e366004612096565b610fd0565b6101f56111c3565b600754610280906001600160a01b031681565b600854610280906001600160a01b031681565b6101f56103bf3660046120d6565b600b6020526000908152604090205481565b6101f56103df3660046120d6565b600e6020526000908152604090205481565b6102636103ff3660046120d6565b6111d4565b6101f5600c5481565b610263611302565b61022b6104233660046120d6565b61135b565b60045461022b9060ff1681565b610448610443366004612264565b61136e565b6040516101ff91906122d8565b60045461010090046001600160a01b0316610280565b6102636104793660046120d6565b611462565b6101f561048c3660046120d6565b600d6020526000908152604090205481565b6101f56104ac366004612096565b61153c565b6101f56104bf3660046120d6565b611581565b600380546104d19061233a565b80601f01602080910402602001604051908101604052809291908181526020018280546104fd9061233a565b801561054a5780601f1061051f5761010080835404028352916020019161054a565b820191906000526020600020905b81548152906001019060200180831161052d57829003601f168201915b505050505081565b60045460ff161561057e5760405162461bcd60e51b815260040161057590612374565b60405180910390fd5b60048054604051630935e01b60e21b81526101009091046001600160a01b0316916324d7806c916105b1913391016120c2565b602060405180830381865afa1580156105ce573d6000803e3d6000fd5b505050506040513d601f19601f820116820180604052508101906105f291906123b1565b61060e5760405162461bcd60e51b8152600401610575906123cc565b6001600160a01b038083166000908152600a60205260409020805460ff191660011790556007546106419116838361159c565b5050565b60045460ff16156106685760405162461bcd60e51b815260040161057590612374565b336000908152600a602052604090205460ff166106975760405162461bcd60e51b8152600401610575906123fb565b6007546000906106af906001600160a01b0316611581565b116106cc5760405162461bcd60e51b815260040161057590612420565b6106d4611728565b565b60045460ff16156106f95760405162461bcd60e51b815260040161057590612374565b336000908152600a602052604090205460ff166107285760405162461bcd60e51b8152600401610575906123fb565b600754600090610740906001600160a01b0316611581565b1161075d5760405162461bcd60e51b815260040161057590612420565b60005460ff166106cc576000805460ff191660011790556106d4611728565b6000805b61078a60056117aa565b8110156107d857600b60006107a06005846117b4565b6001600160a01b031681526020810191909152604001600020546107c49083612459565b9150806107d08161246c565b915050610780565b5090565b60045460ff166107fe5760405162461bcd60e51b815260040161057590612485565b600854336000908152600f602090815260408083206001600160a01b0387811685529252808320549051630a5eccd360e01b815292939190911691630a5eccd39161084d9186906004016124af565b610120604051808303816000875af115801561086d573d6000803e3d6000fd5b505050506040513d601f19601f8201168201806040525081019061089191906124d3565b60a08101516040808301516001600160a01b03166000908152600b602052205491925011156108f65760405162461bcd60e51b81526020600482015260116024820152706e6f7420656e6f7567682062616c61636560781b6044820152606401610575565b60a08101516040808301516001600160a01b03166000908152600b6020529081208054909190610927908490612574565b909155505060a08101516020808301516001600160a01b03166000908152600d90915260408120805490919061095e908490612574565b90915550506080810151602082015160a083015160405163a9059cbb60e01b81526001600160a01b039093169263a9059cbb9261099f929091600401612587565b6020604051808303816000875af11580156109be573d6000803e3d6000fd5b505050506040513d601f19601f820116820180604052508101906109e291906123b1565b50505050565b60045460ff1615610a0b5760405162461bcd60e51b815260040161057590612374565b60048054604051632474521560e21b81526101009091046001600160a01b0316916391d1485491610a60917f0aaf57387812c7f832412470a57567b5648a930069be49aa9c98d04f88520d34913391016125a0565b602060405180830381865afa158015610a7d573d6000803e3d6000fd5b505050506040513d601f19601f82011682018060405250810190610aa191906123b1565b610abd5760405162461bcd60e51b8152600401610575906125b7565b336000908152600d602052604081208054839290610adc908490612459565b9250508190555080600c6000828254610af59190612459565b9091555050336000908152600e602052604081208054839290610b19908490612574565b9091555050600c54600754610b36906001600160a01b0316611581565b1015610b845760405162461bcd60e51b815260206004820152601f60248201527f6e6f7420656e6f75676820617661696c61626c6520616c6c6f636174696f6e006044820152606401610575565b60405181815233907fe21656ebf1f319b65531e5dd12fbdd285ed987d36b4d548e7efff32ac48225f49060200160405180910390a250565b60045460ff1615610bdf5760405162461bcd60e51b815260040161057590612374565b60048054604051630935e01b60e21b81526101009091046001600160a01b0316916324d7806c91610c12913391016120c2565b602060405180830381865afa158015610c2f573d6000803e3d6000fd5b505050506040513d601f19601f82011682018060405250810190610c5391906123b1565b610c6f5760405162461bcd60e51b8152600401610575906123cc565b610c78816117c0565b50565b60045460ff1615610c9e5760405162461bcd60e51b815260040161057590612374565b60048054604051630935e01b60e21b81526101009091046001600160a01b0316916324d7806c91610cd1913391016120c2565b602060405180830381865afa158015610cee573d6000803e3d6000fd5b505050506040513d601f19601f82011682018060405250810190610d1291906123b1565b610d2e5760405162461bcd60e51b8152600401610575906123cc565b610d37816118bf565b610c7881600061190f565b60045460009060ff16610d675760405162461bcd60e51b815260040161057590612485565b6009546001600160a01b0316610db45760405162461bcd60e51b815260206004820152601260248201527134b73b30b634b21037ba3816b9b2b93b32b960711b6044820152606401610575565b6001600160a01b0384166000908152600b6020526040902054831115610dec5760405162461bcd60e51b8152600401610575906125dd565b336000908152600d6020526040902054831115610e495760405162461bcd60e51b815260206004820152601b60248201527a6e6f7420656e6f7567682076656e646f7220616c6c6f77616e636560281b6044820152606401610575565b6008546007546040516323fe50a360e01b81523360048201526001600160a01b03878116602483015285811660448301529182166064820152608481018690529116906323fe50a39060a4016020604051808303816000875af1158015610eb4573d6000803e3d6000fd5b505050506040513d601f19601f82011682018060405250810190610ed89190612609565b336000908152600f602090815260408083206001600160a01b0398909816835296905294909420849055509192915050565b60045460ff1615610f2d5760405162461bcd60e51b815260040161057590612374565b60048054604051630935e01b60e21b81526101009091046001600160a01b0316916324d7806c91610f60913391016120c2565b602060405180830381865afa158015610f7d573d6000803e3d6000fd5b505050506040513d601f19601f82011682018060405250810190610fa191906123b1565b610fbd5760405162461bcd60e51b8152600401610575906123cc565b610fc6826117c0565b610641828261190f565b60045460ff1615610ff35760405162461bcd60e51b815260040161057590612374565b60048054604051630935e01b60e21b81526101009091046001600160a01b0316916324d7806c91611026913391016120c2565b602060405180830381865afa158015611043573d6000803e3d6000fd5b505050506040513d601f19601f8201168201806040525081019061106791906123b1565b6110835760405162461bcd60e51b8152600401610575906123cc565b60048054604051632474521560e21b81526101009091046001600160a01b0316916391d14854916110d8917f0aaf57387812c7f832412470a57567b5648a930069be49aa9c98d04f88520d34918791016125a0565b602060405180830381865afa1580156110f5573d6000803e3d6000fd5b505050506040513d601f19601f8201168201806040525081019061111991906123b1565b6111355760405162461bcd60e51b8152600401610575906125b7565b600754819061114c906001600160a01b0316611581565b101561116a5760405162461bcd60e51b8152600401610575906125dd565b6001600160a01b0382166000818152600e602052604090819020839055517fd0ed9a3562d0266c8f68cdf4d2290db2f3350102c458d39e7ff0101217b55ee4906111b79084815260200190565b60405180910390a25050565b60006111cf60056117aa565b905090565b60045460ff166111f65760405162461bcd60e51b815260040161057590612485565b60048054604051630935e01b60e21b81526101009091046001600160a01b0316916324d7806c91611229913391016120c2565b602060405180830381865afa158015611246573d6000803e3d6000fd5b505050506040513d601f19601f8201168201806040525081019061126a91906123b1565b6112865760405162461bcd60e51b8152600401610575906123cc565b6040516370a0823160e01b81526000906001600160a01b038316906370a08231906112b59030906004016120c2565b602060405180830381865afa1580156112d2573d6000803e3d6000fd5b505050506040513d601f19601f820116820180604052508101906112f69190612609565b90506106418282611a22565b60045460ff166113245760405162461bcd60e51b815260040161057590612485565b336000908152600a602052604090205460ff166113535760405162461bcd60e51b8152600401610575906123fb565b6106d4611afe565b6000611368600583611b7b565b92915050565b6060816001600160401b03811115611388576113886120f3565b6040519080825280602002602001820160405280156113bb57816020015b60608152602001906001900390816113a65790505b50905060005b8281101561145b5761142b308585848181106113df576113df612622565b90506020028101906113f19190612638565b8080601f016020809104026020016040519081016040528093929190818152602001838380828437600092019190915250611b9d92505050565b82828151811061143d5761143d612622565b602002602001018190525080806114539061246c565b9150506113c1565b5092915050565b60048054604051630935e01b60e21b81526101009091046001600160a01b0316916324d7806c91611495913391016120c2565b602060405180830381865afa1580156114b2573d6000803e3d6000fd5b505050506040513d601f19601f820116820180604052508101906114d691906123b1565b6114f25760405162461bcd60e51b8152600401610575906123cc565b600980546001600160a01b0319166001600160a01b0383169081179091556040517f98f76a4e8c95145ebb341a2d4f0f5a023ae301dd6ac3518036bc41e3215daf8690600090a250565b60045460009060ff166115615760405162461bcd60e51b815260040161057590612485565b60095461157a90849084906001600160a01b0316610d42565b9392505050565b6001600160a01b031660009081526001602052604090205490565b6004805460405162b9028160e31b81526101009091046001600160a01b0316916305c81408916115ce913091016120c2565b602060405180830381865afa1580156115eb573d6000803e3d6000fd5b505050506040513d601f19601f8201168201806040525081019061160f91906123b1565b6116525760405162461bcd60e51b81526020600482015260146024820152731c1c9bda9958dd081b9bdd08185c1c1c9bdd995960621b6044820152606401610575565b6040516323b872dd60e01b81526001600160a01b038381166004830152306024830152604482018390528416906323b872dd906064016020604051808303816000875af11580156116a7573d6000803e3d6000fd5b505050506040513d601f19601f820116820180604052508101906116cb91906123b1565b506116d68382611bc2565b816001600160a01b0316836001600160a01b03167fa83965f0e7c5e026e57c9ba2dd91e4ebcca352f2d514498c1e9ed23ba65386008360405161171b91815260200190565b60405180910390a3505050565b600061173460056117aa565b116117725760405162461bcd60e51b815260206004820152600e60248201526d6e6f2062656e656669636961727960901b6044820152606401610575565b6004805460ff191660011790556040517f577e17a39a43caa4acb3286f2673f89149046ea0d90bd834ed63306abb69f4b290600090a1565b6000611368825490565b600061157a8383611c9a565b60048054604051634e8cd91360e11b81526101009091046001600160a01b031691639d19b226916117f3918591016120c2565b602060405180830381865afa158015611810573d6000803e3d6000fd5b505050506040513d601f19601f8201168201806040525081019061183491906123b1565b6118705760405162461bcd60e51b815260206004820152600d60248201526c3737ba103b30b634b2103132b760991b6044820152606401610575565b61187b600582611b7b565b6118b4576040516001600160a01b038216907fc3e089fc6227e049d0e41c3d7a383d57efe69c1955c5752f7e5a9b5f1f11302090600090a25b610641600582611cc4565b6118ca600582611b7b565b15611904576040516001600160a01b038216907f72977dad29432f655f11c2f0e72ef5124bb9ade7a512fb7a43a9f504df22342890600090a25b610641600582611cd9565b8061191861077c565b6119229190612459565b6007546040516370a0823160e01b81526001600160a01b03909116906370a08231906119529030906004016120c2565b602060405180830381865afa15801561196f573d6000803e3d6000fd5b505050506040513d601f19601f820116820180604052508101906119939190612609565b10156119d55760405162461bcd60e51b81526020600482015260116024820152706e6f7420656e6f75676820746f6b656e7360781b6044820152606401610575565b6001600160a01b0382166000818152600b602052604090819020839055517f4631d14d4c16b9460d34e65ad5f88348611250f573857337076bcb9634d685bb906111b79084815260200190565b6004805460405163a9059cbb60e01b81526001600160a01b038086169363a9059cbb93611a5b9361010090910490921691869101612587565b6020604051808303816000875af1158015611a7a573d6000803e3d6000fd5b505050506040513d601f19601f82011682018060405250810190611a9e91906123b1565b50611aa98282611cee565b6004546040516001600160a01b036101009092048216918416907fd0ed88a3f042c6bbb1e3ea406079b5f2b4b198afccaa535d837f4c63abbc4de690611af29085815260200190565b60405180910390a35050565b60005460ff1615611b465760405162461bcd60e51b81526020600482015260126024820152716c6f636b6564207065726d616e656e746c7960701b6044820152606401610575565b6004805460ff191690556040517fe167080736827330cdcb07e06bd8a4e63a3c36e0eedd704d96f9739b6b62ea2c90600090a1565b6001600160a01b0381166000908152600183016020526040812054151561157a565b606061157a83836040518060600160405280602781526020016126b860279139611d56565b6001600160a01b03821660009081526001602052604081208054839290611bea908490612459565b90915550506040518181526001600160a01b038316907fe49f42d07d8046279c22af872fe6bc5678c4dfc38ace0f43b8e8d5a03d0e8f109060200160405180910390a26001600160a01b03821660009081526002602052604090205460ff16610641576001600160a01b038216600081815260026020526040808220805460ff19166001179055517f158412daecdc1456d01568828bcdb18464cc7f1ce0215ddbc3f3cfede9d1e63d9190a25050565b6000826000018281548110611cb157611cb1612622565b9060005260206000200154905092915050565b600061157a836001600160a01b038416611dce565b600061157a836001600160a01b038416611e1d565b6001600160a01b03821660009081526001602052604081208054839290611d16908490612574565b90915550506040518181526001600160a01b038316907f854a0a098d6cafcdbf8cc91b503d29e40e31095273eec189216a6ed881543eb4906020016111b7565b6060600080856001600160a01b031685604051611d739190612685565b600060405180830381855af49150503d8060008114611dae576040519150601f19603f3d011682016040523d82523d6000602084013e611db3565b606091505b5091509150611dc486838387611f10565b9695505050505050565b6000818152600183016020526040812054611e1557508154600181810184556000848152602080822090930184905584548482528286019093526040902091909155611368565b506000611368565b60008181526001830160205260408120548015611f06576000611e41600183612574565b8554909150600090611e5590600190612574565b9050818114611eba576000866000018281548110611e7557611e75612622565b9060005260206000200154905080876000018481548110611e9857611e98612622565b6000918252602080832090910192909255918252600188019052604090208390555b8554869080611ecb57611ecb6126a1565b600190038181906000526020600020016000905590558560010160008681526020019081526020016000206000905560019350505050611368565b6000915050611368565b60608315611f7f578251600003611f78576001600160a01b0385163b611f785760405162461bcd60e51b815260206004820152601d60248201527f416464726573733a2063616c6c20746f206e6f6e2d636f6e74726163740000006044820152606401610575565b5081611f89565b611f898383611f91565b949350505050565b815115611fa15781518083602001fd5b8060405162461bcd60e51b81526004016105759190612083565b6001600160a01b0381168114610c7857600080fd5b60008060408385031215611fe357600080fd5b8235611fee81611fbb565b91506020830135611ffe81611fbb565b809150509250929050565b60006020828403121561201b57600080fd5b81356001600160e01b03198116811461157a57600080fd5b60005b8381101561204e578181015183820152602001612036565b50506000910152565b6000815180845261206f816020860160208601612033565b601f01601f19169290920160200192915050565b60208152600061157a6020830184612057565b600080604083850312156120a957600080fd5b82356120b481611fbb565b946020939093013593505050565b6001600160a01b0391909116815260200190565b6000602082840312156120e857600080fd5b813561157a81611fbb565b634e487b7160e01b600052604160045260246000fd5b60405161012081016001600160401b038111828210171561212c5761212c6120f3565b60405290565b604051601f8201601f191681016001600160401b038111828210171561215a5761215a6120f3565b604052919050565b6000806040838503121561217557600080fd5b823561218081611fbb565b91506020838101356001600160401b038082111561219d57600080fd5b818601915086601f8301126121b157600080fd5b8135818111156121c3576121c36120f3565b6121d5601f8201601f19168501612132565b915080825287848285010111156121eb57600080fd5b80848401858401376000848284010152508093505050509250929050565b60006020828403121561221b57600080fd5b5035919050565b60008060006060848603121561223757600080fd5b833561224281611fbb565b925060208401359150604084013561225981611fbb565b809150509250925092565b6000806020838503121561227757600080fd5b82356001600160401b038082111561228e57600080fd5b818501915085601f8301126122a257600080fd5b8135818111156122b157600080fd5b8660208260051b85010111156122c657600080fd5b60209290920196919550909350505050565b6000602080830181845280855180835260408601915060408160051b870101925083870160005b8281101561232d57603f1988860301845261231b858351612057565b945092850192908501906001016122ff565b5092979650505050505050565b600181811c9082168061234e57607f821691505b60208210810361236e57634e487b7160e01b600052602260045260246000fd5b50919050565b6020808252600e908201526d1c1c9bda9958dd081b1bd8dad95960921b604082015260600190565b805180151581146123ac57600080fd5b919050565b6000602082840312156123c357600080fd5b61157a8261239c565b6020808252601590820152743737ba10309031b7b6b6bab734ba3c9030b236b4b760591b604082015260600190565b6020808252600b908201526a3737ba1030903237b737b960a91b604082015260600190565b6020808252600990820152686e6f20746f6b656e7360b81b604082015260600190565b634e487b7160e01b600052601160045260246000fd5b8082018082111561136857611368612443565b60006001820161247e5761247e612443565b5060010190565b60208082526010908201526f1c1c9bda9958dd081d5b9b1bd8dad95960821b604082015260600190565b828152604060208201526000611f896040830184612057565b80516123ac81611fbb565b600061012082840312156124e657600080fd5b6124ee612109565b6124f7836124c8565b8152612505602084016124c8565b6020820152612516604084016124c8565b6040820152612527606084016124c8565b6060820152612538608084016124c8565b608082015260a083015160a082015260c083015160c082015260e083015160e082015261010061256981850161239c565b908201529392505050565b8181038181111561136857611368612443565b6001600160a01b03929092168252602082015260400190565b9182526001600160a01b0316602082015260400190565b6020808252600c908201526b2737ba1030902b32b73237b960a11b604082015260600190565b6020808252601290820152716e6f7420656e6f7567682062616c616e636560701b604082015260600190565b60006020828403121561261b57600080fd5b5051919050565b634e487b7160e01b600052603260045260246000fd5b6000808335601e1984360301811261264f57600080fd5b8301803591506001600160401b0382111561266957600080fd5b60200191503681900382131561267e57600080fd5b9250929050565b60008251612697818460208701612033565b9190910192915050565b634e487b7160e01b600052603160045260246000fdfe416464726573733a206c6f772d6c6576656c2064656c65676174652063616c6c206661696c6564a264697066735822122057375f189b99f09b0070887b6d90229931c09c316ae4df0f1617219323315e8364736f6c63430008110033",
  "linkReferences": {},
  "deployedLinkReferences": {}
}