{
  "_format": "hh-sol-artifact-1",
  "contractName": "CVAProject",
  "sourceName": "src/contracts/projects/CVAProject.sol",
  "abi": [
    {
      "inputs": [
        {
          "internalType": "string",
          "name": "_name",
          "type": "string"
        },
        {
          "internalType": "address",
          "name": "_defaultToken",
          "type": "address"
        },
        {
          "internalType": "address",
          "name": "_rahatClaim",
          "type": "address"
        },
        {
          "internalType": "address",
          "name": "_otpServerAddress",
          "type": "address"
        },
        {
          "internalType": "address",
          "name": "_community",
          "type": "address"
        }
      ],
      "stateMutability": "nonpayable",
      "type": "constructor"
    },
    {
      "inputs": [],
      "name": "RahatClaim",
      "outputs": [
        {
          "internalType": "contract IRahatClaim",
          "name": "",
          "type": "address"
        }
      ],
      "stateMutability": "view",
      "type": "function"
    },
    {
      "inputs": [],
      "name": "RahatCommunity",
      "outputs": [
        {
          "internalType": "contract IRahatCommunity",
          "name": "",
          "type": "address"
        }
      ],
      "stateMutability": "view",
      "type": "function"
    },
    {
      "inputs": [
        {
          "internalType": "uint256",
          "name": "_amount",
          "type": "uint256"
        }
      ],
      "name": "acceptAllowance",
      "outputs": [],
      "stateMutability": "nonpayable",
      "type": "function"
    },
    {
      "inputs": [
        {
          "internalType": "address",
          "name": "_from",
          "type": "address"
        },
        {
          "internalType": "uint256",
          "name": "_amount",
          "type": "uint256"
        }
      ],
      "name": "acceptToken",
      "outputs": [],
      "stateMutability": "nonpayable",
      "type": "function"
    },
    {
      "inputs": [
        {
          "internalType": "address",
          "name": "_address",
          "type": "address"
        }
      ],
      "name": "addBeneficiary",
      "outputs": [],
      "stateMutability": "nonpayable",
      "type": "function"
    },
    {
      "inputs": [
        {
          "internalType": "address",
          "name": "_address",
          "type": "address"
        },
        {
          "internalType": "uint256",
          "name": "_amount",
          "type": "uint256"
        }
      ],
      "name": "addClaimToBeneficiary",
      "outputs": [],
      "stateMutability": "nonpayable",
      "type": "function"
    },
    {
      "inputs": [
        {
          "internalType": "address",
          "name": "_address",
          "type": "address"
        },
        {
          "internalType": "uint256",
          "name": "_amount",
          "type": "uint256"
        }
      ],
      "name": "allowanceToVendor",
      "outputs": [],
      "stateMutability": "nonpayable",
      "type": "function"
    },
    {
      "inputs": [],
      "name": "beneficiaryCount",
      "outputs": [
        {
          "internalType": "uint256",
          "name": "",
          "type": "uint256"
        }
      ],
      "stateMutability": "view",
      "type": "function"
    },
    {
      "inputs": [
        {
          "internalType": "address",
          "name": "",
          "type": "address"
        }
      ],
      "name": "claims",
      "outputs": [
        {
          "internalType": "uint256",
          "name": "",
          "type": "uint256"
        }
      ],
      "stateMutability": "view",
      "type": "function"
    },
    {
      "inputs": [],
      "name": "defaultToken",
      "outputs": [
        {
          "internalType": "address",
          "name": "",
          "type": "address"
        }
      ],
      "stateMutability": "view",
      "type": "function"
    },
    {
      "inputs": [
        {
          "internalType": "address",
          "name": "",
          "type": "address"
        }
      ],
      "name": "isDonor",
      "outputs": [
        {
          "internalType": "bool",
          "name": "",
          "type": "bool"
        }
      ],
      "stateMutability": "view",
      "type": "function"
    },
    {
      "inputs": [],
      "name": "isLocked",
      "outputs": [
        {
          "internalType": "bool",
          "name": "",
          "type": "bool"
        }
      ],
      "stateMutability": "view",
      "type": "function"
    },
    {
      "inputs": [
        {
          "internalType": "uint256",
          "name": "start",
          "type": "uint256"
        },
        {
          "internalType": "uint256",
          "name": "limit",
          "type": "uint256"
        }
      ],
      "name": "listBeneficiaries",
      "outputs": [
        {
          "internalType": "address[]",
          "name": "_addresses",
          "type": "address[]"
        }
      ],
      "stateMutability": "view",
      "type": "function"
    },
    {
      "inputs": [
        {
          "internalType": "uint256",
          "name": "_amount",
          "type": "uint256"
        }
      ],
      "name": "lockProject",
      "outputs": [],
      "stateMutability": "nonpayable",
      "type": "function"
    },
    {
      "inputs": [],
      "name": "name",
      "outputs": [
        {
          "internalType": "string",
          "name": "",
          "type": "string"
        }
      ],
      "stateMutability": "view",
      "type": "function"
    },
    {
      "inputs": [],
      "name": "otpServerAddress",
      "outputs": [
        {
          "internalType": "address",
          "name": "",
          "type": "address"
        }
      ],
      "stateMutability": "view",
      "type": "function"
    },
    {
      "inputs": [
        {
          "internalType": "address",
          "name": "_benAddress",
          "type": "address"
        },
        {
          "internalType": "string",
          "name": "_otp",
          "type": "string"
        }
      ],
      "name": "processTokenRequest",
      "outputs": [],
      "stateMutability": "nonpayable",
      "type": "function"
    },
    {
      "inputs": [
        {
          "internalType": "address",
          "name": "_address",
          "type": "address"
        }
      ],
      "name": "removeBeneficiary",
      "outputs": [],
      "stateMutability": "nonpayable",
      "type": "function"
    },
    {
      "inputs": [
        {
          "internalType": "address",
          "name": "_benAddress",
          "type": "address"
        },
        {
          "internalType": "uint256",
          "name": "_amount",
          "type": "uint256"
        },
        {
          "internalType": "address",
          "name": "_otpServerAddress",
          "type": "address"
        }
      ],
      "name": "requestTokenFromBeneficiary",
      "outputs": [
        {
          "internalType": "uint256",
          "name": "requestId",
          "type": "uint256"
        }
      ],
      "stateMutability": "nonpayable",
      "type": "function"
    },
    {
      "inputs": [
        {
          "internalType": "address",
          "name": "_benAddress",
          "type": "address"
        },
        {
          "internalType": "uint256",
          "name": "_amount",
          "type": "uint256"
        }
      ],
      "name": "requestTokenFromBeneficiary",
      "outputs": [
        {
          "internalType": "uint256",
          "name": "requestId",
          "type": "uint256"
        }
      ],
      "stateMutability": "nonpayable",
      "type": "function"
    },
    {
      "inputs": [
        {
          "internalType": "address",
          "name": "",
          "type": "address"
        },
        {
          "internalType": "address",
          "name": "",
          "type": "address"
        }
      ],
      "name": "tokenRequestIds",
      "outputs": [
        {
          "internalType": "uint256",
          "name": "",
          "type": "uint256"
        }
      ],
      "stateMutability": "view",
      "type": "function"
    },
    {
      "inputs": [],
      "name": "tokensReceived",
      "outputs": [
        {
          "internalType": "uint256",
          "name": "",
          "type": "uint256"
        }
      ],
      "stateMutability": "view",
      "type": "function"
    },
    {
      "inputs": [],
      "name": "totalVendorAllocation",
      "outputs": [
        {
          "internalType": "uint256",
          "name": "",
          "type": "uint256"
        }
      ],
      "stateMutability": "view",
      "type": "function"
    },
    {
      "inputs": [],
      "name": "unlockProject",
      "outputs": [],
      "stateMutability": "nonpayable",
      "type": "function"
    },
    {
      "inputs": [
        {
          "internalType": "address",
          "name": "_address",
          "type": "address"
        }
      ],
      "name": "updateOtpServerAddress",
      "outputs": [],
      "stateMutability": "nonpayable",
      "type": "function"
    },
    {
      "inputs": [
        {
          "internalType": "address",
          "name": "",
          "type": "address"
        }
      ],
      "name": "vendorAllowance",
      "outputs": [
        {
          "internalType": "uint256",
          "name": "",
          "type": "uint256"
        }
      ],
      "stateMutability": "view",
      "type": "function"
    },
    {
      "inputs": [
        {
          "internalType": "address",
          "name": "",
          "type": "address"
        }
      ],
      "name": "vendorAllowancePending",
      "outputs": [
        {
          "internalType": "uint256",
          "name": "",
          "type": "uint256"
        }
      ],
      "stateMutability": "view",
      "type": "function"
    },
    {
      "inputs": [
        {
          "internalType": "address",
          "name": "_token",
          "type": "address"
        }
      ],
      "name": "withdrawSurplusTokens",
      "outputs": [],
      "stateMutability": "nonpayable",
      "type": "function"
    }
  ],
  "bytecode": "0x60806040523480156200001157600080fd5b50604051620022153803806200221583398101604081905262000034916200011f565b6000620000428682620002ce565b50600180546001600160a01b038681166001600160a01b03199283161790925560028054868416908316179055600380548484169083168117909155600480549386169390921692909217815560405163cc4c84db60e01b8152309181019190915263cc4c84db90602401600060405180830381600087803b158015620000c857600080fd5b505af1158015620000dd573d6000803e3d6000fd5b5050505050505050506200039a565b634e487b7160e01b600052604160045260246000fd5b80516001600160a01b03811681146200011a57600080fd5b919050565b600080600080600060a086880312156200013857600080fd5b85516001600160401b03808211156200015057600080fd5b818801915088601f8301126200016557600080fd5b8151818111156200017a576200017a620000ec565b604051601f8201601f19908116603f01168101908382118183101715620001a557620001a5620000ec565b81604052828152602093508b84848701011115620001c257600080fd5b600091505b82821015620001e65784820184015181830185015290830190620001c7565b60008484830101528099505050506200020181890162000102565b95505050620002136040870162000102565b9250620002236060870162000102565b9150620002336080870162000102565b90509295509295909350565b600181811c908216806200025457607f821691505b6020821081036200027557634e487b7160e01b600052602260045260246000fd5b50919050565b601f821115620002c957600081815260208120601f850160051c81016020861015620002a45750805b601f850160051c820191505b81811015620002c557828155600101620002b0565b5050505b505050565b81516001600160401b03811115620002ea57620002ea620000ec565b6200030281620002fb84546200023f565b846200027b565b602080601f8311600181146200033a5760008415620003215750858301515b600019600386901b1c1916600185901b178555620002c5565b600085815260208120601f198616915b828110156200036b578886015182559484019460019091019084016200034a565b50858210156200038a5787850151600019600388901b60f8161c191681555b5050505050600190811b01905550565b611e6b80620003aa6000396000f3fe608060405234801561001057600080fd5b50600436106101635760003560e01c806374c13fda116100c957806374c13fda146102b9578063767df46e146102cc5780637b365753146102ec5780637f318ef8146102ff57806382209e081461031257806389bfcb94146103325780638b17888c1461034557806398815c7f1461034e578063a4e2d63414610356578063c6788bdd1461036a578063e730c8fb1461038a578063e9ecec5e146103aa578063f03d616f146103bd578063fbace7a5146103d057600080fd5b8062d008c61461016857806306fdde03146101a65780631483f917146101bb5780631afd1a4b146101d05780632adc6f35146101e35780632bc3d7aa146102035780633bb0cc55146102365780634a8d07e01461023f578063583a0194146102525780635926651d1461026557806359633a1c146102785780635bc4a4511461028b5780636a4277f41461029e578063734b2a7c146102b1575b600080fd5b61019361017636600461186a565b600d60209081526000928352604080842090915290825290205481565b6040519081526020015b60405180910390f35b6101ae6103e3565b60405161019d91906118e9565b6101ce6101c93660046118fc565b610471565b005b6101ce6101de366004611928565b61067e565b6004546101f6906001600160a01b031681565b60405161019d9190611945565b610226610211366004611928565b60076020526000908152604090205460ff1681565b604051901515815260200161019d565b61019360085481565b6101ce61024d3660046119ca565b610820565b6101ce6102603660046118fc565b610a12565b6101ce610273366004611928565b610b94565b6101ce610286366004611928565b610d07565b610193610299366004611a72565b610dc9565b6003546101f6906001600160a01b031681565b610193610fab565b6001546101f6906001600160a01b031681565b6102df6102da366004611ab4565b610fbc565b60405161019d9190611ad6565b6002546101f6906001600160a01b031681565b6101ce61030d366004611b23565b611021565b610193610320366004611928565b600c6020526000908152604090205481565b6101ce6103403660046118fc565b611190565b610193600a5481565b6101ce6112ac565b60015461022690600160a01b900460ff1681565b610193610378366004611928565b60096020526000908152604090205481565b610193610398366004611928565b600b6020526000908152604090205481565b6101936103b83660046118fc565b611366565b6101ce6103cb366004611928565b6113b3565b6101ce6103de366004611b23565b611462565b600080546103f090611b3c565b80601f016020809104026020016040519081016040528092919081815260200182805461041c90611b3c565b80156104695780601f1061043e57610100808354040283529160200191610469565b820191906000526020600020905b81548152906001019060200180831161044c57829003601f168201915b505050505081565b600154600160a01b900460ff16156104a45760405162461bcd60e51b815260040161049b90611b76565b60405180910390fd5b600354604051630935e01b60e21b81526001600160a01b03909116906324d7806c906104d4903390600401611945565b602060405180830381865afa1580156104f1573d6000803e3d6000fd5b505050506040513d601f19601f820116820180604052508101906105159190611bb3565b6105315760405162461bcd60e51b815260040161049b90611bce565b60035460405163311eab2960e11b81526001600160a01b039091169063623d565290610561903090600401611945565b602060405180830381865afa15801561057e573d6000803e3d6000fd5b505050506040513d601f19601f820116820180604052508101906105a29190611bb3565b6105e55760405162461bcd60e51b81526020600482015260146024820152731c1c9bda9958dd081b9bdd08185c1c1c9bdd995960621b604482015260640161049b565b6001546040516323b872dd60e01b81526001600160a01b03848116600483015230602483015260448201849052909116906323b872dd906064016020604051808303816000875af115801561063e573d6000803e3d6000fd5b505050506040513d601f19601f820116820180604052508101906106629190611bb3565b5080600860008282546106759190611c13565b90915550505050565b600354604051630935e01b60e21b81526001600160a01b03909116906324d7806c906106ae903390600401611945565b602060405180830381865afa1580156106cb573d6000803e3d6000fd5b505050506040513d601f19601f820116820180604052508101906106ef9190611bb3565b61070b5760405162461bcd60e51b815260040161049b90611bce565b6040516370a0823160e01b81526000906001600160a01b038316906370a082319061073a903090600401611945565b602060405180830381865afa158015610757573d6000803e3d6000fd5b505050506040513d601f19601f8201168201806040525081019061077b9190611c26565b6001549091506001600160a01b03908116908316036107a4576008546107a19082611c3f565b90505b60035460405163a9059cbb60e01b81526001600160a01b038481169263a9059cbb926107d892909116908590600401611c52565b6020604051808303816000875af11580156107f7573d6000803e3d6000fd5b505050506040513d601f19601f8201168201806040525081019061081b9190611bb3565b505050565b600154600160a01b900460ff161561084a5760405162461bcd60e51b815260040161049b90611c6b565b600254336000908152600d602090815260408083206001600160a01b0387811685529252808320549051630a5eccd360e01b815292939190911691630a5eccd391610899918690600401611c95565b610120604051808303816000875af11580156108b9573d6000803e3d6000fd5b505050506040513d601f19601f820116820180604052508101906108dd9190611cc1565b6040808201516001600160a01b031660009081526009602052205460a0820151919250908110156109445760405162461bcd60e51b81526020600482015260116024820152706e6f7420656e6f7567682062616c61636560781b604482015260640161049b565b60a08201516109539082611c3f565b60a08301516020808501516001600160a01b03166000908152600b9091526040812080549394509192610987908490611c3f565b90915550506080820151602083015160a084015160405163a9059cbb60e01b81526001600160a01b039093169263a9059cbb926109c8929091600401611c52565b6020604051808303816000875af11580156109e7573d6000803e3d6000fd5b505050506040513d601f19601f82011682018060405250810190610a0b9190611bb3565b5050505050565b600154600160a01b900460ff1615610a3c5760405162461bcd60e51b815260040161049b90611b76565b600354604051630935e01b60e21b81526001600160a01b03909116906324d7806c90610a6c903390600401611945565b602060405180830381865afa158015610a89573d6000803e3d6000fd5b505050506040513d601f19601f82011682018060405250810190610aad9190611bb3565b610ac95760405162461bcd60e51b815260040161049b90611bce565b60035460405163ee54d54f60e01b81526001600160a01b039091169063ee54d54f90610af9908590600401611945565b602060405180830381865afa158015610b16573d6000803e3d6000fd5b505050506040513d601f19601f82011682018060405250810190610b3a9190611bb3565b610b565760405162461bcd60e51b815260040161049b90611d62565b806008541015610b785760405162461bcd60e51b815260040161049b90611d88565b6001600160a01b039091166000908152600c6020526040902055565b600154600160a01b900460ff1615610bbe5760405162461bcd60e51b815260040161049b90611b76565b600354604051630935e01b60e21b81526001600160a01b03909116906324d7806c90610bee903390600401611945565b602060405180830381865afa158015610c0b573d6000803e3d6000fd5b505050506040513d601f19601f82011682018060405250810190610c2f9190611bb3565b610c4b5760405162461bcd60e51b815260040161049b90611bce565b600354604051634e8cd91360e11b81526001600160a01b0390911690639d19b22690610c7b908490600401611945565b602060405180830381865afa158015610c98573d6000803e3d6000fd5b505050506040513d601f19601f82011682018060405250810190610cbc9190611bb3565b610cf85760405162461bcd60e51b815260206004820152600d60248201526c3737ba103b30b634b2103132b760991b604482015260640161049b565b610d03600582611562565b5050565b600154600160a01b900460ff1615610d315760405162461bcd60e51b815260040161049b90611b76565b600354604051630935e01b60e21b81526001600160a01b03909116906324d7806c90610d61903390600401611945565b602060405180830381865afa158015610d7e573d6000803e3d6000fd5b505050506040513d601f19601f82011682018060405250810190610da29190611bb3565b610dbe5760405162461bcd60e51b815260040161049b90611bce565b610d0360058261157d565b600154600090600160a01b900460ff1615610df65760405162461bcd60e51b815260040161049b90611c6b565b6004546001600160a01b0316610e435760405162461bcd60e51b815260206004820152601260248201527134b73b30b634b21037ba3816b9b2b93b32b960711b604482015260640161049b565b6001600160a01b038416600090815260096020526040902054831115610e7b5760405162461bcd60e51b815260040161049b90611d88565b336000908152600b6020526040902054831115610ed85760405162461bcd60e51b815260206004820152601b60248201527a6e6f7420656e6f7567682076656e646f7220616c6c6f77616e636560281b604482015260640161049b565b60018054600160a81b60ff60a81b198216179091556002546040516323fe50a360e01b81523360048201526001600160a01b03878116602483015285811660448301529283166064820152608481018690529116906323fe50a39060a4016020604051808303816000875af1158015610f55573d6000803e3d6000fd5b505050506040513d601f19601f82011682018060405250810190610f799190611c26565b336000908152600d602090815260408083206001600160a01b0398909816835296905294909420849055509192915050565b6000610fb76005611592565b905090565b606060005b8281101561101a57610fde610fd68286611c13565b60059061159c565b828281518110610ff057610ff0611db4565b6001600160a01b03909216602092830291909101909101528061101281611dca565b915050610fc1565b5092915050565b600154600160a01b900460ff161561104b5760405162461bcd60e51b815260040161049b90611b76565b60035460405163ee54d54f60e01b81526001600160a01b039091169063ee54d54f9061107b903390600401611945565b602060405180830381865afa158015611098573d6000803e3d6000fd5b505050506040513d601f19601f820116820180604052508101906110bc9190611bb3565b6110d85760405162461bcd60e51b815260040161049b90611d62565b336000908152600b6020526040812080548392906110f7908490611c13565b9250508190555080600a60008282546111109190611c13565b9091555050336000908152600c602052604081208054839290611134908490611c3f565b9091555050600a54600854101561118d5760405162461bcd60e51b815260206004820152601f60248201527f6e6f7420656e6f75676820617661696c61626c6520616c6c6f636174696f6e00604482015260640161049b565b50565b600154600160a01b900460ff16156111ba5760405162461bcd60e51b815260040161049b90611b76565b600354604051630935e01b60e21b81526001600160a01b03909116906324d7806c906111ea903390600401611945565b602060405180830381865afa158015611207573d6000803e3d6000fd5b505050506040513d601f19601f8201168201806040525081019061122b9190611bb3565b6112475760405162461bcd60e51b815260040161049b90611bce565b6112526005836115a8565b6112905760405162461bcd60e51b815260206004820152600f60248201526e6e6f742062656e656669636961727960881b604482015260640161049b565b6001600160a01b03909116600090815260096020526040902055565b600154600160a01b900460ff16156112d65760405162461bcd60e51b815260040161049b90611c6b565b3360009081526007602052604090205460ff166113055760405162461bcd60e51b815260040161049b90611de3565b600154600160a81b900460ff16156113575760405162461bcd60e51b815260206004820152601560248201527418db185a5b48185b1c9958591e481cdd185c9d1959605a1b604482015260640161049b565b6001805460ff60a01b19169055565b600154600090600160a01b900460ff16156113935760405162461bcd60e51b815260040161049b90611c6b565b6004546113ac90849084906001600160a01b0316610dc9565b9392505050565b600354604051630935e01b60e21b81526001600160a01b03909116906324d7806c906113e3903390600401611945565b602060405180830381865afa158015611400573d6000803e3d6000fd5b505050506040513d601f19601f820116820180604052508101906114249190611bb3565b6114405760405162461bcd60e51b815260040161049b90611bce565b600480546001600160a01b0319166001600160a01b0392909216919091179055565b600154600160a01b900460ff161561148c5760405162461bcd60e51b815260040161049b90611b76565b3360009081526007602052604090205460ff166114bb5760405162461bcd60e51b815260040161049b90611de3565b6000600854116114f95760405162461bcd60e51b81526020600482015260096024820152686e6f20746f6b656e7360b81b604482015260640161049b565b60006115056005611592565b116115435760405162461bcd60e51b815260206004820152600e60248201526d6e6f2062656e656669636961727960901b604482015260640161049b565b61154c816115ca565b506001805460ff60a01b1916600160a01b179055565b60006113ac836001600160a01b0384166116e9565b92915050565b60006113ac836001600160a01b038416611738565b6000611577825490565b60006113ac838361182b565b6001600160a01b038116600090815260018301602052604081205415156113ac565b6000816115d76005611592565b6115e19190611e08565b6001546040516370a0823160e01b815291925082916001600160a01b03909116906370a0823190611616903090600401611945565b602060405180830381865afa158015611633573d6000803e3d6000fd5b505050506040513d601f19601f820116820180604052508101906116579190611c26565b10156116995760405162461bcd60e51b81526020600482015260116024820152706e6f7420656e6f75676820746f6b656e7360781b604482015260640161049b565b60005b6116a66005611592565b81101561081b5782600960006116bd60058561159c565b6001600160a01b03168152602081019190915260400160002055806116e181611dca565b91505061169c565b600081815260018301602052604081205461173057508154600181810184556000848152602080822090930184905584548482528286019093526040902091909155611577565b506000611577565b6000818152600183016020526040812054801561182157600061175c600183611c3f565b855490915060009061177090600190611c3f565b90508181146117d557600086600001828154811061179057611790611db4565b90600052602060002001549050808760000184815481106117b3576117b3611db4565b6000918252602080832090910192909255918252600188019052604090208390555b85548690806117e6576117e6611e1f565b600190038181906000526020600020016000905590558560010160008681526020019081526020016000206000905560019350505050611577565b6000915050611577565b600082600001828154811061184257611842611db4565b9060005260206000200154905092915050565b6001600160a01b038116811461118d57600080fd5b6000806040838503121561187d57600080fd5b823561188881611855565b9150602083013561189881611855565b809150509250929050565b6000815180845260005b818110156118c9576020818501810151868301820152016118ad565b506000602082860101526020601f19601f83011685010191505092915050565b6020815260006113ac60208301846118a3565b6000806040838503121561190f57600080fd5b823561191a81611855565b946020939093013593505050565b60006020828403121561193a57600080fd5b81356113ac81611855565b6001600160a01b0391909116815260200190565b634e487b7160e01b600052604160045260246000fd5b604051610120810167ffffffffffffffff8111828210171561199357611993611959565b60405290565b604051601f8201601f1916810167ffffffffffffffff811182821017156119c2576119c2611959565b604052919050565b600080604083850312156119dd57600080fd5b82356119e881611855565b915060208381013567ffffffffffffffff80821115611a0657600080fd5b818601915086601f830112611a1a57600080fd5b813581811115611a2c57611a2c611959565b611a3e601f8201601f19168501611999565b91508082528784828501011115611a5457600080fd5b80848401858401376000848284010152508093505050509250929050565b600080600060608486031215611a8757600080fd5b8335611a9281611855565b9250602084013591506040840135611aa981611855565b809150509250925092565b60008060408385031215611ac757600080fd5b50508035926020909101359150565b6020808252825182820181905260009190848201906040850190845b81811015611b175783516001600160a01b031683529284019291840191600101611af2565b50909695505050505050565b600060208284031215611b3557600080fd5b5035919050565b600181811c90821680611b5057607f821691505b602082108103611b7057634e487b7160e01b600052602260045260246000fd5b50919050565b6020808252600e908201526d1c1c9bda9958dd081b1bd8dad95960921b604082015260600190565b80518015158114611bae57600080fd5b919050565b600060208284031215611bc557600080fd5b6113ac82611b9e565b6020808252601590820152743737ba10309031b7b6b6bab734ba3c9030b236b4b760591b604082015260600190565b634e487b7160e01b600052601160045260246000fd5b8082018082111561157757611577611bfd565b600060208284031215611c3857600080fd5b5051919050565b8181038181111561157757611577611bfd565b6001600160a01b03929092168252602082015260400190565b60208082526010908201526f1c1c9bda9958dd081d5b9b1bd8dad95960821b604082015260600190565b828152604060208201526000611cae60408301846118a3565b949350505050565b8051611bae81611855565b60006101208284031215611cd457600080fd5b611cdc61196f565b611ce583611cb6565b8152611cf360208401611cb6565b6020820152611d0460408401611cb6565b6040820152611d1560608401611cb6565b6060820152611d2660808401611cb6565b608082015260a083015160a082015260c083015160c082015260e083015160e0820152610100611d57818501611b9e565b908201529392505050565b6020808252600c908201526b2737ba1030902b32b73237b960a11b604082015260600190565b6020808252601290820152716e6f7420656e6f7567682062616c616e636560701b604082015260600190565b634e487b7160e01b600052603260045260246000fd5b600060018201611ddc57611ddc611bfd565b5060010190565b6020808252600b908201526a3737ba1030903237b737b960a91b604082015260600190565b808202811582820484141761157757611577611bfd565b634e487b7160e01b600052603160045260246000fdfea2646970667358221220f031f04a9c001a72ca01ee40d561ee73f1fa89de9c539caa0a45093b9182857664736f6c63430008110033",
  "linkReferences": {},
  "deployedLinkReferences": {}
}