{
  "_format": "hh-sol-artifact-1",
  "contractName": "CVAProject",
  "sourceName": "src/contracts/projects/CVAProject.sol",
  "abi": [
    {
      "inputs": [
        {
          "internalType": "string",
          "name": "_name",
          "type": "string"
        },
        {
          "internalType": "address",
          "name": "_defaultToken",
          "type": "address"
        },
        {
          "internalType": "address",
          "name": "_rahatClaim",
          "type": "address"
        },
        {
          "internalType": "address",
          "name": "_otpServerAddress",
          "type": "address"
        },
        {
          "internalType": "address",
          "name": "_community",
          "type": "address"
        }
      ],
      "stateMutability": "nonpayable",
      "type": "constructor"
    },
    {
      "anonymous": false,
      "inputs": [
        {
          "indexed": true,
          "internalType": "address",
          "name": "",
          "type": "address"
        }
      ],
      "name": "BeneficiaryAdded",
      "type": "event"
    },
    {
      "anonymous": false,
      "inputs": [
        {
          "indexed": true,
          "internalType": "address",
          "name": "",
          "type": "address"
        }
      ],
      "name": "BeneficiaryRemoved",
      "type": "event"
    },
    {
      "anonymous": false,
      "inputs": [
        {
          "indexed": true,
          "internalType": "address",
          "name": "beneficiary",
          "type": "address"
        },
        {
          "indexed": false,
          "internalType": "uint256",
          "name": "amount",
          "type": "uint256"
        }
      ],
      "name": "ClaimAssigned",
      "type": "event"
    },
    {
      "anonymous": false,
      "inputs": [
        {
          "indexed": true,
          "internalType": "address",
          "name": "",
          "type": "address"
        }
      ],
      "name": "OtpServerUpdated",
      "type": "event"
    },
    {
      "anonymous": false,
      "inputs": [],
      "name": "ProjectLocked",
      "type": "event"
    },
    {
      "anonymous": false,
      "inputs": [],
      "name": "ProjectUnlocked",
      "type": "event"
    },
    {
      "anonymous": false,
      "inputs": [
        {
          "indexed": true,
          "internalType": "address",
          "name": "tokenAddress",
          "type": "address"
        },
        {
          "indexed": false,
          "internalType": "uint256",
          "name": "amount",
          "type": "uint256"
        }
      ],
      "name": "TokenBudgetDecrease",
      "type": "event"
    },
    {
      "anonymous": false,
      "inputs": [
        {
          "indexed": true,
          "internalType": "address",
          "name": "tokenAddress",
          "type": "address"
        },
        {
          "indexed": false,
          "internalType": "uint256",
          "name": "amount",
          "type": "uint256"
        }
      ],
      "name": "TokenBudgetIncrease",
      "type": "event"
    },
    {
      "anonymous": false,
      "inputs": [
        {
          "indexed": true,
          "internalType": "address",
          "name": "token",
          "type": "address"
        },
        {
          "indexed": true,
          "internalType": "address",
          "name": "from",
          "type": "address"
        },
        {
          "indexed": false,
          "internalType": "uint256",
          "name": "amount",
          "type": "uint256"
        }
      ],
      "name": "TokenReceived",
      "type": "event"
    },
    {
      "anonymous": false,
      "inputs": [
        {
          "indexed": true,
          "internalType": "address",
          "name": "tokenAddress",
          "type": "address"
        }
      ],
      "name": "TokenRegistered",
      "type": "event"
    },
    {
      "anonymous": false,
      "inputs": [
        {
          "indexed": true,
          "internalType": "address",
          "name": "token",
          "type": "address"
        },
        {
          "indexed": true,
          "internalType": "address",
          "name": "to",
          "type": "address"
        },
        {
          "indexed": false,
          "internalType": "uint256",
          "name": "amount",
          "type": "uint256"
        }
      ],
      "name": "TokenTransfer",
      "type": "event"
    },
    {
      "anonymous": false,
      "inputs": [
        {
          "indexed": true,
          "internalType": "address",
          "name": "vendor",
          "type": "address"
        },
        {
          "indexed": false,
          "internalType": "uint256",
          "name": "amount",
          "type": "uint256"
        }
      ],
      "name": "VendorAllowance",
      "type": "event"
    },
    {
      "anonymous": false,
      "inputs": [
        {
          "indexed": true,
          "internalType": "address",
          "name": "vendor",
          "type": "address"
        },
        {
          "indexed": false,
          "internalType": "uint256",
          "name": "amount",
          "type": "uint256"
        }
      ],
      "name": "VendorAllowanceAccept",
      "type": "event"
    },
    {
      "inputs": [],
      "name": "IID_RAHAT_PROJECT",
      "outputs": [
        {
          "internalType": "bytes4",
          "name": "",
          "type": "bytes4"
        }
      ],
      "stateMutability": "view",
      "type": "function"
    },
    {
      "inputs": [],
      "name": "RahatClaim",
      "outputs": [
        {
          "internalType": "contract IRahatClaim",
          "name": "",
          "type": "address"
        }
      ],
      "stateMutability": "view",
      "type": "function"
    },
    {
      "inputs": [],
      "name": "RahatCommunity",
      "outputs": [
        {
          "internalType": "contract IRahatCommunity",
          "name": "",
          "type": "address"
        }
      ],
      "stateMutability": "view",
      "type": "function"
    },
    {
      "inputs": [
        {
          "internalType": "uint256",
          "name": "_amount",
          "type": "uint256"
        }
      ],
      "name": "acceptAllowanceByVendor",
      "outputs": [],
      "stateMutability": "nonpayable",
      "type": "function"
    },
    {
      "inputs": [
        {
          "internalType": "address",
          "name": "_from",
          "type": "address"
        },
        {
          "internalType": "uint256",
          "name": "_amount",
          "type": "uint256"
        }
      ],
      "name": "acceptToken",
      "outputs": [],
      "stateMutability": "nonpayable",
      "type": "function"
    },
    {
      "inputs": [
        {
          "internalType": "address",
          "name": "_address",
          "type": "address"
        }
      ],
      "name": "addBeneficiary",
      "outputs": [],
      "stateMutability": "nonpayable",
      "type": "function"
    },
    {
      "inputs": [
        {
          "internalType": "address",
          "name": "_address",
          "type": "address"
        },
        {
          "internalType": "uint256",
          "name": "_claimAmount",
          "type": "uint256"
        }
      ],
      "name": "assignClaims",
      "outputs": [],
      "stateMutability": "nonpayable",
      "type": "function"
    },
    {
      "inputs": [
        {
          "internalType": "address",
          "name": "",
          "type": "address"
        }
      ],
      "name": "beneficiaryClaims",
      "outputs": [
        {
          "internalType": "uint256",
          "name": "",
          "type": "uint256"
        }
      ],
      "stateMutability": "view",
      "type": "function"
    },
    {
      "inputs": [],
      "name": "beneficiaryCount",
      "outputs": [
        {
          "internalType": "uint256",
          "name": "",
          "type": "uint256"
        }
      ],
      "stateMutability": "view",
      "type": "function"
    },
    {
      "inputs": [],
      "name": "community",
      "outputs": [
        {
          "internalType": "address",
          "name": "",
          "type": "address"
        }
      ],
      "stateMutability": "view",
      "type": "function"
    },
    {
      "inputs": [
        {
          "internalType": "address",
          "name": "_address",
          "type": "address"
        },
        {
          "internalType": "uint256",
          "name": "_amount",
          "type": "uint256"
        }
      ],
      "name": "createAllowanceToVendor",
      "outputs": [],
      "stateMutability": "nonpayable",
      "type": "function"
    },
    {
      "inputs": [],
      "name": "defaultToken",
      "outputs": [
        {
          "internalType": "address",
          "name": "",
          "type": "address"
        }
      ],
      "stateMutability": "view",
      "type": "function"
    },
    {
      "inputs": [
        {
          "internalType": "address",
          "name": "_address",
          "type": "address"
        }
      ],
      "name": "isBeneficiary",
      "outputs": [
        {
          "internalType": "bool",
          "name": "",
          "type": "bool"
        }
      ],
      "stateMutability": "view",
      "type": "function"
    },
    {
      "inputs": [
        {
          "internalType": "address",
          "name": "",
          "type": "address"
        }
      ],
      "name": "isDonor",
      "outputs": [
        {
          "internalType": "bool",
          "name": "",
          "type": "bool"
        }
      ],
      "stateMutability": "view",
      "type": "function"
    },
    {
      "inputs": [],
      "name": "isLocked",
      "outputs": [
        {
          "internalType": "bool",
          "name": "",
          "type": "bool"
        }
      ],
      "stateMutability": "view",
      "type": "function"
    },
    {
      "inputs": [],
      "name": "lockProject",
      "outputs": [],
      "stateMutability": "nonpayable",
      "type": "function"
    },
    {
      "inputs": [
        {
          "internalType": "bytes[]",
          "name": "data",
          "type": "bytes[]"
        }
      ],
      "name": "multicall",
      "outputs": [
        {
          "internalType": "bytes[]",
          "name": "results",
          "type": "bytes[]"
        }
      ],
      "stateMutability": "nonpayable",
      "type": "function"
    },
    {
      "inputs": [],
      "name": "name",
      "outputs": [
        {
          "internalType": "string",
          "name": "",
          "type": "string"
        }
      ],
      "stateMutability": "view",
      "type": "function"
    },
    {
      "inputs": [],
      "name": "otpServerAddress",
      "outputs": [
        {
          "internalType": "address",
          "name": "",
          "type": "address"
        }
      ],
      "stateMutability": "view",
      "type": "function"
    },
    {
      "inputs": [
        {
          "internalType": "address",
          "name": "_benAddress",
          "type": "address"
        },
        {
          "internalType": "string",
          "name": "_otp",
          "type": "string"
        }
      ],
      "name": "processTokenRequest",
      "outputs": [],
      "stateMutability": "nonpayable",
      "type": "function"
    },
    {
      "inputs": [
        {
          "internalType": "address",
          "name": "_address",
          "type": "address"
        }
      ],
      "name": "removeBeneficiary",
      "outputs": [],
      "stateMutability": "nonpayable",
      "type": "function"
    },
    {
      "inputs": [
        {
          "internalType": "address",
          "name": "_benAddress",
          "type": "address"
        },
        {
          "internalType": "uint256",
          "name": "_amount",
          "type": "uint256"
        },
        {
          "internalType": "address",
          "name": "_otpServerAddress",
          "type": "address"
        }
      ],
      "name": "requestTokenFromBeneficiary",
      "outputs": [
        {
          "internalType": "uint256",
          "name": "requestId",
          "type": "uint256"
        }
      ],
      "stateMutability": "nonpayable",
      "type": "function"
    },
    {
      "inputs": [
        {
          "internalType": "address",
          "name": "_benAddress",
          "type": "address"
        },
        {
          "internalType": "uint256",
          "name": "_amount",
          "type": "uint256"
        }
      ],
      "name": "requestTokenFromBeneficiary",
      "outputs": [
        {
          "internalType": "uint256",
          "name": "requestId",
          "type": "uint256"
        }
      ],
      "stateMutability": "nonpayable",
      "type": "function"
    },
    {
      "inputs": [
        {
          "internalType": "bytes4",
          "name": "interfaceId",
          "type": "bytes4"
        }
      ],
      "name": "supportsInterface",
      "outputs": [
        {
          "internalType": "bool",
          "name": "",
          "type": "bool"
        }
      ],
      "stateMutability": "view",
      "type": "function"
    },
    {
      "inputs": [
        {
          "internalType": "address",
          "name": "_tokenAddress",
          "type": "address"
        }
      ],
      "name": "tokenBudget",
      "outputs": [
        {
          "internalType": "uint256",
          "name": "",
          "type": "uint256"
        }
      ],
      "stateMutability": "view",
      "type": "function"
    },
    {
      "inputs": [
        {
          "internalType": "address",
          "name": "",
          "type": "address"
        },
        {
          "internalType": "address",
          "name": "",
          "type": "address"
        }
      ],
      "name": "tokenRequestIds",
      "outputs": [
        {
          "internalType": "uint256",
          "name": "",
          "type": "uint256"
        }
      ],
      "stateMutability": "view",
      "type": "function"
    },
    {
      "inputs": [],
      "name": "totalClaimsAssgined",
      "outputs": [
        {
          "internalType": "uint256",
          "name": "_totalClaims",
          "type": "uint256"
        }
      ],
      "stateMutability": "view",
      "type": "function"
    },
    {
      "inputs": [],
      "name": "totalVendorAllocation",
      "outputs": [
        {
          "internalType": "uint256",
          "name": "",
          "type": "uint256"
        }
      ],
      "stateMutability": "view",
      "type": "function"
    },
    {
      "inputs": [],
      "name": "unlockProject",
      "outputs": [],
      "stateMutability": "nonpayable",
      "type": "function"
    },
    {
      "inputs": [
        {
          "internalType": "address",
          "name": "_address",
          "type": "address"
        }
      ],
      "name": "updateOtpServer",
      "outputs": [],
      "stateMutability": "nonpayable",
      "type": "function"
    },
    {
      "inputs": [
        {
          "internalType": "address",
          "name": "",
          "type": "address"
        }
      ],
      "name": "vendorAllowance",
      "outputs": [
        {
          "internalType": "uint256",
          "name": "",
          "type": "uint256"
        }
      ],
      "stateMutability": "view",
      "type": "function"
    },
    {
      "inputs": [
        {
          "internalType": "address",
          "name": "",
          "type": "address"
        }
      ],
      "name": "vendorAllowancePending",
      "outputs": [
        {
          "internalType": "uint256",
          "name": "",
          "type": "uint256"
        }
      ],
      "stateMutability": "view",
      "type": "function"
    },
    {
      "inputs": [
        {
          "internalType": "address",
          "name": "_token",
          "type": "address"
        }
      ],
      "name": "withdrawToken",
      "outputs": [],
      "stateMutability": "nonpayable",
      "type": "function"
    }
  ],
  "bytecode": "0x60806040523480156200001157600080fd5b5060405162002a2838038062002a28833981016040819052620000349162000131565b84816003620000448382620002e0565b5060048054610100600160a81b0319166101006001600160a01b03938416810291909117808355600780546001600160a01b03199081168b8716179091556008805482168a87161790556009805490911688861617905560405163521a58d360e11b8152309381019390935204909116915063a434b1a690602401600060405180830381600087803b158015620000da57600080fd5b505af1158015620000ef573d6000803e3d6000fd5b505050505050505050620003ac565b634e487b7160e01b600052604160045260246000fd5b80516001600160a01b03811681146200012c57600080fd5b919050565b600080600080600060a086880312156200014a57600080fd5b85516001600160401b03808211156200016257600080fd5b818801915088601f8301126200017757600080fd5b8151818111156200018c576200018c620000fe565b604051601f8201601f19908116603f01168101908382118183101715620001b757620001b7620000fe565b81604052828152602093508b84848701011115620001d457600080fd5b600091505b82821015620001f85784820184015181830185015290830190620001d9565b60008484830101528099505050506200021381890162000114565b95505050620002256040870162000114565b9250620002356060870162000114565b9150620002456080870162000114565b90509295509295909350565b600181811c908216806200026657607f821691505b6020821081036200028757634e487b7160e01b600052602260045260246000fd5b50919050565b601f821115620002db57600081815260208120601f850160051c81016020861015620002b65750805b601f850160051c820191505b81811015620002d757828155600101620002c2565b5050505b505050565b81516001600160401b03811115620002fc57620002fc620000fe565b62000314816200030d845462000251565b846200028d565b602080601f8311600181146200034c5760008415620003335750858301515b600019600386901b1c1916600185901b178555620002d7565b600085815260208120601f198616915b828110156200037d578886015182559484019460019091019084016200035c565b50858210156200039c5787850151600019600388901b60f8161c191681555b5050505050600190811b01905550565b61266c80620003bc6000396000f3fe608060405234801561001057600080fd5b50600436106101ba5760003560e01c806372a6c9b7116100fa57806398815c7f1161009d57806398815c7f146103fa5780639d19b22614610402578063a4e2d63414610415578063ac9650d814610422578063dc1fb5a514610442578063e6ea615d14610458578063e730c8fb1461046b578063e9ecec5e1461048b578063eb681e621461049e57600080fd5b806372a6c9b71461035d578063734b2a7c1461037057806374c13fda146103785780637b3657531461038b578063800fff3e1461039e57806382209e08146103be57806389476069146103de5780638b17888c146103f157600080fd5b80634a8d07e0116101625780634a8d07e0146102ad5780634fe21571146102c057806351b32234146102e65780635926651d146102f957806359633a1c1461030c5780635bc4a4511461031f57806364c20dc1146103325780636a4277f41461034557600080fd5b8062d008c6146101bf57806301ffc9a7146101fd57806306fdde03146102305780631483f9171461024557806314e6d3d41461025a5780632adc6f35146102625780632bc3d7aa146102825780633eb6c893146102a5575b600080fd5b6101ea6101cd366004611f4b565b600f60209081526000928352604080842090915290825290205481565b6040519081526020015b60405180910390f35b61022061020b366004611f84565b6001600160e01b03191662f718eb60e81b1490565b60405190151581526020016101f4565b6102386104b1565b6040516101f49190611ffe565b610258610253366004612011565b61053f565b005b610258610632565b600954610275906001600160a01b031681565b6040516101f4919061203d565b610220610290366004612051565b600a6020526000908152604090205460ff1681565b6101ea6106df565b6102586102bb3660046120dd565b61073f565b6102cd62f718eb60e81b81565b6040516001600160e01b031990911681526020016101f4565b6102586102f4366004612184565b61094b565b610258610307366004612051565b610b1f565b61025861031a366004612051565b610bde565b6101ea61032d36600461219d565b610ca5565b610258610340366004612011565b610e85565b6004546102759061010090046001600160a01b031681565b61025861036b366004612011565b610f4b565b6101ea61113e565b600754610275906001600160a01b031681565b600854610275906001600160a01b031681565b6101ea6103ac366004612051565b600b6020526000908152604090205481565b6101ea6103cc366004612051565b600e6020526000908152604090205481565b6102586103ec366004612051565b61114f565b6101ea600c5481565b61025861127d565b610220610410366004612051565b6112d6565b6004546102209060ff1681565b6104356104303660046121df565b6112e9565b6040516101f49190612253565b60045461010090046001600160a01b0316610275565b610258610466366004612051565b6113dd565b6101ea610479366004612051565b600d6020526000908152604090205481565b6101ea610499366004612011565b6114b7565b6101ea6104ac366004612051565b6114fc565b600380546104be906122b5565b80601f01602080910402602001604051908101604052809291908181526020018280546104ea906122b5565b80156105375780601f1061050c57610100808354040283529160200191610537565b820191906000526020600020905b81548152906001019060200180831161051a57829003601f168201915b505050505081565b60045460ff161561056b5760405162461bcd60e51b8152600401610562906122ef565b60405180910390fd5b60048054604051630935e01b60e21b81526101009091046001600160a01b0316916324d7806c9161059e9133910161203d565b602060405180830381865afa1580156105bb573d6000803e3d6000fd5b505050506040513d601f19601f820116820180604052508101906105df919061232c565b6105fb5760405162461bcd60e51b815260040161056290612347565b6001600160a01b038083166000908152600a60205260409020805460ff1916600117905560075461062e91168383611517565b5050565b60045460ff16156106555760405162461bcd60e51b8152600401610562906122ef565b336000908152600a602052604090205460ff166106845760405162461bcd60e51b815260040161056290612376565b60075460009061069c906001600160a01b03166114fc565b116106d55760405162461bcd60e51b81526020600482015260096024820152686e6f20746f6b656e7360b81b6044820152606401610562565b6106dd6116a3565b565b6000805b6106ed6005611725565b81101561073b57600b600061070360058461172f565b6001600160a01b0316815260208101919091526040016000205461072790836123b1565b915080610733816123c4565b9150506106e3565b5090565b60045460ff166107615760405162461bcd60e51b8152600401610562906123dd565b600854336000908152600f602090815260408083206001600160a01b0387811685529252808320549051630a5eccd360e01b815292939190911691630a5eccd3916107b0918690600401612407565b610120604051808303816000875af11580156107d0573d6000803e3d6000fd5b505050506040513d601f19601f820116820180604052508101906107f4919061242b565b60a08101516040808301516001600160a01b03166000908152600b602052205491925011156108595760405162461bcd60e51b81526020600482015260116024820152706e6f7420656e6f7567682062616c61636560781b6044820152606401610562565b60a08101516040808301516001600160a01b03166000908152600b602052908120805490919061088a9084906124cc565b909155505060a08101516020808301516001600160a01b03166000908152600d9091526040812080549091906108c19084906124cc565b90915550506080810151602082015160a083015160405163a9059cbb60e01b81526001600160a01b039093169263a9059cbb926109029290916004016124df565b6020604051808303816000875af1158015610921573d6000803e3d6000fd5b505050506040513d601f19601f82011682018060405250810190610945919061232c565b50505050565b60045460ff161561096e5760405162461bcd60e51b8152600401610562906122ef565b60048054604051632474521560e21b81526101009091046001600160a01b0316916391d14854916109c3917f0aaf57387812c7f832412470a57567b5648a930069be49aa9c98d04f88520d34913391016124f8565b602060405180830381865afa1580156109e0573d6000803e3d6000fd5b505050506040513d601f19601f82011682018060405250810190610a04919061232c565b610a205760405162461bcd60e51b81526004016105629061250f565b336000908152600d602052604081208054839290610a3f9084906123b1565b9250508190555080600c6000828254610a5891906123b1565b9091555050336000908152600e602052604081208054839290610a7c9084906124cc565b9091555050600c54600754610a99906001600160a01b03166114fc565b1015610ae75760405162461bcd60e51b815260206004820152601f60248201527f6e6f7420656e6f75676820617661696c61626c6520616c6c6f636174696f6e006044820152606401610562565b60405181815233907fe21656ebf1f319b65531e5dd12fbdd285ed987d36b4d548e7efff32ac48225f49060200160405180910390a250565b60045460ff1615610b425760405162461bcd60e51b8152600401610562906122ef565b60048054604051630935e01b60e21b81526101009091046001600160a01b0316916324d7806c91610b759133910161203d565b602060405180830381865afa158015610b92573d6000803e3d6000fd5b505050506040513d601f19601f82011682018060405250810190610bb6919061232c565b610bd25760405162461bcd60e51b815260040161056290612347565b610bdb8161173b565b50565b60045460ff1615610c015760405162461bcd60e51b8152600401610562906122ef565b60048054604051630935e01b60e21b81526101009091046001600160a01b0316916324d7806c91610c349133910161203d565b602060405180830381865afa158015610c51573d6000803e3d6000fd5b505050506040513d601f19601f82011682018060405250810190610c75919061232c565b610c915760405162461bcd60e51b815260040161056290612347565b610c9a8161183a565b610bdb81600061188a565b60045460009060ff16610cca5760405162461bcd60e51b8152600401610562906123dd565b6009546001600160a01b0316610d175760405162461bcd60e51b815260206004820152601260248201527134b73b30b634b21037ba3816b9b2b93b32b960711b6044820152606401610562565b6001600160a01b0384166000908152600b6020526040902054831115610d4f5760405162461bcd60e51b815260040161056290612535565b336000908152600d6020526040902054831115610dac5760405162461bcd60e51b815260206004820152601b60248201527a6e6f7420656e6f7567682076656e646f7220616c6c6f77616e636560281b6044820152606401610562565b60005460ff16610dc4576000805460ff191660011790555b6008546007546040516323fe50a360e01b81523360048201526001600160a01b03878116602483015285811660448301529182166064820152608481018690529116906323fe50a39060a4016020604051808303816000875af1158015610e2f573d6000803e3d6000fd5b505050506040513d601f19601f82011682018060405250810190610e539190612561565b336000908152600f602090815260408083206001600160a01b0398909816835296905294909420849055509192915050565b60045460ff1615610ea85760405162461bcd60e51b8152600401610562906122ef565b60048054604051630935e01b60e21b81526101009091046001600160a01b0316916324d7806c91610edb9133910161203d565b602060405180830381865afa158015610ef8573d6000803e3d6000fd5b505050506040513d601f19601f82011682018060405250810190610f1c919061232c565b610f385760405162461bcd60e51b815260040161056290612347565b610f418261173b565b61062e828261188a565b60045460ff1615610f6e5760405162461bcd60e51b8152600401610562906122ef565b60048054604051630935e01b60e21b81526101009091046001600160a01b0316916324d7806c91610fa19133910161203d565b602060405180830381865afa158015610fbe573d6000803e3d6000fd5b505050506040513d601f19601f82011682018060405250810190610fe2919061232c565b610ffe5760405162461bcd60e51b815260040161056290612347565b60048054604051632474521560e21b81526101009091046001600160a01b0316916391d1485491611053917f0aaf57387812c7f832412470a57567b5648a930069be49aa9c98d04f88520d34918791016124f8565b602060405180830381865afa158015611070573d6000803e3d6000fd5b505050506040513d601f19601f82011682018060405250810190611094919061232c565b6110b05760405162461bcd60e51b81526004016105629061250f565b60075481906110c7906001600160a01b03166114fc565b10156110e55760405162461bcd60e51b815260040161056290612535565b6001600160a01b0382166000818152600e602052604090819020839055517fd0ed9a3562d0266c8f68cdf4d2290db2f3350102c458d39e7ff0101217b55ee4906111329084815260200190565b60405180910390a25050565b600061114a6005611725565b905090565b60045460ff166111715760405162461bcd60e51b8152600401610562906123dd565b60048054604051630935e01b60e21b81526101009091046001600160a01b0316916324d7806c916111a49133910161203d565b602060405180830381865afa1580156111c1573d6000803e3d6000fd5b505050506040513d601f19601f820116820180604052508101906111e5919061232c565b6112015760405162461bcd60e51b815260040161056290612347565b6040516370a0823160e01b81526000906001600160a01b038316906370a082319061123090309060040161203d565b602060405180830381865afa15801561124d573d6000803e3d6000fd5b505050506040513d601f19601f820116820180604052508101906112719190612561565b905061062e828261199d565b60045460ff1661129f5760405162461bcd60e51b8152600401610562906123dd565b336000908152600a602052604090205460ff166112ce5760405162461bcd60e51b815260040161056290612376565b6106dd611a79565b60006112e3600583611af6565b92915050565b6060816001600160401b038111156113035761130361206e565b60405190808252806020026020018201604052801561133657816020015b60608152602001906001900390816113215790505b50905060005b828110156113d6576113a63085858481811061135a5761135a61257a565b905060200281019061136c9190612590565b8080601f016020809104026020016040519081016040528093929190818152602001838380828437600092019190915250611b1892505050565b8282815181106113b8576113b861257a565b602002602001018190525080806113ce906123c4565b91505061133c565b5092915050565b60048054604051630935e01b60e21b81526101009091046001600160a01b0316916324d7806c916114109133910161203d565b602060405180830381865afa15801561142d573d6000803e3d6000fd5b505050506040513d601f19601f82011682018060405250810190611451919061232c565b61146d5760405162461bcd60e51b815260040161056290612347565b600980546001600160a01b0319166001600160a01b0383169081179091556040517f98f76a4e8c95145ebb341a2d4f0f5a023ae301dd6ac3518036bc41e3215daf8690600090a250565b60045460009060ff166114dc5760405162461bcd60e51b8152600401610562906123dd565b6009546114f590849084906001600160a01b0316610ca5565b9392505050565b6001600160a01b031660009081526001602052604090205490565b6004805460405162b9028160e31b81526101009091046001600160a01b0316916305c81408916115499130910161203d565b602060405180830381865afa158015611566573d6000803e3d6000fd5b505050506040513d601f19601f8201168201806040525081019061158a919061232c565b6115cd5760405162461bcd60e51b81526020600482015260146024820152731c1c9bda9958dd081b9bdd08185c1c1c9bdd995960621b6044820152606401610562565b6040516323b872dd60e01b81526001600160a01b038381166004830152306024830152604482018390528416906323b872dd906064016020604051808303816000875af1158015611622573d6000803e3d6000fd5b505050506040513d601f19601f82011682018060405250810190611646919061232c565b506116518382611b3d565b816001600160a01b0316836001600160a01b03167fa83965f0e7c5e026e57c9ba2dd91e4ebcca352f2d514498c1e9ed23ba65386008360405161169691815260200190565b60405180910390a3505050565b60006116af6005611725565b116116ed5760405162461bcd60e51b815260206004820152600e60248201526d6e6f2062656e656669636961727960901b6044820152606401610562565b6004805460ff191660011790556040517f577e17a39a43caa4acb3286f2673f89149046ea0d90bd834ed63306abb69f4b290600090a1565b60006112e3825490565b60006114f58383611c15565b60048054604051634e8cd91360e11b81526101009091046001600160a01b031691639d19b2269161176e9185910161203d565b602060405180830381865afa15801561178b573d6000803e3d6000fd5b505050506040513d601f19601f820116820180604052508101906117af919061232c565b6117eb5760405162461bcd60e51b815260206004820152600d60248201526c3737ba103b30b634b2103132b760991b6044820152606401610562565b6117f6600582611af6565b61182f576040516001600160a01b038216907fc3e089fc6227e049d0e41c3d7a383d57efe69c1955c5752f7e5a9b5f1f11302090600090a25b61062e600582611c3f565b611845600582611af6565b1561187f576040516001600160a01b038216907f72977dad29432f655f11c2f0e72ef5124bb9ade7a512fb7a43a9f504df22342890600090a25b61062e600582611c54565b806118936106df565b61189d91906123b1565b6007546040516370a0823160e01b81526001600160a01b03909116906370a08231906118cd90309060040161203d565b602060405180830381865afa1580156118ea573d6000803e3d6000fd5b505050506040513d601f19601f8201168201806040525081019061190e9190612561565b10156119505760405162461bcd60e51b81526020600482015260116024820152706e6f7420656e6f75676820746f6b656e7360781b6044820152606401610562565b6001600160a01b0382166000818152600b602052604090819020839055517f4631d14d4c16b9460d34e65ad5f88348611250f573857337076bcb9634d685bb906111329084815260200190565b6004805460405163a9059cbb60e01b81526001600160a01b038086169363a9059cbb936119d693610100909104909216918691016124df565b6020604051808303816000875af11580156119f5573d6000803e3d6000fd5b505050506040513d601f19601f82011682018060405250810190611a19919061232c565b50611a248282611c69565b6004546040516001600160a01b036101009092048216918416907fd0ed88a3f042c6bbb1e3ea406079b5f2b4b198afccaa535d837f4c63abbc4de690611a6d9085815260200190565b60405180910390a35050565b60005460ff1615611ac15760405162461bcd60e51b81526020600482015260126024820152716c6f636b6564207065726d616e656e746c7960701b6044820152606401610562565b6004805460ff191690556040517fe167080736827330cdcb07e06bd8a4e63a3c36e0eedd704d96f9739b6b62ea2c90600090a1565b6001600160a01b038116600090815260018301602052604081205415156114f5565b60606114f5838360405180606001604052806027815260200161261060279139611cd1565b6001600160a01b03821660009081526001602052604081208054839290611b659084906123b1565b90915550506040518181526001600160a01b038316907fe49f42d07d8046279c22af872fe6bc5678c4dfc38ace0f43b8e8d5a03d0e8f109060200160405180910390a26001600160a01b03821660009081526002602052604090205460ff1661062e576001600160a01b038216600081815260026020526040808220805460ff19166001179055517f158412daecdc1456d01568828bcdb18464cc7f1ce0215ddbc3f3cfede9d1e63d9190a25050565b6000826000018281548110611c2c57611c2c61257a565b9060005260206000200154905092915050565b60006114f5836001600160a01b038416611d49565b60006114f5836001600160a01b038416611d98565b6001600160a01b03821660009081526001602052604081208054839290611c919084906124cc565b90915550506040518181526001600160a01b038316907f854a0a098d6cafcdbf8cc91b503d29e40e31095273eec189216a6ed881543eb490602001611132565b6060600080856001600160a01b031685604051611cee91906125dd565b600060405180830381855af49150503d8060008114611d29576040519150601f19603f3d011682016040523d82523d6000602084013e611d2e565b606091505b5091509150611d3f86838387611e8b565b9695505050505050565b6000818152600183016020526040812054611d90575081546001818101845560008481526020808220909301849055845484825282860190935260409020919091556112e3565b5060006112e3565b60008181526001830160205260408120548015611e81576000611dbc6001836124cc565b8554909150600090611dd0906001906124cc565b9050818114611e35576000866000018281548110611df057611df061257a565b9060005260206000200154905080876000018481548110611e1357611e1361257a565b6000918252602080832090910192909255918252600188019052604090208390555b8554869080611e4657611e466125f9565b6001900381819060005260206000200160009055905585600101600086815260200190815260200160002060009055600193505050506112e3565b60009150506112e3565b60608315611efa578251600003611ef3576001600160a01b0385163b611ef35760405162461bcd60e51b815260206004820152601d60248201527f416464726573733a2063616c6c20746f206e6f6e2d636f6e74726163740000006044820152606401610562565b5081611f04565b611f048383611f0c565b949350505050565b815115611f1c5781518083602001fd5b8060405162461bcd60e51b81526004016105629190611ffe565b6001600160a01b0381168114610bdb57600080fd5b60008060408385031215611f5e57600080fd5b8235611f6981611f36565b91506020830135611f7981611f36565b809150509250929050565b600060208284031215611f9657600080fd5b81356001600160e01b0319811681146114f557600080fd5b60005b83811015611fc9578181015183820152602001611fb1565b50506000910152565b60008151808452611fea816020860160208601611fae565b601f01601f19169290920160200192915050565b6020815260006114f56020830184611fd2565b6000806040838503121561202457600080fd5b823561202f81611f36565b946020939093013593505050565b6001600160a01b0391909116815260200190565b60006020828403121561206357600080fd5b81356114f581611f36565b634e487b7160e01b600052604160045260246000fd5b60405161012081016001600160401b03811182821017156120a7576120a761206e565b60405290565b604051601f8201601f191681016001600160401b03811182821017156120d5576120d561206e565b604052919050565b600080604083850312156120f057600080fd5b82356120fb81611f36565b91506020838101356001600160401b038082111561211857600080fd5b818601915086601f83011261212c57600080fd5b81358181111561213e5761213e61206e565b612150601f8201601f191685016120ad565b9150808252878482850101111561216657600080fd5b80848401858401376000848284010152508093505050509250929050565b60006020828403121561219657600080fd5b5035919050565b6000806000606084860312156121b257600080fd5b83356121bd81611f36565b92506020840135915060408401356121d481611f36565b809150509250925092565b600080602083850312156121f257600080fd5b82356001600160401b038082111561220957600080fd5b818501915085601f83011261221d57600080fd5b81358181111561222c57600080fd5b8660208260051b850101111561224157600080fd5b60209290920196919550909350505050565b6000602080830181845280855180835260408601915060408160051b870101925083870160005b828110156122a857603f19888603018452612296858351611fd2565b9450928501929085019060010161227a565b5092979650505050505050565b600181811c908216806122c957607f821691505b6020821081036122e957634e487b7160e01b600052602260045260246000fd5b50919050565b6020808252600e908201526d1c1c9bda9958dd081b1bd8dad95960921b604082015260600190565b8051801515811461232757600080fd5b919050565b60006020828403121561233e57600080fd5b6114f582612317565b6020808252601590820152743737ba10309031b7b6b6bab734ba3c9030b236b4b760591b604082015260600190565b6020808252600b908201526a3737ba1030903237b737b960a91b604082015260600190565b634e487b7160e01b600052601160045260246000fd5b808201808211156112e3576112e361239b565b6000600182016123d6576123d661239b565b5060010190565b60208082526010908201526f1c1c9bda9958dd081d5b9b1bd8dad95960821b604082015260600190565b828152604060208201526000611f046040830184611fd2565b805161232781611f36565b6000610120828403121561243e57600080fd5b612446612084565b61244f83612420565b815261245d60208401612420565b602082015261246e60408401612420565b604082015261247f60608401612420565b606082015261249060808401612420565b608082015260a083015160a082015260c083015160c082015260e083015160e08201526101006124c1818501612317565b908201529392505050565b818103818111156112e3576112e361239b565b6001600160a01b03929092168252602082015260400190565b9182526001600160a01b0316602082015260400190565b6020808252600c908201526b2737ba1030902b32b73237b960a11b604082015260600190565b6020808252601290820152716e6f7420656e6f7567682062616c616e636560701b604082015260600190565b60006020828403121561257357600080fd5b5051919050565b634e487b7160e01b600052603260045260246000fd5b6000808335601e198436030181126125a757600080fd5b8301803591506001600160401b038211156125c157600080fd5b6020019150368190038213156125d657600080fd5b9250929050565b600082516125ef818460208701611fae565b9190910192915050565b634e487b7160e01b600052603160045260246000fdfe416464726573733a206c6f772d6c6576656c2064656c65676174652063616c6c206661696c6564a2646970667358221220569f4dd1c8bb82afac57d7aea2de8d925a1f2f6c7f9a9d8017d906bfbedc273364736f6c63430008110033",
  "linkReferences": {},
  "deployedLinkReferences": {}
}