{
  "_format": "hh-sol-artifact-1",
  "contractName": "CVAProject",
  "sourceName": "src/contracts/projects/CVAProject.sol",
  "abi": [
    {
      "inputs": [
        {
          "internalType": "string",
          "name": "_name",
          "type": "string"
        },
        {
          "internalType": "address",
          "name": "_defaultToken",
          "type": "address"
        },
        {
          "internalType": "address",
          "name": "_rahatClaim",
          "type": "address"
        },
        {
          "internalType": "address",
          "name": "_otpServerAddress",
          "type": "address"
        },
        {
          "internalType": "address",
          "name": "_community",
          "type": "address"
        }
      ],
      "stateMutability": "nonpayable",
      "type": "constructor"
    },
    {
      "anonymous": false,
      "inputs": [
        {
          "indexed": true,
          "internalType": "address",
          "name": "",
          "type": "address"
        }
      ],
      "name": "BeneficiaryAdded",
      "type": "event"
    },
    {
      "anonymous": false,
      "inputs": [
        {
          "indexed": true,
          "internalType": "address",
          "name": "",
          "type": "address"
        }
      ],
      "name": "BeneficiaryRemoved",
      "type": "event"
    },
    {
      "anonymous": false,
      "inputs": [
        {
          "indexed": true,
          "internalType": "address",
          "name": "beneficiary",
          "type": "address"
        },
        {
          "indexed": false,
          "internalType": "int256",
          "name": "amount",
          "type": "int256"
        }
      ],
      "name": "ClaimAdjusted",
      "type": "event"
    },
    {
      "anonymous": false,
      "inputs": [
        {
          "indexed": true,
          "internalType": "address",
          "name": "beneficiary",
          "type": "address"
        },
        {
          "indexed": false,
          "internalType": "uint256",
          "name": "amount",
          "type": "uint256"
        }
      ],
      "name": "ClaimAssigned",
      "type": "event"
    },
    {
      "anonymous": false,
      "inputs": [
        {
          "indexed": true,
          "internalType": "address",
          "name": "",
          "type": "address"
        }
      ],
      "name": "OtpServerUpdated",
      "type": "event"
    },
    {
      "anonymous": false,
      "inputs": [],
      "name": "ProjectLocked",
      "type": "event"
    },
    {
      "anonymous": false,
      "inputs": [],
      "name": "ProjectUnlocked",
      "type": "event"
    },
    {
      "anonymous": false,
      "inputs": [
        {
          "indexed": true,
          "internalType": "address",
          "name": "tokenAddress",
          "type": "address"
        },
        {
          "indexed": false,
          "internalType": "uint256",
          "name": "amount",
          "type": "uint256"
        }
      ],
      "name": "TokenBudgetDecrease",
      "type": "event"
    },
    {
      "anonymous": false,
      "inputs": [
        {
          "indexed": true,
          "internalType": "address",
          "name": "tokenAddress",
          "type": "address"
        },
        {
          "indexed": false,
          "internalType": "uint256",
          "name": "amount",
          "type": "uint256"
        }
      ],
      "name": "TokenBudgetIncrease",
      "type": "event"
    },
    {
      "anonymous": false,
      "inputs": [
        {
          "indexed": true,
          "internalType": "address",
          "name": "token",
          "type": "address"
        },
        {
          "indexed": true,
          "internalType": "address",
          "name": "from",
          "type": "address"
        },
        {
          "indexed": false,
          "internalType": "uint256",
          "name": "amount",
          "type": "uint256"
        }
      ],
      "name": "TokenReceived",
      "type": "event"
    },
    {
      "anonymous": false,
      "inputs": [
        {
          "indexed": true,
          "internalType": "address",
          "name": "tokenAddress",
          "type": "address"
        }
      ],
      "name": "TokenRegistered",
      "type": "event"
    },
    {
      "anonymous": false,
      "inputs": [
        {
          "indexed": true,
          "internalType": "address",
          "name": "token",
          "type": "address"
        },
        {
          "indexed": true,
          "internalType": "address",
          "name": "to",
          "type": "address"
        },
        {
          "indexed": false,
          "internalType": "uint256",
          "name": "amount",
          "type": "uint256"
        }
      ],
      "name": "TokenTransfer",
      "type": "event"
    },
    {
      "anonymous": false,
      "inputs": [
        {
          "indexed": true,
          "internalType": "address",
          "name": "vendor",
          "type": "address"
        },
        {
          "indexed": false,
          "internalType": "uint256",
          "name": "amount",
          "type": "uint256"
        }
      ],
      "name": "VendorAllowance",
      "type": "event"
    },
    {
      "anonymous": false,
      "inputs": [
        {
          "indexed": true,
          "internalType": "address",
          "name": "vendor",
          "type": "address"
        },
        {
          "indexed": false,
          "internalType": "uint256",
          "name": "amount",
          "type": "uint256"
        }
      ],
      "name": "VendorAllowanceAccept",
      "type": "event"
    },
    {
      "inputs": [],
      "name": "IID_RAHAT_PROJECT",
      "outputs": [
        {
          "internalType": "bytes4",
          "name": "",
          "type": "bytes4"
        }
      ],
      "stateMutability": "view",
      "type": "function"
    },
    {
      "inputs": [],
      "name": "RahatClaim",
      "outputs": [
        {
          "internalType": "contract IRahatClaim",
          "name": "",
          "type": "address"
        }
      ],
      "stateMutability": "view",
      "type": "function"
    },
    {
      "inputs": [],
      "name": "RahatCommunity",
      "outputs": [
        {
          "internalType": "contract IRahatCommunity",
          "name": "",
          "type": "address"
        }
      ],
      "stateMutability": "view",
      "type": "function"
    },
    {
      "inputs": [
        {
          "internalType": "uint256",
          "name": "_amount",
          "type": "uint256"
        }
      ],
      "name": "acceptAllowanceByVendor",
      "outputs": [],
      "stateMutability": "nonpayable",
      "type": "function"
    },
    {
      "inputs": [
        {
          "internalType": "address",
          "name": "_from",
          "type": "address"
        },
        {
          "internalType": "uint256",
          "name": "_amount",
          "type": "uint256"
        }
      ],
      "name": "acceptToken",
      "outputs": [],
      "stateMutability": "nonpayable",
      "type": "function"
    },
    {
      "inputs": [
        {
          "internalType": "address",
          "name": "_address",
          "type": "address"
        }
      ],
      "name": "addBeneficiary",
      "outputs": [],
      "stateMutability": "nonpayable",
      "type": "function"
    },
    {
      "inputs": [
        {
          "internalType": "address",
          "name": "_address",
          "type": "address"
        },
        {
          "internalType": "uint256",
          "name": "_claimAmount",
          "type": "uint256"
        }
      ],
      "name": "assignClaims",
      "outputs": [],
      "stateMutability": "nonpayable",
      "type": "function"
    },
    {
      "inputs": [
        {
          "internalType": "address",
          "name": "",
          "type": "address"
        }
      ],
      "name": "beneficiaryClaims",
      "outputs": [
        {
          "internalType": "uint256",
          "name": "",
          "type": "uint256"
        }
      ],
      "stateMutability": "view",
      "type": "function"
    },
    {
      "inputs": [],
      "name": "beneficiaryCount",
      "outputs": [
        {
          "internalType": "uint256",
          "name": "",
          "type": "uint256"
        }
      ],
      "stateMutability": "view",
      "type": "function"
    },
    {
      "inputs": [],
      "name": "community",
      "outputs": [
        {
          "internalType": "address",
          "name": "",
          "type": "address"
        }
      ],
      "stateMutability": "view",
      "type": "function"
    },
    {
      "inputs": [
        {
          "internalType": "address",
          "name": "_address",
          "type": "address"
        },
        {
          "internalType": "uint256",
          "name": "_amount",
          "type": "uint256"
        }
      ],
      "name": "createAllowanceToVendor",
      "outputs": [],
      "stateMutability": "nonpayable",
      "type": "function"
    },
    {
      "inputs": [],
      "name": "defaultToken",
      "outputs": [
        {
          "internalType": "address",
          "name": "",
          "type": "address"
        }
      ],
      "stateMutability": "view",
      "type": "function"
    },
    {
      "inputs": [
        {
          "internalType": "address",
          "name": "_address",
          "type": "address"
        }
      ],
      "name": "isBeneficiary",
      "outputs": [
        {
          "internalType": "bool",
          "name": "",
          "type": "bool"
        }
      ],
      "stateMutability": "view",
      "type": "function"
    },
    {
      "inputs": [
        {
          "internalType": "address",
          "name": "",
          "type": "address"
        }
      ],
      "name": "isDonor",
      "outputs": [
        {
          "internalType": "bool",
          "name": "",
          "type": "bool"
        }
      ],
      "stateMutability": "view",
      "type": "function"
    },
    {
      "inputs": [],
      "name": "isLocked",
      "outputs": [
        {
          "internalType": "bool",
          "name": "",
          "type": "bool"
        }
      ],
      "stateMutability": "view",
      "type": "function"
    },
    {
      "inputs": [],
      "name": "lockProject",
      "outputs": [],
      "stateMutability": "nonpayable",
      "type": "function"
    },
    {
      "inputs": [],
      "name": "lockProjectPermanently",
      "outputs": [],
      "stateMutability": "nonpayable",
      "type": "function"
    },
    {
      "inputs": [
        {
          "internalType": "bytes[]",
          "name": "data",
          "type": "bytes[]"
        }
      ],
      "name": "multicall",
      "outputs": [
        {
          "internalType": "bytes[]",
          "name": "results",
          "type": "bytes[]"
        }
      ],
      "stateMutability": "nonpayable",
      "type": "function"
    },
    {
      "inputs": [],
      "name": "name",
      "outputs": [
        {
          "internalType": "string",
          "name": "",
          "type": "string"
        }
      ],
      "stateMutability": "view",
      "type": "function"
    },
    {
      "inputs": [],
      "name": "otpServerAddress",
      "outputs": [
        {
          "internalType": "address",
          "name": "",
          "type": "address"
        }
      ],
      "stateMutability": "view",
      "type": "function"
    },
    {
      "inputs": [
        {
          "internalType": "address",
          "name": "_benAddress",
          "type": "address"
        },
        {
          "internalType": "string",
          "name": "_otp",
          "type": "string"
        }
      ],
      "name": "processTokenRequest",
      "outputs": [],
      "stateMutability": "nonpayable",
      "type": "function"
    },
    {
      "inputs": [
        {
          "internalType": "address",
          "name": "_address",
          "type": "address"
        }
      ],
      "name": "removeBeneficiary",
      "outputs": [],
      "stateMutability": "nonpayable",
      "type": "function"
    },
    {
      "inputs": [
        {
          "internalType": "address",
          "name": "_benAddress",
          "type": "address"
        },
        {
          "internalType": "uint256",
          "name": "_amount",
          "type": "uint256"
        },
        {
          "internalType": "address",
          "name": "_otpServerAddress",
          "type": "address"
        }
      ],
      "name": "requestTokenFromBeneficiary",
      "outputs": [
        {
          "internalType": "uint256",
          "name": "requestId",
          "type": "uint256"
        }
      ],
      "stateMutability": "nonpayable",
      "type": "function"
    },
    {
      "inputs": [
        {
          "internalType": "address",
          "name": "_benAddress",
          "type": "address"
        },
        {
          "internalType": "uint256",
          "name": "_amount",
          "type": "uint256"
        }
      ],
      "name": "requestTokenFromBeneficiary",
      "outputs": [
        {
          "internalType": "uint256",
          "name": "requestId",
          "type": "uint256"
        }
      ],
      "stateMutability": "nonpayable",
      "type": "function"
    },
    {
      "inputs": [
        {
          "internalType": "address",
          "name": "_benAddress",
          "type": "address"
        },
        {
          "internalType": "address",
          "name": "_vendorAddress",
          "type": "address"
        },
        {
          "internalType": "uint256",
          "name": "_amount",
          "type": "uint256"
        }
      ],
      "name": "sendBeneficiaryTokenToVendor",
      "outputs": [],
      "stateMutability": "nonpayable",
      "type": "function"
    },
    {
      "inputs": [
        {
          "internalType": "bytes4",
          "name": "interfaceId",
          "type": "bytes4"
        }
      ],
      "name": "supportsInterface",
      "outputs": [
        {
          "internalType": "bool",
          "name": "",
          "type": "bool"
        }
      ],
      "stateMutability": "view",
      "type": "function"
    },
    {
      "inputs": [
        {
          "internalType": "address",
          "name": "_tokenAddress",
          "type": "address"
        }
      ],
      "name": "tokenBudget",
      "outputs": [
        {
          "internalType": "uint256",
          "name": "",
          "type": "uint256"
        }
      ],
      "stateMutability": "view",
      "type": "function"
    },
    {
      "inputs": [
        {
          "internalType": "address",
          "name": "",
          "type": "address"
        },
        {
          "internalType": "address",
          "name": "",
          "type": "address"
        }
      ],
      "name": "tokenRequestIds",
      "outputs": [
        {
          "internalType": "uint256",
          "name": "",
          "type": "uint256"
        }
      ],
      "stateMutability": "view",
      "type": "function"
    },
    {
      "inputs": [],
      "name": "totalClaimsAssgined",
      "outputs": [
        {
          "internalType": "uint256",
          "name": "_totalClaims",
          "type": "uint256"
        }
      ],
      "stateMutability": "view",
      "type": "function"
    },
    {
      "inputs": [],
      "name": "totalVendorAllocation",
      "outputs": [
        {
          "internalType": "uint256",
          "name": "",
          "type": "uint256"
        }
      ],
      "stateMutability": "view",
      "type": "function"
    },
    {
      "inputs": [],
      "name": "unlockProject",
      "outputs": [],
      "stateMutability": "nonpayable",
      "type": "function"
    },
    {
      "inputs": [
        {
          "internalType": "address",
          "name": "_address",
          "type": "address"
        }
      ],
      "name": "updateOtpServer",
      "outputs": [],
      "stateMutability": "nonpayable",
      "type": "function"
    },
    {
      "inputs": [
        {
          "internalType": "address",
          "name": "",
          "type": "address"
        }
      ],
      "name": "vendorAllowance",
      "outputs": [
        {
          "internalType": "uint256",
          "name": "",
          "type": "uint256"
        }
      ],
      "stateMutability": "view",
      "type": "function"
    },
    {
      "inputs": [
        {
          "internalType": "address",
          "name": "",
          "type": "address"
        }
      ],
      "name": "vendorAllowancePending",
      "outputs": [
        {
          "internalType": "uint256",
          "name": "",
          "type": "uint256"
        }
      ],
      "stateMutability": "view",
      "type": "function"
    },
    {
      "inputs": [
        {
          "internalType": "address",
          "name": "_token",
          "type": "address"
        }
      ],
      "name": "withdrawToken",
      "outputs": [],
      "stateMutability": "nonpayable",
      "type": "function"
    }
  ],
  "bytecode": "0x60806040523480156200001157600080fd5b5060405162002d9738038062002d97833981016040819052620000349162000131565b84816003620000448382620002e0565b5060048054610100600160a81b0319166101006001600160a01b03938416810291909117808355600780546001600160a01b03199081168b8716179091556008805482168a87161790556009805490911688861617905560405163521a58d360e11b8152309381019390935204909116915063a434b1a690602401600060405180830381600087803b158015620000da57600080fd5b505af1158015620000ef573d6000803e3d6000fd5b505050505050505050620003ac565b634e487b7160e01b600052604160045260246000fd5b80516001600160a01b03811681146200012c57600080fd5b919050565b600080600080600060a086880312156200014a57600080fd5b85516001600160401b03808211156200016257600080fd5b818801915088601f8301126200017757600080fd5b8151818111156200018c576200018c620000fe565b604051601f8201601f19908116603f01168101908382118183101715620001b757620001b7620000fe565b81604052828152602093508b84848701011115620001d457600080fd5b600091505b82821015620001f85784820184015181830185015290830190620001d9565b60008484830101528099505050506200021381890162000114565b95505050620002256040870162000114565b9250620002356060870162000114565b9150620002456080870162000114565b90509295509295909350565b600181811c908216806200026657607f821691505b6020821081036200028757634e487b7160e01b600052602260045260246000fd5b50919050565b601f821115620002db57600081815260208120601f850160051c81016020861015620002b65750805b601f850160051c820191505b81811015620002d757828155600101620002c2565b5050505b505050565b81516001600160401b03811115620002fc57620002fc620000fe565b62000314816200030d845462000251565b846200028d565b602080601f8311600181146200034c5760008415620003335750858301515b600019600386901b1c1916600185901b178555620002d7565b600085815260208120601f198616915b828110156200037d578886015182559484019460019091019084016200035c565b50858210156200039c5787850151600019600388901b60f8161c191681555b5050505050600190811b01905550565b6129db80620003bc6000396000f3fe608060405234801561001057600080fd5b50600436106102105760003560e01c806372a6c9b7116101255780639d19b226116100ad578063dc1fb5a51161007c578063dc1fb5a5146104be578063e6ea615d146104d4578063e730c8fb146104e7578063e9ecec5e14610507578063eb681e621461051a57600080fd5b80639d19b2261461046b578063a4e2d6341461047e578063ac9650d81461048b578063d45871a6146104ab57600080fd5b8063800fff3e116100f4578063800fff3e1461040757806382209e081461042757806389476069146104475780638b17888c1461045a57806398815c7f1461046357600080fd5b806372a6c9b7146103c6578063734b2a7c146103d957806374c13fda146103e15780637b365753146103f457600080fd5b80633eb6c893116101a85780635926651d116101775780635926651d1461036257806359633a1c146103755780635bc4a4511461038857806364c20dc11461039b5780636a4277f4146103ae57600080fd5b80633eb6c8931461030e5780634a8d07e0146103165780634fe215711461032957806351b322341461034f57600080fd5b806314e6d3d4116101e457806314e6d3d4146102b05780632adc6f35146102b85780632bc3d7aa146102e35780633cf991ae1461030657600080fd5b8062d008c61461021557806301ffc9a71461025357806306fdde03146102865780631483f9171461029b575b600080fd5b61024061022336600461230a565b600f60209081526000928352604080842090915290825290205481565b6040519081526020015b60405180910390f35b610276610261366004612343565b6001600160e01b03191662f718eb60e81b1490565b604051901515815260200161024a565b61028e610543565b60405161024a91906123bd565b6102ae6102a93660046123d0565b6105d1565b005b6102ae6106c2565b6009546102cb906001600160a01b031681565b6040516001600160a01b03909116815260200161024a565b6102766102f13660046123fc565b600a6020526000908152604090205460ff1681565b6102ae610772565b610240610837565b6102ae61032436600461248a565b610897565b61033662f718eb60e81b81565b6040516001600160e01b0319909116815260200161024a565b6102ae61035d366004612532565b61096f565b6102ae6103703660046123fc565b610b6a565b6102ae6103833660046123fc565b610c27565b61024061039636600461254b565b610cec565b6102ae6103a93660046123d0565b610edb565b6004546102cb9061010090046001600160a01b031681565b6102ae6103d43660046123d0565b610f9f565b6102406111de565b6007546102cb906001600160a01b031681565b6008546102cb906001600160a01b031681565b6102406104153660046123fc565b600b6020526000908152604090205481565b6102406104353660046123fc565b600e6020526000908152604090205481565b6102ae6104553660046123fc565b6111ef565b610240600c5481565b6102ae611316565b6102766104793660046123fc565b61136f565b6004546102769060ff1681565b61049e61049936600461258d565b611382565b60405161024a9190612602565b6102ae6104b9366004612664565b611477565b60045461010090046001600160a01b03166102cb565b6102ae6104e23660046123fc565b6114fc565b6102406104f53660046123fc565b600d6020526000908152604090205481565b6102406105153660046123d0565b6116be565b6102406105283660046123fc565b6001600160a01b031660009081526001602052604090205490565b60038054610550906126a5565b80601f016020809104026020016040519081016040528092919081815260200182805461057c906126a5565b80156105c95780601f1061059e576101008083540402835291602001916105c9565b820191906000526020600020905b8154815290600101906020018083116105ac57829003601f168201915b505050505081565b60045460ff16156105fd5760405162461bcd60e51b81526004016105f4906126df565b60405180910390fd5b60048054604051630935e01b60e21b8152339281019290925261010090046001600160a01b0316906324d7806c90602401602060405180830381865afa15801561064b573d6000803e3d6000fd5b505050506040513d601f19601f8201168201806040525081019061066f919061271c565b61068b5760405162461bcd60e51b81526004016105f490612737565b6001600160a01b038083166000908152600a60205260409020805460ff191660011790556007546106be91168383611703565b5050565b60045460ff16156106e55760405162461bcd60e51b81526004016105f4906126df565b336000908152600a602052604090205460ff166107145760405162461bcd60e51b81526004016105f490612766565b6007546001600160a01b0316600090815260016020526040812054116107685760405162461bcd60e51b81526020600482015260096024820152686e6f20746f6b656e7360b81b60448201526064016105f4565b61077061188d565b565b60045460ff16156107955760405162461bcd60e51b81526004016105f4906126df565b336000908152600a602052604090205460ff166107c45760405162461bcd60e51b81526004016105f490612766565b6007546001600160a01b0316600090815260016020526040812054116108185760405162461bcd60e51b81526020600482015260096024820152686e6f20746f6b656e7360b81b60448201526064016105f4565b60005460ff16610768576000805460ff1916600117905561077061188d565b6000805b610845600561190f565b81101561089357600b600061085b600584611919565b6001600160a01b0316815260208101919091526040016000205461087f90836127a1565b91508061088b816127b4565b91505061083b565b5090565b60045460ff166108b95760405162461bcd60e51b81526004016105f4906127cd565b600854336000908152600f602090815260408083206001600160a01b0387811685529252808320549051630a5eccd360e01b815292939190911691630a5eccd3916109089186906004016127f7565b610120604051808303816000875af1158015610928573d6000803e3d6000fd5b505050506040513d601f19601f8201168201806040525081019061094c919061281b565b905061096a8160800151826040015183602001518460a00151611925565b505050565b60045460ff16156109925760405162461bcd60e51b81526004016105f4906126df565b60048054604051632474521560e21b81527f0aaf57387812c7f832412470a57567b5648a930069be49aa9c98d04f88520d349281019290925233602483015261010090046001600160a01b0316906391d1485490604401602060405180830381865afa158015610a06573d6000803e3d6000fd5b505050506040513d601f19601f82011682018060405250810190610a2a919061271c565b610a655760405162461bcd60e51b815260206004820152600c60248201526b2737ba1030902b32b73237b960a11b60448201526064016105f4565b336000908152600d602052604081208054839290610a849084906127a1565b9250508190555080600c6000828254610a9d91906127a1565b9091555050336000908152600e602052604081208054839290610ac19084906128bc565b9091555050600c546007546001600160a01b03166000908152600160205260409020541015610b325760405162461bcd60e51b815260206004820152601f60248201527f6e6f7420656e6f75676820617661696c61626c6520616c6c6f636174696f6e0060448201526064016105f4565b60405181815233907fe21656ebf1f319b65531e5dd12fbdd285ed987d36b4d548e7efff32ac48225f49060200160405180910390a250565b60045460ff1615610b8d5760405162461bcd60e51b81526004016105f4906126df565b60048054604051630935e01b60e21b8152339281019290925261010090046001600160a01b0316906324d7806c90602401602060405180830381865afa158015610bdb573d6000803e3d6000fd5b505050506040513d601f19601f82011682018060405250810190610bff919061271c565b610c1b5760405162461bcd60e51b81526004016105f490612737565b610c2481611a92565b50565b60045460ff1615610c4a5760405162461bcd60e51b81526004016105f4906126df565b60048054604051630935e01b60e21b8152339281019290925261010090046001600160a01b0316906324d7806c90602401602060405180830381865afa158015610c98573d6000803e3d6000fd5b505050506040513d601f19601f82011682018060405250810190610cbc919061271c565b610cd85760405162461bcd60e51b81526004016105f490612737565b610ce181611b94565b610c24816000611be4565b60045460009060ff16610d115760405162461bcd60e51b81526004016105f4906127cd565b6009546001600160a01b0316610d5e5760405162461bcd60e51b815260206004820152601260248201527134b73b30b634b21037ba3816b9b2b93b32b960711b60448201526064016105f4565b6001600160a01b0384166000908152600b6020526040902054831115610dbb5760405162461bcd60e51b81526020600482015260126024820152716e6f7420656e6f7567682062616c616e636560701b60448201526064016105f4565b336000908152600d6020526040902054831115610e1a5760405162461bcd60e51b815260206004820152601b60248201527f6e6f7420656e6f7567682076656e646f7220616c6c6f77616e6365000000000060448201526064016105f4565b6008546007546040516323fe50a360e01b81523360048201526001600160a01b03878116602483015285811660448301529182166064820152608481018690529116906323fe50a39060a4016020604051808303816000875af1158015610e85573d6000803e3d6000fd5b505050506040513d601f19601f82011682018060405250810190610ea991906128cf565b336000908152600f602090815260408083206001600160a01b0398909816835296905294909420849055509192915050565b60045460ff1615610efe5760405162461bcd60e51b81526004016105f4906126df565b60048054604051630935e01b60e21b8152339281019290925261010090046001600160a01b0316906324d7806c90602401602060405180830381865afa158015610f4c573d6000803e3d6000fd5b505050506040513d601f19601f82011682018060405250810190610f70919061271c565b610f8c5760405162461bcd60e51b81526004016105f490612737565b610f9582611a92565b6106be8282611be4565b60045460ff1615610fc25760405162461bcd60e51b81526004016105f4906126df565b60048054604051630935e01b60e21b8152339281019290925261010090046001600160a01b0316906324d7806c90602401602060405180830381865afa158015611010573d6000803e3d6000fd5b505050506040513d601f19601f82011682018060405250810190611034919061271c565b6110505760405162461bcd60e51b81526004016105f490612737565b60048054604051632474521560e21b81527f0aaf57387812c7f832412470a57567b5648a930069be49aa9c98d04f88520d34928101929092526001600160a01b03848116602484015261010090910416906391d1485490604401602060405180830381865afa1580156110c7573d6000803e3d6000fd5b505050506040513d601f19601f820116820180604052508101906110eb919061271c565b6111265760405162461bcd60e51b815260206004820152600c60248201526b2737ba1030902b32b73237b960a11b60448201526064016105f4565b6007546001600160a01b03166000908152600160205260409020548111156111855760405162461bcd60e51b81526020600482015260126024820152716e6f7420656e6f7567682062616c616e636560701b60448201526064016105f4565b6001600160a01b0382166000818152600e602052604090819020839055517fd0ed9a3562d0266c8f68cdf4d2290db2f3350102c458d39e7ff0101217b55ee4906111d29084815260200190565b60405180910390a25050565b60006111ea600561190f565b905090565b60045460ff166112115760405162461bcd60e51b81526004016105f4906127cd565b60048054604051630935e01b60e21b8152339281019290925261010090046001600160a01b0316906324d7806c90602401602060405180830381865afa15801561125f573d6000803e3d6000fd5b505050506040513d601f19601f82011682018060405250810190611283919061271c565b61129f5760405162461bcd60e51b81526004016105f490612737565b6040516370a0823160e01b81523060048201526000906001600160a01b038316906370a0823190602401602060405180830381865afa1580156112e6573d6000803e3d6000fd5b505050506040513d601f19601f8201168201806040525081019061130a91906128cf565b90506106be8282611d5a565b60045460ff166113385760405162461bcd60e51b81526004016105f4906127cd565b336000908152600a602052604090205460ff166113675760405162461bcd60e51b81526004016105f490612766565b610770611e38565b600061137c600583611eb5565b92915050565b60608167ffffffffffffffff81111561139d5761139d612419565b6040519080825280602002602001820160405280156113d057816020015b60608152602001906001900390816113bb5790505b50905060005b8281101561147057611440308585848181106113f4576113f46128e8565b905060200281019061140691906128fe565b8080601f016020809104026020016040519081016040528093929190818152602001838380828437600092019190915250611ed792505050565b828281518110611452576114526128e8565b60200260200101819052508080611468906127b4565b9150506113d6565b5092915050565b60045460ff166114995760405162461bcd60e51b81526004016105f4906127cd565b600954336001600160a01b03909116036114e45760405162461bcd60e51b815260206004820152600c60248201526b1d5b985d5d1a1bdc9a5e995960a21b60448201526064016105f4565b60075461096a906001600160a01b0316848484611925565b60048054604051630935e01b60e21b8152339281019290925261010090046001600160a01b0316906324d7806c90602401602060405180830381865afa15801561154a573d6000803e3d6000fd5b505050506040513d601f19601f8201168201806040525081019061156e919061271c565b61158a5760405162461bcd60e51b81526004016105f490612737565b6001600160a01b0381166115d25760405162461bcd60e51b815260206004820152600f60248201526e696e76616c6964206164647265737360881b60448201526064016105f4565b306001600160a01b0382160361162a5760405162461bcd60e51b815260206004820152601a60248201527f63616e6e6f7420626520636f6e7472616374206164647265737300000000000060448201526064016105f4565b6009546001600160a01b03908116908216036116745760405162461bcd60e51b81526020600482015260096024820152686e6f206368616e676560b81b60448201526064016105f4565b600980546001600160a01b0319166001600160a01b0383169081179091556040517f98f76a4e8c95145ebb341a2d4f0f5a023ae301dd6ac3518036bc41e3215daf8690600090a250565b60045460009060ff166116e35760405162461bcd60e51b81526004016105f4906127cd565b6009546116fc90849084906001600160a01b0316610cec565b9392505050565b6004805460405162b9028160e31b8152309281019290925261010090046001600160a01b0316906305c8140890602401602060405180830381865afa158015611750573d6000803e3d6000fd5b505050506040513d601f19601f82011682018060405250810190611774919061271c565b6117b75760405162461bcd60e51b81526020600482015260146024820152731c1c9bda9958dd081b9bdd08185c1c1c9bdd995960621b60448201526064016105f4565b6040516323b872dd60e01b81526001600160a01b038381166004830152306024830152604482018390528416906323b872dd906064016020604051808303816000875af115801561180c573d6000803e3d6000fd5b505050506040513d601f19601f82011682018060405250810190611830919061271c565b5061183b8382611efc565b816001600160a01b0316836001600160a01b03167fa83965f0e7c5e026e57c9ba2dd91e4ebcca352f2d514498c1e9ed23ba65386008360405161188091815260200190565b60405180910390a3505050565b6000611899600561190f565b116118d75760405162461bcd60e51b815260206004820152600e60248201526d6e6f2062656e656669636961727960901b60448201526064016105f4565b6004805460ff191660011790556040517f577e17a39a43caa4acb3286f2673f89149046ea0d90bd834ed63306abb69f4b290600090a1565b600061137c825490565b60006116fc8383611fd4565b6001600160a01b0383166000908152600b60205260409020548111156119815760405162461bcd60e51b81526020600482015260116024820152706e6f7420656e6f7567682062616c61636560781b60448201526064016105f4565b6001600160a01b0383166000908152600b6020526040812080548392906119a99084906128bc565b90915550506001600160a01b0382166000908152600d6020526040812080548392906119d69084906128bc565b909155505060405163a9059cbb60e01b81526001600160a01b0383811660048301526024820183905285169063a9059cbb906044016020604051808303816000875af1158015611a2a573d6000803e3d6000fd5b505050506040513d601f19601f82011682018060405250810190611a4e919061271c565b611a8c5760405162461bcd60e51b815260206004820152600f60248201526e1d1c985b9cd9995c8819985a5b1959608a1b60448201526064016105f4565b50505050565b60048054604051634e8cd91360e11b81526001600160a01b038481169382019390935261010090910490911690639d19b22690602401602060405180830381865afa158015611ae5573d6000803e3d6000fd5b505050506040513d601f19601f82011682018060405250810190611b09919061271c565b611b455760405162461bcd60e51b815260206004820152600d60248201526c3737ba103b30b634b2103132b760991b60448201526064016105f4565b611b50600582611eb5565b611b89576040516001600160a01b038216907fc3e089fc6227e049d0e41c3d7a383d57efe69c1955c5752f7e5a9b5f1f11302090600090a25b6106be600582611ffe565b611b9f600582611eb5565b15611bd9576040516001600160a01b038216907f72977dad29432f655f11c2f0e72ef5124bb9ade7a512fb7a43a9f504df22342890600090a25b6106be600582612013565b80611bed610837565b611bf791906127a1565b6007546040516370a0823160e01b81523060048201526001600160a01b03909116906370a0823190602401602060405180830381865afa158015611c3f573d6000803e3d6000fd5b505050506040513d601f19601f82011682018060405250810190611c6391906128cf565b1015611ca55760405162461bcd60e51b81526020600482015260116024820152706e6f7420656e6f75676820746f6b656e7360781b60448201526064016105f4565b6001600160a01b0382166000818152600b602090815260409182902080549085905591518481529192917f4631d14d4c16b9460d34e65ad5f88348611250f573857337076bcb9634d685bb910160405180910390a26000611d0682846128bc565b90508015611a8c576001600160a01b0384167f637d043db1bebc50c6963e49f55ac40fbec77eb544a8df2c4aaa4b9ee1ceb4e9611d4384866128bc565b60405190815260200160405180910390a250505050565b6004805460405163a9059cbb60e01b81526001600160a01b036101009092048216928101929092526024820183905283169063a9059cbb906044016020604051808303816000875af1158015611db4573d6000803e3d6000fd5b505050506040513d601f19601f82011682018060405250810190611dd8919061271c565b50611de38282612028565b6004546040516001600160a01b036101009092048216918416907fd0ed88a3f042c6bbb1e3ea406079b5f2b4b198afccaa535d837f4c63abbc4de690611e2c9085815260200190565b60405180910390a35050565b60005460ff1615611e805760405162461bcd60e51b81526020600482015260126024820152716c6f636b6564207065726d616e656e746c7960701b60448201526064016105f4565b6004805460ff191690556040517fe167080736827330cdcb07e06bd8a4e63a3c36e0eedd704d96f9739b6b62ea2c90600090a1565b6001600160a01b038116600090815260018301602052604081205415156116fc565b60606116fc838360405180606001604052806027815260200161297f60279139612090565b6001600160a01b03821660009081526001602052604081208054839290611f249084906127a1565b90915550506040518181526001600160a01b038316907fe49f42d07d8046279c22af872fe6bc5678c4dfc38ace0f43b8e8d5a03d0e8f109060200160405180910390a26001600160a01b03821660009081526002602052604090205460ff166106be576001600160a01b038216600081815260026020526040808220805460ff19166001179055517f158412daecdc1456d01568828bcdb18464cc7f1ce0215ddbc3f3cfede9d1e63d9190a25050565b6000826000018281548110611feb57611feb6128e8565b9060005260206000200154905092915050565b60006116fc836001600160a01b038416612108565b60006116fc836001600160a01b038416612157565b6001600160a01b038216600090815260016020526040812080548392906120509084906128bc565b90915550506040518181526001600160a01b038316907f854a0a098d6cafcdbf8cc91b503d29e40e31095273eec189216a6ed881543eb4906020016111d2565b6060600080856001600160a01b0316856040516120ad919061294c565b600060405180830381855af49150503d80600081146120e8576040519150601f19603f3d011682016040523d82523d6000602084013e6120ed565b606091505b50915091506120fe8683838761224a565b9695505050505050565b600081815260018301602052604081205461214f5750815460018181018455600084815260208082209093018490558454848252828601909352604090209190915561137c565b50600061137c565b6000818152600183016020526040812054801561224057600061217b6001836128bc565b855490915060009061218f906001906128bc565b90508181146121f45760008660000182815481106121af576121af6128e8565b90600052602060002001549050808760000184815481106121d2576121d26128e8565b6000918252602080832090910192909255918252600188019052604090208390555b855486908061220557612205612968565b60019003818190600052602060002001600090559055856001016000868152602001908152602001600020600090556001935050505061137c565b600091505061137c565b606083156122b95782516000036122b2576001600160a01b0385163b6122b25760405162461bcd60e51b815260206004820152601d60248201527f416464726573733a2063616c6c20746f206e6f6e2d636f6e747261637400000060448201526064016105f4565b50816122c3565b6122c383836122cb565b949350505050565b8151156122db5781518083602001fd5b8060405162461bcd60e51b81526004016105f491906123bd565b6001600160a01b0381168114610c2457600080fd5b6000806040838503121561231d57600080fd5b8235612328816122f5565b91506020830135612338816122f5565b809150509250929050565b60006020828403121561235557600080fd5b81356001600160e01b0319811681146116fc57600080fd5b60005b83811015612388578181015183820152602001612370565b50506000910152565b600081518084526123a981602086016020860161236d565b601f01601f19169290920160200192915050565b6020815260006116fc6020830184612391565b600080604083850312156123e357600080fd5b82356123ee816122f5565b946020939093013593505050565b60006020828403121561240e57600080fd5b81356116fc816122f5565b634e487b7160e01b600052604160045260246000fd5b604051610120810167ffffffffffffffff8111828210171561245357612453612419565b60405290565b604051601f8201601f1916810167ffffffffffffffff8111828210171561248257612482612419565b604052919050565b6000806040838503121561249d57600080fd5b82356124a8816122f5565b915060208381013567ffffffffffffffff808211156124c657600080fd5b818601915086601f8301126124da57600080fd5b8135818111156124ec576124ec612419565b6124fe601f8201601f19168501612459565b9150808252878482850101111561251457600080fd5b80848401858401376000848284010152508093505050509250929050565b60006020828403121561254457600080fd5b5035919050565b60008060006060848603121561256057600080fd5b833561256b816122f5565b9250602084013591506040840135612582816122f5565b809150509250925092565b600080602083850312156125a057600080fd5b823567ffffffffffffffff808211156125b857600080fd5b818501915085601f8301126125cc57600080fd5b8135818111156125db57600080fd5b8660208260051b85010111156125f057600080fd5b60209290920196919550909350505050565b6000602080830181845280855180835260408601915060408160051b870101925083870160005b8281101561265757603f19888603018452612645858351612391565b94509285019290850190600101612629565b5092979650505050505050565b60008060006060848603121561267957600080fd5b8335612684816122f5565b92506020840135612694816122f5565b929592945050506040919091013590565b600181811c908216806126b957607f821691505b6020821081036126d957634e487b7160e01b600052602260045260246000fd5b50919050565b6020808252600e908201526d1c1c9bda9958dd081b1bd8dad95960921b604082015260600190565b8051801515811461271757600080fd5b919050565b60006020828403121561272e57600080fd5b6116fc82612707565b6020808252601590820152743737ba10309031b7b6b6bab734ba3c9030b236b4b760591b604082015260600190565b6020808252600b908201526a3737ba1030903237b737b960a91b604082015260600190565b634e487b7160e01b600052601160045260246000fd5b8082018082111561137c5761137c61278b565b6000600182016127c6576127c661278b565b5060010190565b60208082526010908201526f1c1c9bda9958dd081d5b9b1bd8dad95960821b604082015260600190565b8281526040602082015260006122c36040830184612391565b8051612717816122f5565b6000610120828403121561282e57600080fd5b61283661242f565b61283f83612810565b815261284d60208401612810565b602082015261285e60408401612810565b604082015261286f60608401612810565b606082015261288060808401612810565b608082015260a083015160a082015260c083015160c082015260e083015160e08201526101006128b1818501612707565b908201529392505050565b8181038181111561137c5761137c61278b565b6000602082840312156128e157600080fd5b5051919050565b634e487b7160e01b600052603260045260246000fd5b6000808335601e1984360301811261291557600080fd5b83018035915067ffffffffffffffff82111561293057600080fd5b60200191503681900382131561294557600080fd5b9250929050565b6000825161295e81846020870161236d565b9190910192915050565b634e487b7160e01b600052603160045260246000fdfe416464726573733a206c6f772d6c6576656c2064656c65676174652063616c6c206661696c6564a26469706673582212206a63e5c6e5e66bd22b8b4f1512e173fef6391fdf15e4304b9b4e991c85d2f97f64736f6c63430008110033",
  "linkReferences": {},
  "deployedLinkReferences": {}
}