{
  "_format": "hh-sol-artifact-1",
  "contractName": "RahatClaim",
  "sourceName": "src/contracts/RahatClaim.sol",
  "abi": [
    {
      "anonymous": false,
      "inputs": [
        {
          "indexed": true,
          "internalType": "uint256",
          "name": "claimId",
          "type": "uint256"
        },
        {
          "indexed": true,
          "internalType": "address",
          "name": "claimer",
          "type": "address"
        },
        {
          "indexed": true,
          "internalType": "address",
          "name": "claimee",
          "type": "address"
        },
        {
          "indexed": false,
          "internalType": "address",
          "name": "token",
          "type": "address"
        },
        {
          "indexed": false,
          "internalType": "uint256",
          "name": "amount",
          "type": "uint256"
        }
      ],
      "name": "ClaimCreated",
      "type": "event"
    },
    {
      "anonymous": false,
      "inputs": [
        {
          "indexed": true,
          "internalType": "uint256",
          "name": "claimId",
          "type": "uint256"
        }
      ],
      "name": "ClaimProcessed",
      "type": "event"
    },
    {
      "anonymous": false,
      "inputs": [
        {
          "indexed": true,
          "internalType": "uint256",
          "name": "claimId",
          "type": "uint256"
        }
      ],
      "name": "OtpAddedToClaim",
      "type": "event"
    },
    {
      "inputs": [
        {
          "internalType": "uint256",
          "name": "_claimId",
          "type": "uint256"
        },
        {
          "internalType": "bytes32",
          "name": "_otpHash",
          "type": "bytes32"
        },
        {
          "internalType": "uint256",
          "name": "_expiryDate",
          "type": "uint256"
        }
      ],
      "name": "addOtpToClaim",
      "outputs": [],
      "stateMutability": "nonpayable",
      "type": "function"
    },
    {
      "inputs": [],
      "name": "claimCount",
      "outputs": [
        {
          "internalType": "uint256",
          "name": "",
          "type": "uint256"
        }
      ],
      "stateMutability": "view",
      "type": "function"
    },
    {
      "inputs": [
        {
          "internalType": "uint256",
          "name": "",
          "type": "uint256"
        }
      ],
      "name": "claims",
      "outputs": [
        {
          "internalType": "address",
          "name": "ownerAddress",
          "type": "address"
        },
        {
          "internalType": "address",
          "name": "claimerAddress",
          "type": "address"
        },
        {
          "internalType": "address",
          "name": "claimeeAddress",
          "type": "address"
        },
        {
          "internalType": "address",
          "name": "otpServerAddress",
          "type": "address"
        },
        {
          "internalType": "address",
          "name": "tokenAddress",
          "type": "address"
        },
        {
          "internalType": "uint256",
          "name": "amount",
          "type": "uint256"
        },
        {
          "internalType": "uint256",
          "name": "expiryDate",
          "type": "uint256"
        },
        {
          "internalType": "bytes32",
          "name": "otpHash",
          "type": "bytes32"
        },
        {
          "internalType": "bool",
          "name": "isProcessed",
          "type": "bool"
        }
      ],
      "stateMutability": "view",
      "type": "function"
    },
    {
      "inputs": [
        {
          "internalType": "address",
          "name": "_claimerAddress",
          "type": "address"
        },
        {
          "internalType": "address",
          "name": "_claimeeAddress",
          "type": "address"
        },
        {
          "internalType": "address",
          "name": "_otpServerAddress",
          "type": "address"
        },
        {
          "internalType": "address",
          "name": "_tokenAddress",
          "type": "address"
        },
        {
          "internalType": "uint256",
          "name": "_amount",
          "type": "uint256"
        }
      ],
      "name": "createClaim",
      "outputs": [
        {
          "internalType": "uint256",
          "name": "claimId",
          "type": "uint256"
        }
      ],
      "stateMutability": "nonpayable",
      "type": "function"
    },
    {
      "inputs": [
        {
          "internalType": "string",
          "name": "_data",
          "type": "string"
        }
      ],
      "name": "findHash",
      "outputs": [
        {
          "internalType": "bytes32",
          "name": "",
          "type": "bytes32"
        }
      ],
      "stateMutability": "pure",
      "type": "function"
    },
    {
      "inputs": [
        {
          "internalType": "bytes[]",
          "name": "data",
          "type": "bytes[]"
        }
      ],
      "name": "multicall",
      "outputs": [
        {
          "internalType": "bytes[]",
          "name": "results",
          "type": "bytes[]"
        }
      ],
      "stateMutability": "nonpayable",
      "type": "function"
    },
    {
      "inputs": [
        {
          "internalType": "uint256",
          "name": "_claimId",
          "type": "uint256"
        },
        {
          "internalType": "string",
          "name": "_otp",
          "type": "string"
        }
      ],
      "name": "processClaim",
      "outputs": [
        {
          "components": [
            {
              "internalType": "address",
              "name": "ownerAddress",
              "type": "address"
            },
            {
              "internalType": "address",
              "name": "claimerAddress",
              "type": "address"
            },
            {
              "internalType": "address",
              "name": "claimeeAddress",
              "type": "address"
            },
            {
              "internalType": "address",
              "name": "otpServerAddress",
              "type": "address"
            },
            {
              "internalType": "address",
              "name": "tokenAddress",
              "type": "address"
            },
            {
              "internalType": "uint256",
              "name": "amount",
              "type": "uint256"
            },
            {
              "internalType": "uint256",
              "name": "expiryDate",
              "type": "uint256"
            },
            {
              "internalType": "bytes32",
              "name": "otpHash",
              "type": "bytes32"
            },
            {
              "internalType": "bool",
              "name": "isProcessed",
              "type": "bool"
            }
          ],
          "internalType": "struct IRahatClaim.Claim",
          "name": "claim_",
          "type": "tuple"
        }
      ],
      "stateMutability": "nonpayable",
      "type": "function"
    }
  ],
  "bytecode": "0x608060405234801561001057600080fd5b50610d83806100206000396000f3fe608060405234801561001057600080fd5b506004361061007d5760003560e01c806370c751071161005b57806370c75107146100e15780638da4d3c9146100f4578063a888c2cd146100fd578063ac9650d8146101c657600080fd5b80630a5eccd31461008257806323fe50a3146100ab57806356844801146100cc575b600080fd5b61009561009036600461098b565b6101e6565b6040516100a291906109d2565b60405180910390f35b6100be6100b9366004610a6f565b61041a565b6040519081526020016100a2565b6100df6100da366004610acb565b610589565b005b6100be6100ef366004610af7565b610674565b6100be60015481565b61016b61010b366004610b2c565b6000602081905290815260409020805460018201546002830154600384015460048501546005860154600687015460078801546008909801546001600160a01b039788169896881697958616969486169590931693919290919060ff1689565b604080516001600160a01b039a8b168152988a1660208a015296891696880196909652938716606087015295909116608085015260a084015260c083019390935260e0820192909252901515610100820152610120016100a2565b6101d96101d4366004610b45565b6106a4565b6040516100a29190610c0a565b6040805161012081018252600080825260208201819052918101829052606081018290526080810182905260a0810182905260c0810182905260e08101829052610100810191909152600083815260208190526040902080546001600160a01b031633146102875760405162461bcd60e51b81526020600482015260096024820152683737ba1037bbb732b960b91b60448201526064015b60405180910390fd5b80600601544211156102c55760405162461bcd60e51b8152602060048201526007602482015266195e1c1a5c995960ca1b604482015260640161027e565b600881015460ff161561030e5760405162461bcd60e51b8152602060048201526011602482015270185b1c9958591e481c1c9bd8d95cdcd959607a1b604482015260640161027e565b600061031984610674565b90508082600701541461035c5760405162461bcd60e51b815260206004820152600b60248201526a0696e76616c6964206f74760ac1b604482015260640161027e565b60088201805460ff1916600117905560405185907fbe0c20f17a3125f7c3275eb0114bd2983f5238faf9e28bd76b26a057bc62924690600090a250604080516101208101825282546001600160a01b039081168252600184015481166020830152600284015481169282019290925260038301548216606082015260048301549091166080820152600582015460a0820152600682015460c0820152600782015460e082015260089091015460ff1615156101008201529392505050565b600060016000815461042b90610c6c565b918290555060408051610120810182523381526001600160a01b0389811660208084018281528b84168587018181528c8616606088019081528c87166080890190815260a089018d8152600060c08b0181815260e08c018281526101008d018381528f845299839052918d90209b518c54908c166001600160a01b0319918216178d55975160018d018054918d16918a16919091179055945160028c018054918c16918916919091179055925160038b018054918b16918816919091179055905160048a01805491909916951694909417909655915160058701559051600686015592516007850155516008909301805493151560ff19949094169390931790925591519293509183907f98f48c20047e003953c5f2b8cc9a605a1e5889c3172878efdada2b263bf86a2d9061057890889088906001600160a01b03929092168252602082015260400190565b60405180910390a495945050505050565b600083815260208190526040902060038101546001600160a01b031633146105ec5760405162461bcd60e51b81526020600482015260166024820152753ab730baba3437b934bd32b21037ba3829b2b93b32b960511b604482015260640161027e565b600881015460ff16156106355760405162461bcd60e51b8152602060048201526011602482015270185b1c9958591e481c1c9bd8d95cdcd959607a1b604482015260640161027e565b600681018290556007810183905560405184907feab1e5f414e5056fca992d2f9323350fbf7d861790088fe15b91fa53dbeb41ef90600090a250505050565b6000816040516020016106879190610c93565b604051602081830303815290604052805190602001209050919050565b60608167ffffffffffffffff8111156106bf576106bf6108e8565b6040519080825280602002602001820160405280156106f257816020015b60608152602001906001900390816106dd5790505b50905060005b82811015610792576107623085858481811061071657610716610caf565b90506020028101906107289190610cc5565b8080601f01602080910402602001604051908101604052809392919081815260200183838082843760009201919091525061079992505050565b82828151811061077457610774610caf565b6020026020010181905250808061078a90610c6c565b9150506106f8565b5092915050565b60606107be8383604051806060016040528060278152602001610d27602791396107c5565b9392505050565b6060600080856001600160a01b0316856040516107e29190610c93565b600060405180830381855af49150503d806000811461081d576040519150601f19603f3d011682016040523d82523d6000602084013e610822565b606091505b50915091506108338683838761083d565b9695505050505050565b606083156108ac5782516000036108a5576001600160a01b0385163b6108a55760405162461bcd60e51b815260206004820152601d60248201527f416464726573733a2063616c6c20746f206e6f6e2d636f6e7472616374000000604482015260640161027e565b50816108b6565b6108b683836108be565b949350505050565b8151156108ce5781518083602001fd5b8060405162461bcd60e51b815260040161027e9190610d13565b634e487b7160e01b600052604160045260246000fd5b600082601f83011261090f57600080fd5b813567ffffffffffffffff8082111561092a5761092a6108e8565b604051601f8301601f19908116603f01168101908282118183101715610952576109526108e8565b8160405283815286602085880101111561096b57600080fd5b836020870160208301376000602085830101528094505050505092915050565b6000806040838503121561099e57600080fd5b82359150602083013567ffffffffffffffff8111156109bc57600080fd5b6109c8858286016108fe565b9150509250929050565b81516001600160a01b039081168252602080840151821690830152604080840151821690830152606080840151821690830152608080840151918216908301526101208201905060a083015160a083015260c083015160c083015260e083015160e083015261010080840151610a4b8285018215159052565b505092915050565b80356001600160a01b0381168114610a6a57600080fd5b919050565b600080600080600060a08688031215610a8757600080fd5b610a9086610a53565b9450610a9e60208701610a53565b9350610aac60408701610a53565b9250610aba60608701610a53565b949793965091946080013592915050565b600080600060608486031215610ae057600080fd5b505081359360208301359350604090920135919050565b600060208284031215610b0957600080fd5b813567ffffffffffffffff811115610b2057600080fd5b6108b6848285016108fe565b600060208284031215610b3e57600080fd5b5035919050565b60008060208385031215610b5857600080fd5b823567ffffffffffffffff80821115610b7057600080fd5b818501915085601f830112610b8457600080fd5b813581811115610b9357600080fd5b8660208260051b8501011115610ba857600080fd5b60209290920196919550909350505050565b60005b83811015610bd5578181015183820152602001610bbd565b50506000910152565b60008151808452610bf6816020860160208601610bba565b601f01601f19169290920160200192915050565b6000602080830181845280855180835260408601915060408160051b870101925083870160005b82811015610c5f57603f19888603018452610c4d858351610bde565b94509285019290850190600101610c31565b5092979650505050505050565b600060018201610c8c57634e487b7160e01b600052601160045260246000fd5b5060010190565b60008251610ca5818460208701610bba565b9190910192915050565b634e487b7160e01b600052603260045260246000fd5b6000808335601e19843603018112610cdc57600080fd5b83018035915067ffffffffffffffff821115610cf757600080fd5b602001915036819003821315610d0c57600080fd5b9250929050565b6020815260006107be6020830184610bde56fe416464726573733a206c6f772d6c6576656c2064656c65676174652063616c6c206661696c6564a2646970667358221220c5ca5c924e0b3af7b2a7181ffd68d38aba194d44037d6e9a5e8f7fa6c729478964736f6c63430008110033",
  "linkReferences": {},
  "deployedLinkReferences": {}
}