{
  "_format": "hh-sol-artifact-1",
  "contractName": "RahatToken",
  "sourceName": "src/contracts/RahatToken.sol",
  "abi": [
    {
      "inputs": [
        {
          "internalType": "string",
          "name": "_name",
          "type": "string"
        },
        {
          "internalType": "string",
          "name": "_symbol",
          "type": "string"
        },
        {
          "internalType": "address",
          "name": "_admin",
          "type": "address"
        },
        {
          "internalType": "uint8",
          "name": "_decimals",
          "type": "uint8"
        }
      ],
      "stateMutability": "nonpayable",
      "type": "constructor"
    },
    {
      "anonymous": false,
      "inputs": [
        {
          "indexed": true,
          "internalType": "address",
          "name": "owner",
          "type": "address"
        },
        {
          "indexed": true,
          "internalType": "address",
          "name": "spender",
          "type": "address"
        },
        {
          "indexed": false,
          "internalType": "uint256",
          "name": "value",
          "type": "uint256"
        }
      ],
      "name": "Approval",
      "type": "event"
    },
    {
      "anonymous": false,
      "inputs": [
        {
          "indexed": false,
          "internalType": "uint256",
          "name": "id",
          "type": "uint256"
        }
      ],
      "name": "Snapshot",
      "type": "event"
    },
    {
      "anonymous": false,
      "inputs": [
        {
          "indexed": true,
          "internalType": "address",
          "name": "from",
          "type": "address"
        },
        {
          "indexed": true,
          "internalType": "address",
          "name": "to",
          "type": "address"
        },
        {
          "indexed": false,
          "internalType": "uint256",
          "name": "value",
          "type": "uint256"
        }
      ],
      "name": "Transfer",
      "type": "event"
    },
    {
      "inputs": [
        {
          "internalType": "address",
          "name": "_account",
          "type": "address"
        }
      ],
      "name": "addOwner",
      "outputs": [
        {
          "internalType": "bool",
          "name": "",
          "type": "bool"
        }
      ],
      "stateMutability": "nonpayable",
      "type": "function"
    },
    {
      "inputs": [
        {
          "internalType": "address",
          "name": "owner",
          "type": "address"
        },
        {
          "internalType": "address",
          "name": "spender",
          "type": "address"
        }
      ],
      "name": "allowance",
      "outputs": [
        {
          "internalType": "uint256",
          "name": "",
          "type": "uint256"
        }
      ],
      "stateMutability": "view",
      "type": "function"
    },
    {
      "inputs": [
        {
          "internalType": "address",
          "name": "spender",
          "type": "address"
        },
        {
          "internalType": "uint256",
          "name": "amount",
          "type": "uint256"
        }
      ],
      "name": "approve",
      "outputs": [
        {
          "internalType": "bool",
          "name": "",
          "type": "bool"
        }
      ],
      "stateMutability": "nonpayable",
      "type": "function"
    },
    {
      "inputs": [
        {
          "internalType": "address",
          "name": "account",
          "type": "address"
        }
      ],
      "name": "balanceOf",
      "outputs": [
        {
          "internalType": "uint256",
          "name": "",
          "type": "uint256"
        }
      ],
      "stateMutability": "view",
      "type": "function"
    },
    {
      "inputs": [
        {
          "internalType": "address",
          "name": "account",
          "type": "address"
        },
        {
          "internalType": "uint256",
          "name": "snapshotId",
          "type": "uint256"
        }
      ],
      "name": "balanceOfAt",
      "outputs": [
        {
          "internalType": "uint256",
          "name": "",
          "type": "uint256"
        }
      ],
      "stateMutability": "view",
      "type": "function"
    },
    {
      "inputs": [
        {
          "internalType": "uint256",
          "name": "amount",
          "type": "uint256"
        }
      ],
      "name": "burn",
      "outputs": [],
      "stateMutability": "nonpayable",
      "type": "function"
    },
    {
      "inputs": [
        {
          "internalType": "address",
          "name": "account",
          "type": "address"
        },
        {
          "internalType": "uint256",
          "name": "amount",
          "type": "uint256"
        }
      ],
      "name": "burnFrom",
      "outputs": [],
      "stateMutability": "nonpayable",
      "type": "function"
    },
    {
      "inputs": [],
      "name": "decimals",
      "outputs": [
        {
          "internalType": "uint8",
          "name": "",
          "type": "uint8"
        }
      ],
      "stateMutability": "view",
      "type": "function"
    },
    {
      "inputs": [
        {
          "internalType": "address",
          "name": "spender",
          "type": "address"
        },
        {
          "internalType": "uint256",
          "name": "subtractedValue",
          "type": "uint256"
        }
      ],
      "name": "decreaseAllowance",
      "outputs": [
        {
          "internalType": "bool",
          "name": "",
          "type": "bool"
        }
      ],
      "stateMutability": "nonpayable",
      "type": "function"
    },
    {
      "inputs": [
        {
          "internalType": "address",
          "name": "spender",
          "type": "address"
        },
        {
          "internalType": "uint256",
          "name": "addedValue",
          "type": "uint256"
        }
      ],
      "name": "increaseAllowance",
      "outputs": [
        {
          "internalType": "bool",
          "name": "",
          "type": "bool"
        }
      ],
      "stateMutability": "nonpayable",
      "type": "function"
    },
    {
      "inputs": [],
      "name": "listAdmins",
      "outputs": [
        {
          "internalType": "address[]",
          "name": "",
          "type": "address[]"
        }
      ],
      "stateMutability": "view",
      "type": "function"
    },
    {
      "inputs": [
        {
          "internalType": "address",
          "name": "_address",
          "type": "address"
        },
        {
          "internalType": "uint256",
          "name": "_amount",
          "type": "uint256"
        }
      ],
      "name": "mint",
      "outputs": [
        {
          "internalType": "uint256",
          "name": "",
          "type": "uint256"
        }
      ],
      "stateMutability": "nonpayable",
      "type": "function"
    },
    {
      "inputs": [
        {
          "internalType": "bytes[]",
          "name": "data",
          "type": "bytes[]"
        }
      ],
      "name": "multicall",
      "outputs": [
        {
          "internalType": "bytes[]",
          "name": "results",
          "type": "bytes[]"
        }
      ],
      "stateMutability": "nonpayable",
      "type": "function"
    },
    {
      "inputs": [],
      "name": "name",
      "outputs": [
        {
          "internalType": "string",
          "name": "",
          "type": "string"
        }
      ],
      "stateMutability": "view",
      "type": "function"
    },
    {
      "inputs": [
        {
          "internalType": "address",
          "name": "_account",
          "type": "address"
        }
      ],
      "name": "removeOwner",
      "outputs": [
        {
          "internalType": "bool",
          "name": "",
          "type": "bool"
        }
      ],
      "stateMutability": "nonpayable",
      "type": "function"
    },
    {
      "inputs": [],
      "name": "symbol",
      "outputs": [
        {
          "internalType": "string",
          "name": "",
          "type": "string"
        }
      ],
      "stateMutability": "view",
      "type": "function"
    },
    {
      "inputs": [],
      "name": "totalSupply",
      "outputs": [
        {
          "internalType": "uint256",
          "name": "",
          "type": "uint256"
        }
      ],
      "stateMutability": "view",
      "type": "function"
    },
    {
      "inputs": [
        {
          "internalType": "uint256",
          "name": "snapshotId",
          "type": "uint256"
        }
      ],
      "name": "totalSupplyAt",
      "outputs": [
        {
          "internalType": "uint256",
          "name": "",
          "type": "uint256"
        }
      ],
      "stateMutability": "view",
      "type": "function"
    },
    {
      "inputs": [
        {
          "internalType": "address",
          "name": "to",
          "type": "address"
        },
        {
          "internalType": "uint256",
          "name": "amount",
          "type": "uint256"
        }
      ],
      "name": "transfer",
      "outputs": [
        {
          "internalType": "bool",
          "name": "",
          "type": "bool"
        }
      ],
      "stateMutability": "nonpayable",
      "type": "function"
    },
    {
      "inputs": [
        {
          "internalType": "address",
          "name": "from",
          "type": "address"
        },
        {
          "internalType": "address",
          "name": "to",
          "type": "address"
        },
        {
          "internalType": "uint256",
          "name": "amount",
          "type": "uint256"
        }
      ],
      "name": "transferFrom",
      "outputs": [
        {
          "internalType": "bool",
          "name": "",
          "type": "bool"
        }
      ],
      "stateMutability": "nonpayable",
      "type": "function"
    }
  ],
  "bytecode": "0x60806040523480156200001157600080fd5b5060405162001aed38038062001aed833981016040819052620000349162000203565b8383600662000044838262000338565b50600762000053828262000338565b50505062000067826200008660201b60201c565b50600c805460ff191660ff929092169190911790555062000404915050565b6001600160a01b03811660009081526002602090815260408220805460ff19166001179055620000c3908290849062000703620000cc821b17901c565b50600192915050565b6000620000e3836001600160a01b038416620000ec565b90505b92915050565b60008181526001830160205260408120546200013557508154600181810184556000848152602080822090930184905584548482528286019093526040902091909155620000e6565b506000620000e6565b634e487b7160e01b600052604160045260246000fd5b600082601f8301126200016657600080fd5b81516001600160401b03808211156200018357620001836200013e565b604051601f8301601f19908116603f01168101908282118183101715620001ae57620001ae6200013e565b81604052838152602092508683858801011115620001cb57600080fd5b600091505b83821015620001ef5785820183015181830184015290820190620001d0565b600093810190920192909252949350505050565b600080600080608085870312156200021a57600080fd5b84516001600160401b03808211156200023257600080fd5b620002408883890162000154565b955060208701519150808211156200025757600080fd5b50620002668782880162000154565b604087015190945090506001600160a01b03811681146200028657600080fd5b606086015190925060ff811681146200029e57600080fd5b939692955090935050565b600181811c90821680620002be57607f821691505b602082108103620002df57634e487b7160e01b600052602260045260246000fd5b50919050565b601f8211156200033357600081815260208120601f850160051c810160208610156200030e5750805b601f850160051c820191505b818110156200032f578281556001016200031a565b5050505b505050565b81516001600160401b038111156200035457620003546200013e565b6200036c81620003658454620002a9565b84620002e5565b602080601f831160018114620003a457600084156200038b5750858301515b600019600386901b1c1916600185901b1785556200032f565b600085815260208120601f198616915b82811015620003d557888601518255948401946001909101908401620003b4565b5085821015620003f45787850151600019600388901b60f8161c191681555b5050505050600190811b01905550565b6116d980620004146000396000f3fe608060405234801561001057600080fd5b506004361061010c5760003560e01c80637065cb481161009d5780637065cb48146101ed57806370a082311461020057806379cc67901461021357806395d89b4114610226578063981b24d01461022e578063a457c2d714610241578063a591afbe14610254578063a9059cbb14610269578063ac9650d81461027c578063dd62ed3e1461029c57600080fd5b806306fdde0314610111578063095ea7b31461012f578063173825d91461015257806318160ddd1461016557806323b872dd14610177578063313ce5671461018a578063395093511461019f57806340c10f19146101b257806342966c68146101c55780634ee2cd7e146101da575b600080fd5b6101196102af565b60405161012691906112aa565b60405180910390f35b61014261013d3660046112d4565b610341565b6040519015158152602001610126565b6101426101603660046112fe565b61035b565b6005545b604051908152602001610126565b610142610185366004611319565b6103c8565b600c5460405160ff9091168152602001610126565b6101426101ad3660046112d4565b6103ec565b6101696101c03660046112d4565b61040e565b6101d86101d3366004611355565b61044d565b005b6101696101e83660046112d4565b61045a565b6101426101fb3660046112fe565b6104a3565b61016961020e3660046112fe565b6104db565b6101d86102213660046112d4565b6104f6565b61011961050f565b61016961023c366004611355565b61051e565b61014261024f3660046112d4565b610549565b61025c6105c4565b604051610126919061136e565b6101426102773660046112d4565b6105d5565b61028f61028a3660046113bb565b6105e3565b6040516101269190611430565b6101696102aa366004611492565b6106d8565b6060600680546102be906114c5565b80601f01602080910402602001604051908101604052809291908181526020018280546102ea906114c5565b80156103375780601f1061030c57610100808354040283529160200191610337565b820191906000526020600020905b81548152906001019060200180831161031a57829003601f168201915b5050505050905090565b60003361034f81858561071f565b60019150505b92915050565b3360009081526002602052604081205460ff166103935760405162461bcd60e51b815260040161038a906114f9565b60405180910390fd5b6001600160a01b0382166000908152600260205260408120805460ff191690556103bd9083610844565b50600190505b919050565b6000336103d6858285610859565b6103e18585856108d3565b506001949350505050565b60003361034f8185856103ff83836106d8565b6104099190611556565b61071f565b3360009081526002602052604081205460ff1661043d5760405162461bcd60e51b815260040161038a906114f9565b6104478383610a77565b50919050565b6104573382610b32565b50565b6001600160a01b038216600090815260086020526040812081908190610481908590610c5d565b915091508161049857610493856104db565b61049a565b805b95945050505050565b3360009081526002602052604081205460ff166104d25760405162461bcd60e51b815260040161038a906114f9565b61035582610d53565b6001600160a01b031660009081526003602052604090205490565b610501823383610859565b61050b8282610b32565b5050565b6060600780546102be906114c5565b600080600061052e846009610c5d565b915091508161053f57600554610541565b805b949350505050565b6000338161055782866106d8565b9050838110156105b75760405162461bcd60e51b815260206004820152602560248201527f45524332303a2064656372656173656420616c6c6f77616e63652062656c6f77604482015264207a65726f60d81b606482015260840161038a565b6103e1828686840361071f565b60606105d06000610d80565b905090565b60003361034f8185856108d3565b60608167ffffffffffffffff8111156105fe576105fe611569565b60405190808252806020026020018201604052801561063157816020015b606081526020019060019003908161061c5790505b50905060005b828110156106d1576106a1308585848181106106555761065561157f565b90506020028101906106679190611595565b8080601f016020809104026020016040519081016040528093929190818152602001838380828437600092019190915250610d8d92505050565b8282815181106106b3576106b361157f565b602002602001018190525080806106c9906115dc565b915050610637565b5092915050565b6001600160a01b03918216600090815260046020908152604080832093909416825291909152205490565b6000610718836001600160a01b038416610db2565b9392505050565b6001600160a01b0383166107815760405162461bcd60e51b8152602060048201526024808201527f45524332303a20617070726f76652066726f6d20746865207a65726f206164646044820152637265737360e01b606482015260840161038a565b6001600160a01b0382166107e25760405162461bcd60e51b815260206004820152602260248201527f45524332303a20617070726f766520746f20746865207a65726f206164647265604482015261737360f01b606482015260840161038a565b6001600160a01b0383811660008181526004602090815260408083209487168084529482529182902085905590518481527f8c5be1e5ebec7d5bd14f71427d1e84f3dd0314c0f7b2291e5b200ac8c7c3b92591015b60405180910390a3505050565b6000610718836001600160a01b038416610e01565b600061086584846106d8565b905060001981146108cd57818110156108c05760405162461bcd60e51b815260206004820152601d60248201527f45524332303a20696e73756666696369656e7420616c6c6f77616e6365000000604482015260640161038a565b6108cd848484840361071f565b50505050565b6001600160a01b0383166109375760405162461bcd60e51b815260206004820152602560248201527f45524332303a207472616e736665722066726f6d20746865207a65726f206164604482015264647265737360d81b606482015260840161038a565b6001600160a01b0382166109995760405162461bcd60e51b815260206004820152602360248201527f45524332303a207472616e7366657220746f20746865207a65726f206164647260448201526265737360e81b606482015260840161038a565b6109a4838383610ef4565b6001600160a01b03831660009081526003602052604090205481811015610a1c5760405162461bcd60e51b815260206004820152602660248201527f45524332303a207472616e7366657220616d6f756e7420657863656564732062604482015265616c616e636560d01b606482015260840161038a565b6001600160a01b03808516600081815260036020526040808220868603905592861680825290839020805486019055915160008051602061168483398151915290610a6a9086815260200190565b60405180910390a36108cd565b6001600160a01b038216610acd5760405162461bcd60e51b815260206004820152601f60248201527f45524332303a206d696e7420746f20746865207a65726f206164647265737300604482015260640161038a565b610ad960008383610ef4565b8060056000828254610aeb9190611556565b90915550506001600160a01b038216600081815260036020908152604080832080548601905551848152600080516020611684833981519152910160405180910390a35050565b6001600160a01b038216610b925760405162461bcd60e51b815260206004820152602160248201527f45524332303a206275726e2066726f6d20746865207a65726f206164647265736044820152607360f81b606482015260840161038a565b610b9e82600083610ef4565b6001600160a01b03821660009081526003602052604090205481811015610c125760405162461bcd60e51b815260206004820152602260248201527f45524332303a206275726e20616d6f756e7420657863656564732062616c616e604482015261636560f01b606482015260840161038a565b6001600160a01b03831660008181526003602090815260408083208686039055600580548790039055518581529192916000805160206116848339815191529101610837565b505050565b60008060008411610ca95760405162461bcd60e51b815260206004820152601660248201527504552433230536e617073686f743a20696420697320360541b604482015260640161038a565b610cb1610eff565b841115610d005760405162461bcd60e51b815260206004820152601d60248201527f4552433230536e617073686f743a206e6f6e6578697374656e74206964000000604482015260640161038a565b6000610d0c8486610f0a565b84549091508103610d24576000809250925050610d4c565b6001846001018281548110610d3b57610d3b61157f565b906000526020600020015492509250505b9250929050565b6001600160a01b0381166000908152600260205260408120805460ff191660011790556103bd8183610703565b6060600061071883610fb7565b6060610718838360405180606001604052806027815260200161165d60279139611013565b6000818152600183016020526040812054610df957508154600181810184556000848152602080822090930184905584548482528286019093526040902091909155610355565b506000610355565b60008181526001830160205260408120548015610eea576000610e256001836115f5565b8554909150600090610e39906001906115f5565b9050818114610e9e576000866000018281548110610e5957610e5961157f565b9060005260206000200154905080876000018481548110610e7c57610e7c61157f565b6000918252602080832090910192909255918252600188019052604090208390555b8554869080610eaf57610eaf611608565b600190038181906000526020600020016000905590558560010160008681526020019081526020016000206000905560019350505050610355565b6000915050610355565b610c5883838361108b565b60006105d0600b5490565b81546000908103610f1d57506000610355565b82546000905b80821015610f6a576000610f3783836110d3565b60008781526020902090915085908201541115610f5657809150610f64565b610f61816001611556565b92505b50610f23565b600082118015610f96575083610f9386610f856001866115f5565b600091825260209091200190565b54145b15610faf57610fa66001836115f5565b92505050610355565b509050610355565b60608160000180548060200260200160405190810160405280929190818152602001828054801561100757602002820191906000526020600020905b815481526020019060010190808311610ff3575b50505050509050919050565b6060600080856001600160a01b031685604051611030919061161e565b600060405180830381855af49150503d806000811461106b576040519150601f19603f3d011682016040523d82523d6000602084013e611070565b606091505b5091509150611081868383876110ee565b9695505050505050565b6001600160a01b0383166110aa576110a282611167565b610c58611191565b6001600160a01b0382166110c1576110a283611167565b6110ca83611167565b610c5882611167565b60006110e2600284841861163a565b61071890848416611556565b6060831561115d578251600003611156576001600160a01b0385163b6111565760405162461bcd60e51b815260206004820152601d60248201527f416464726573733a2063616c6c20746f206e6f6e2d636f6e7472616374000000604482015260640161038a565b5081610541565b61054183836111a1565b6001600160a01b03811660009081526008602052604090206104579061118c836104db565b6111cb565b61119f600961118c60055490565b565b8151156111b15781518083602001fd5b8060405162461bcd60e51b815260040161038a91906112aa565b60006111d5610eff565b9050806111e184611215565b1015610c58578254600180820185556000858152602080822090930193909355938401805494850181558252902090910155565b8054600090810361122857506000919050565b81548290611238906001906115f5565b815481106112485761124861157f565b90600052602060002001549050919050565b60005b8381101561127557818101518382015260200161125d565b50506000910152565b6000815180845261129681602086016020860161125a565b601f01601f19169290920160200192915050565b602081526000610718602083018461127e565b80356001600160a01b03811681146103c357600080fd5b600080604083850312156112e757600080fd5b6112f0836112bd565b946020939093013593505050565b60006020828403121561131057600080fd5b610718826112bd565b60008060006060848603121561132e57600080fd5b611337846112bd565b9250611345602085016112bd565b9150604084013590509250925092565b60006020828403121561136757600080fd5b5035919050565b6020808252825182820181905260009190848201906040850190845b818110156113af5783516001600160a01b03168352928401929184019160010161138a565b50909695505050505050565b600080602083850312156113ce57600080fd5b823567ffffffffffffffff808211156113e657600080fd5b818501915085601f8301126113fa57600080fd5b81358181111561140957600080fd5b8660208260051b850101111561141e57600080fd5b60209290920196919550909350505050565b6000602080830181845280855180835260408601915060408160051b870101925083870160005b8281101561148557603f1988860301845261147385835161127e565b94509285019290850190600101611457565b5092979650505050505050565b600080604083850312156114a557600080fd5b6114ae836112bd565b91506114bc602084016112bd565b90509250929050565b600181811c908216806114d957607f821691505b60208210810361044757634e487b7160e01b600052602260045260246000fd5b60208082526027908201527f4f6e6c79206f776e65722063616e20657865637574652074686973207472616e60408201526639b0b1ba34b7b760c91b606082015260800190565b634e487b7160e01b600052601160045260246000fd5b8082018082111561035557610355611540565b634e487b7160e01b600052604160045260246000fd5b634e487b7160e01b600052603260045260246000fd5b6000808335601e198436030181126115ac57600080fd5b83018035915067ffffffffffffffff8211156115c757600080fd5b602001915036819003821315610d4c57600080fd5b6000600182016115ee576115ee611540565b5060010190565b8181038181111561035557610355611540565b634e487b7160e01b600052603160045260246000fd5b6000825161163081846020870161125a565b9190910192915050565b60008261165757634e487b7160e01b600052601260045260246000fd5b50049056fe416464726573733a206c6f772d6c6576656c2064656c65676174652063616c6c206661696c6564ddf252ad1be2c89b69c2b068fc378daa952ba7f163c4a11628f55a4df523b3efa2646970667358221220c5d2aa8b7194c74334b1ca6e9bc6d587c4fc510ac4493b3ef34c217e716e5fb564736f6c63430008110033",
  "linkReferences": {},
  "deployedLinkReferences": {}
}