{
  "_format": "hh-sol-artifact-1",
  "contractName": "RahatClaim",
  "sourceName": "src/contracts/RahatClaim.sol",
  "abi": [
    {
      "anonymous": false,
      "inputs": [
        {
          "indexed": true,
          "internalType": "uint256",
          "name": "claimId",
          "type": "uint256"
        }
      ],
      "name": "ClaimCreated",
      "type": "event"
    },
    {
      "anonymous": false,
      "inputs": [
        {
          "indexed": true,
          "internalType": "uint256",
          "name": "claimId",
          "type": "uint256"
        }
      ],
      "name": "ClaimProcessed",
      "type": "event"
    },
    {
      "anonymous": false,
      "inputs": [
        {
          "indexed": true,
          "internalType": "uint256",
          "name": "claimId",
          "type": "uint256"
        }
      ],
      "name": "OtpAddedToClaim",
      "type": "event"
    },
    {
      "inputs": [
        {
          "internalType": "uint256",
          "name": "_claimId",
          "type": "uint256"
        },
        {
          "internalType": "bytes32",
          "name": "_otpHash",
          "type": "bytes32"
        },
        {
          "internalType": "uint256",
          "name": "_expiryDate",
          "type": "uint256"
        }
      ],
      "name": "addOtpToClaim",
      "outputs": [],
      "stateMutability": "nonpayable",
      "type": "function"
    },
    {
      "inputs": [],
      "name": "claimCount",
      "outputs": [
        {
          "internalType": "uint256",
          "name": "",
          "type": "uint256"
        }
      ],
      "stateMutability": "view",
      "type": "function"
    },
    {
      "inputs": [
        {
          "internalType": "uint256",
          "name": "",
          "type": "uint256"
        }
      ],
      "name": "claims",
      "outputs": [
        {
          "internalType": "address",
          "name": "ownerAddress",
          "type": "address"
        },
        {
          "internalType": "address",
          "name": "claimerAddress",
          "type": "address"
        },
        {
          "internalType": "address",
          "name": "claimeeAddress",
          "type": "address"
        },
        {
          "internalType": "address",
          "name": "otpServerAddress",
          "type": "address"
        },
        {
          "internalType": "address",
          "name": "tokenAddress",
          "type": "address"
        },
        {
          "internalType": "uint256",
          "name": "amount",
          "type": "uint256"
        },
        {
          "internalType": "uint256",
          "name": "expiryDate",
          "type": "uint256"
        },
        {
          "internalType": "bytes32",
          "name": "otpHash",
          "type": "bytes32"
        },
        {
          "internalType": "bool",
          "name": "isProcessed",
          "type": "bool"
        }
      ],
      "stateMutability": "view",
      "type": "function"
    },
    {
      "inputs": [
        {
          "internalType": "address",
          "name": "_claimerAddress",
          "type": "address"
        },
        {
          "internalType": "address",
          "name": "_claimeeAddress",
          "type": "address"
        },
        {
          "internalType": "address",
          "name": "_otpServerAddress",
          "type": "address"
        },
        {
          "internalType": "address",
          "name": "_tokenAddress",
          "type": "address"
        },
        {
          "internalType": "uint256",
          "name": "_amount",
          "type": "uint256"
        }
      ],
      "name": "createClaim",
      "outputs": [
        {
          "internalType": "uint256",
          "name": "claimId",
          "type": "uint256"
        }
      ],
      "stateMutability": "nonpayable",
      "type": "function"
    },
    {
      "inputs": [
        {
          "internalType": "string",
          "name": "_data",
          "type": "string"
        }
      ],
      "name": "findHash",
      "outputs": [
        {
          "internalType": "bytes32",
          "name": "",
          "type": "bytes32"
        }
      ],
      "stateMutability": "pure",
      "type": "function"
    },
    {
      "inputs": [
        {
          "internalType": "uint256",
          "name": "_claimId",
          "type": "uint256"
        },
        {
          "internalType": "string",
          "name": "_otp",
          "type": "string"
        }
      ],
      "name": "processClaim",
      "outputs": [
        {
          "components": [
            {
              "internalType": "address",
              "name": "ownerAddress",
              "type": "address"
            },
            {
              "internalType": "address",
              "name": "claimerAddress",
              "type": "address"
            },
            {
              "internalType": "address",
              "name": "claimeeAddress",
              "type": "address"
            },
            {
              "internalType": "address",
              "name": "otpServerAddress",
              "type": "address"
            },
            {
              "internalType": "address",
              "name": "tokenAddress",
              "type": "address"
            },
            {
              "internalType": "uint256",
              "name": "amount",
              "type": "uint256"
            },
            {
              "internalType": "uint256",
              "name": "expiryDate",
              "type": "uint256"
            },
            {
              "internalType": "bytes32",
              "name": "otpHash",
              "type": "bytes32"
            },
            {
              "internalType": "bool",
              "name": "isProcessed",
              "type": "bool"
            }
          ],
          "internalType": "struct IRahatClaim.Claim",
          "name": "claim_",
          "type": "tuple"
        }
      ],
      "stateMutability": "nonpayable",
      "type": "function"
    }
  ],
  "bytecode": "0x608060405234801561001057600080fd5b50610932806100206000396000f3fe608060405234801561001057600080fd5b50600436106100625760003560e01c80630a5eccd31461006757806323fe50a31461009057806356844801146100b157806370c75107146100c65780638da4d3c9146100d9578063a888c2cd146100e2575b600080fd5b61007a610075366004610698565b6101ab565b60405161008791906106ec565b60405180910390f35b6100a361009e36600461079d565b6103bb565b604051908152602001610087565b6100c46100bf3660046107f9565b6104fe565b005b6100a36100d4366004610825565b6105c5565b6100a360015481565b6101506100f0366004610862565b6000602081905290815260409020805460018201546002830154600384015460048501546005860154600687015460078801546008909801546001600160a01b039788169896881697958616969486169590931693919290919060ff1689565b604080516001600160a01b039a8b168152988a1660208a015296891696880196909652938716606087015295909116608085015260a084015260c083019390935260e082019290925290151561010082015261012001610087565b6040805161012081018252600080825260208201819052918101829052606081018290526080810182905260a0810182905260c0810182905260e08101829052610100810191909152600083815260208190526040902080546001600160a01b0316331461024c5760405162461bcd60e51b81526020600482015260096024820152683737ba1037bbb732b960b91b60448201526064015b60405180910390fd5b806006015442111561028a5760405162461bcd60e51b8152602060048201526007602482015266195e1c1a5c995960ca1b6044820152606401610243565b600881015460ff16156102af5760405162461bcd60e51b81526004016102439061087b565b60006102ba846105c5565b9050808260070154146102fd5760405162461bcd60e51b815260206004820152600b60248201526a0696e76616c6964206f74760ac1b6044820152606401610243565b60088201805460ff1916600117905560405185907fbe0c20f17a3125f7c3275eb0114bd2983f5238faf9e28bd76b26a057bc62924690600090a250604080516101208101825282546001600160a01b039081168252600184015481166020830152600284015481169282019290925260038301548216606082015260048301549091166080820152600582015460a0820152600682015460c0820152600782015460e082015260089091015460ff1615156101008201529392505050565b60006001600081546103cc906108a6565b918290555060408051610120810182523381526001600160a01b0389811660208084019182528a83168486019081528a8416606086019081528a85166080870190815260a087018b8152600060c0890181815260e08a018281526101008b018381528d8452978390528b83209a518b546001600160a01b0319908116918c16919091178c55985160018c0180548b16918c16919091179055955160028b0180548a16918b16919091179055935160038a0180548916918a16919091179055915160048901805490971697169690961790945593516005860155925160068501559151600784015590516008909201805460ff191692151592909217909155905191925082917f3106ccab17a8e74387554d8ef984d75d6c305d51cbe629c038b0bec803c1aad39190a295945050505050565b600083815260208190526040902060038101546001600160a01b031633146105615760405162461bcd60e51b81526020600482015260166024820152753ab730baba3437b934bd32b21037ba3829b2b93b32b960511b6044820152606401610243565b600881015460ff16156105865760405162461bcd60e51b81526004016102439061087b565b600681018290556007810183905560405184907feab1e5f414e5056fca992d2f9323350fbf7d861790088fe15b91fa53dbeb41ef90600090a250505050565b6000816040516020016105d891906108cd565b604051602081830303815290604052805190602001209050919050565b634e487b7160e01b600052604160045260246000fd5b600082601f83011261061c57600080fd5b813567ffffffffffffffff80821115610637576106376105f5565b604051601f8301601f19908116603f0116810190828211818310171561065f5761065f6105f5565b8160405283815286602085880101111561067857600080fd5b836020870160208301376000602085830101528094505050505092915050565b600080604083850312156106ab57600080fd5b82359150602083013567ffffffffffffffff8111156106c957600080fd5b6106d58582860161060b565b9150509250929050565b6001600160a01b03169052565b81516001600160a01b03908116825260208084015190911690820152604080830151610120830191610720908401826106df565b50606083015161073360608401826106df565b50608083015161074660808401826106df565b5060a083015160a083015260c083015160c083015260e083015160e0830152610100808401516107798285018215159052565b505092915050565b80356001600160a01b038116811461079857600080fd5b919050565b600080600080600060a086880312156107b557600080fd5b6107be86610781565b94506107cc60208701610781565b93506107da60408701610781565b92506107e860608701610781565b949793965091946080013592915050565b60008060006060848603121561080e57600080fd5b505081359360208301359350604090920135919050565b60006020828403121561083757600080fd5b813567ffffffffffffffff81111561084e57600080fd5b61085a8482850161060b565b949350505050565b60006020828403121561087457600080fd5b5035919050565b602080825260119082015270185b1c9958591e481c1c9bd8d95cdcd959607a1b604082015260600190565b6000600182016108c657634e487b7160e01b600052601160045260246000fd5b5060010190565b6000825160005b818110156108ee57602081860181015185830152016108d4565b50600092019182525091905056fea264697066735822122024b207e8fa15e06078e2c8f22e6e304729e47eaaacf20bec305fa5a847b1d09f64736f6c63430008110033",
  "linkReferences": {},
  "deployedLinkReferences": {}
}