{
  "_format": "hh-sol-artifact-1",
  "contractName": "RahatCommunity",
  "sourceName": "src/contracts/RahatCommunity.sol",
  "abi": [
    {
      "inputs": [
        {
          "internalType": "string",
          "name": "_name",
          "type": "string"
        },
        {
          "internalType": "address",
          "name": "_admin",
          "type": "address"
        }
      ],
      "stateMutability": "nonpayable",
      "type": "constructor"
    },
    {
      "anonymous": false,
      "inputs": [
        {
          "indexed": true,
          "internalType": "address",
          "name": "",
          "type": "address"
        }
      ],
      "name": "BeneficiaryAdded",
      "type": "event"
    },
    {
      "anonymous": false,
      "inputs": [
        {
          "indexed": true,
          "internalType": "address",
          "name": "",
          "type": "address"
        }
      ],
      "name": "BeneficiaryRemoved",
      "type": "event"
    },
    {
      "anonymous": false,
      "inputs": [
        {
          "indexed": true,
          "internalType": "address",
          "name": "requestor",
          "type": "address"
        },
        {
          "indexed": true,
          "internalType": "address",
          "name": "project",
          "type": "address"
        }
      ],
      "name": "ProjectApprovalRequest",
      "type": "event"
    },
    {
      "anonymous": false,
      "inputs": [
        {
          "indexed": true,
          "internalType": "address",
          "name": "",
          "type": "address"
        }
      ],
      "name": "ProjectApproved",
      "type": "event"
    },
    {
      "anonymous": false,
      "inputs": [
        {
          "indexed": true,
          "internalType": "address",
          "name": "",
          "type": "address"
        }
      ],
      "name": "ProjectRevoked",
      "type": "event"
    },
    {
      "anonymous": false,
      "inputs": [
        {
          "indexed": false,
          "internalType": "address",
          "name": "",
          "type": "address"
        },
        {
          "indexed": false,
          "internalType": "uint256",
          "name": "",
          "type": "uint256"
        }
      ],
      "name": "Received",
      "type": "event"
    },
    {
      "anonymous": false,
      "inputs": [
        {
          "indexed": true,
          "internalType": "bytes32",
          "name": "role",
          "type": "bytes32"
        },
        {
          "indexed": true,
          "internalType": "bytes32",
          "name": "previousAdminRole",
          "type": "bytes32"
        },
        {
          "indexed": true,
          "internalType": "bytes32",
          "name": "newAdminRole",
          "type": "bytes32"
        }
      ],
      "name": "RoleAdminChanged",
      "type": "event"
    },
    {
      "anonymous": false,
      "inputs": [
        {
          "indexed": true,
          "internalType": "bytes32",
          "name": "role",
          "type": "bytes32"
        },
        {
          "indexed": true,
          "internalType": "address",
          "name": "account",
          "type": "address"
        },
        {
          "indexed": true,
          "internalType": "address",
          "name": "sender",
          "type": "address"
        }
      ],
      "name": "RoleGranted",
      "type": "event"
    },
    {
      "anonymous": false,
      "inputs": [
        {
          "indexed": true,
          "internalType": "bytes32",
          "name": "role",
          "type": "bytes32"
        },
        {
          "indexed": true,
          "internalType": "address",
          "name": "account",
          "type": "address"
        },
        {
          "indexed": true,
          "internalType": "address",
          "name": "sender",
          "type": "address"
        }
      ],
      "name": "RoleRevoked",
      "type": "event"
    },
    {
      "inputs": [],
      "name": "DEFAULT_ADMIN_ROLE",
      "outputs": [
        {
          "internalType": "bytes32",
          "name": "",
          "type": "bytes32"
        }
      ],
      "stateMutability": "view",
      "type": "function"
    },
    {
      "inputs": [],
      "name": "IID_RAHAT_PROJECT",
      "outputs": [
        {
          "internalType": "bytes4",
          "name": "",
          "type": "bytes4"
        }
      ],
      "stateMutability": "view",
      "type": "function"
    },
    {
      "inputs": [],
      "name": "VENDOR_ROLE",
      "outputs": [
        {
          "internalType": "bytes32",
          "name": "",
          "type": "bytes32"
        }
      ],
      "stateMutability": "view",
      "type": "function"
    },
    {
      "inputs": [
        {
          "internalType": "address",
          "name": "_address",
          "type": "address"
        }
      ],
      "name": "addBeneficiary",
      "outputs": [],
      "stateMutability": "nonpayable",
      "type": "function"
    },
    {
      "inputs": [
        {
          "internalType": "address",
          "name": "_projectAddress",
          "type": "address"
        }
      ],
      "name": "approveProject",
      "outputs": [],
      "stateMutability": "nonpayable",
      "type": "function"
    },
    {
      "inputs": [
        {
          "internalType": "bytes32",
          "name": "role",
          "type": "bytes32"
        }
      ],
      "name": "getRoleAdmin",
      "outputs": [
        {
          "internalType": "bytes32",
          "name": "",
          "type": "bytes32"
        }
      ],
      "stateMutability": "view",
      "type": "function"
    },
    {
      "inputs": [
        {
          "internalType": "bytes32",
          "name": "role",
          "type": "bytes32"
        },
        {
          "internalType": "address",
          "name": "account",
          "type": "address"
        }
      ],
      "name": "grantRole",
      "outputs": [],
      "stateMutability": "nonpayable",
      "type": "function"
    },
    {
      "inputs": [
        {
          "internalType": "bytes32",
          "name": "_role",
          "type": "bytes32"
        },
        {
          "internalType": "address",
          "name": "_account",
          "type": "address"
        }
      ],
      "name": "grantRoleWithEth",
      "outputs": [],
      "stateMutability": "nonpayable",
      "type": "function"
    },
    {
      "inputs": [
        {
          "internalType": "bytes32",
          "name": "role",
          "type": "bytes32"
        },
        {
          "internalType": "address",
          "name": "account",
          "type": "address"
        }
      ],
      "name": "hasRole",
      "outputs": [
        {
          "internalType": "bool",
          "name": "",
          "type": "bool"
        }
      ],
      "stateMutability": "view",
      "type": "function"
    },
    {
      "inputs": [
        {
          "internalType": "address",
          "name": "_address",
          "type": "address"
        }
      ],
      "name": "isAdmin",
      "outputs": [
        {
          "internalType": "bool",
          "name": "",
          "type": "bool"
        }
      ],
      "stateMutability": "view",
      "type": "function"
    },
    {
      "inputs": [
        {
          "internalType": "address",
          "name": "",
          "type": "address"
        }
      ],
      "name": "isBeneficiary",
      "outputs": [
        {
          "internalType": "bool",
          "name": "",
          "type": "bool"
        }
      ],
      "stateMutability": "view",
      "type": "function"
    },
    {
      "inputs": [
        {
          "internalType": "address",
          "name": "",
          "type": "address"
        }
      ],
      "name": "isProject",
      "outputs": [
        {
          "internalType": "bool",
          "name": "",
          "type": "bool"
        }
      ],
      "stateMutability": "view",
      "type": "function"
    },
    {
      "inputs": [
        {
          "internalType": "bytes[]",
          "name": "data",
          "type": "bytes[]"
        }
      ],
      "name": "multicall",
      "outputs": [
        {
          "internalType": "bytes[]",
          "name": "results",
          "type": "bytes[]"
        }
      ],
      "stateMutability": "nonpayable",
      "type": "function"
    },
    {
      "inputs": [],
      "name": "name",
      "outputs": [
        {
          "internalType": "string",
          "name": "",
          "type": "string"
        }
      ],
      "stateMutability": "view",
      "type": "function"
    },
    {
      "inputs": [
        {
          "internalType": "address",
          "name": "_address",
          "type": "address"
        }
      ],
      "name": "removeBeneficiary",
      "outputs": [],
      "stateMutability": "nonpayable",
      "type": "function"
    },
    {
      "inputs": [
        {
          "internalType": "bytes32",
          "name": "role",
          "type": "bytes32"
        },
        {
          "internalType": "address",
          "name": "account",
          "type": "address"
        }
      ],
      "name": "renounceRole",
      "outputs": [],
      "stateMutability": "nonpayable",
      "type": "function"
    },
    {
      "inputs": [
        {
          "internalType": "address",
          "name": "_projectAddress",
          "type": "address"
        }
      ],
      "name": "requestProjectApproval",
      "outputs": [],
      "stateMutability": "nonpayable",
      "type": "function"
    },
    {
      "inputs": [
        {
          "internalType": "address",
          "name": "_projectAddress",
          "type": "address"
        }
      ],
      "name": "revokeProject",
      "outputs": [],
      "stateMutability": "nonpayable",
      "type": "function"
    },
    {
      "inputs": [
        {
          "internalType": "bytes32",
          "name": "role",
          "type": "bytes32"
        },
        {
          "internalType": "address",
          "name": "account",
          "type": "address"
        }
      ],
      "name": "revokeRole",
      "outputs": [],
      "stateMutability": "nonpayable",
      "type": "function"
    },
    {
      "inputs": [
        {
          "internalType": "bytes4",
          "name": "interfaceId",
          "type": "bytes4"
        }
      ],
      "name": "supportsInterface",
      "outputs": [
        {
          "internalType": "bool",
          "name": "",
          "type": "bool"
        }
      ],
      "stateMutability": "view",
      "type": "function"
    },
    {
      "inputs": [
        {
          "internalType": "address payable",
          "name": "_to",
          "type": "address"
        }
      ],
      "name": "withdraw",
      "outputs": [],
      "stateMutability": "payable",
      "type": "function"
    },
    {
      "stateMutability": "payable",
      "type": "receive"
    }
  ],
  "bytecode": "0x60806040523480156200001157600080fd5b5060405162001871380380620018718339810160408190526200003491620001a4565b6200004160008262000085565b6200006e7f0aaf57387812c7f832412470a57567b5648a930069be49aa9c98d04f88520d34600062000126565b60016200007c83826200031b565b505050620003e7565b6000828152602081815260408083206001600160a01b038516845290915290205460ff1662000122576000828152602081815260408083206001600160a01b03851684529091529020805460ff19166001179055620000e13390565b6001600160a01b0316816001600160a01b0316837f2f8788117e7eff1d82e926ec794901d17c78024a50270940304540a733656f0d60405160405180910390a45b5050565b600082815260208190526040808220600101805490849055905190918391839186917fbd79b86ffe0ab8e8776151514217cd7cacd52c909f66475c3af44e129f0b00ff9190a4505050565b634e487b7160e01b600052604160045260246000fd5b80516001600160a01b03811681146200019f57600080fd5b919050565b60008060408385031215620001b857600080fd5b82516001600160401b0380821115620001d057600080fd5b818501915085601f830112620001e557600080fd5b815181811115620001fa57620001fa62000171565b604051601f8201601f19908116603f0116810190838211818310171562000225576200022562000171565b816040528281526020935088848487010111156200024257600080fd5b600091505b8282101562000266578482018401518183018501529083019062000247565b60008484830101528096505050506200028181860162000187565b925050509250929050565b600181811c90821680620002a157607f821691505b602082108103620002c257634e487b7160e01b600052602260045260246000fd5b50919050565b601f8211156200031657600081815260208120601f850160051c81016020861015620002f15750805b601f850160051c820191505b818110156200031257828155600101620002fd565b5050505b505050565b81516001600160401b0381111562000337576200033762000171565b6200034f816200034884546200028c565b84620002c8565b602080601f8311600181146200038757600084156200036e5750858301515b600019600386901b1c1916600185901b17855562000312565b600085815260208120601f198616915b82811015620003b85788860151825594840194600190910190840162000397565b5085821015620003d75787850151600019600388901b60f8161c191681555b5050505050600190811b01905550565b61147a80620003f76000396000f3fe60806040526004361061010e5760003560e01c806359633a1c1161009b57806359633a1c146102d357806359844474146102f35780638494b3281461031357806391d1485414610333578063926a694d146103535780639d19b22614610387578063a217fddf146103b7578063a434b1a6146103cc578063ac9650d8146103ec578063be26175214610419578063d547741f1461043957600080fd5b806301ffc9a71461015257806305c814081461018757806306fdde03146101b7578063248a9ca3146101d957806324d7806c146102175780632f2ff15d1461023757806336568abe146102595780634fe215711461027957806351cff8d9146102a05780635926651d146102b357600080fd5b3661014d57604080513381523460208201527f88a5966d370b9919b20f3e2c13ff65706f196a4e32cc2c12bf57088f88525874910160405180910390a1005b600080fd5b34801561015e57600080fd5b5061017261016d366004611034565b610459565b60405190151581526020015b60405180910390f35b34801561019357600080fd5b506101726101a2366004611073565b60036020526000908152604090205460ff1681565b3480156101c357600080fd5b506101cc610490565b60405161017e91906110e0565b3480156101e557600080fd5b506102096101f43660046110f3565b60009081526020819052604090206001015490565b60405190815260200161017e565b34801561022357600080fd5b50610172610232366004611073565b61051e565b34801561024357600080fd5b5061025761025236600461110c565b61052a565b005b34801561026557600080fd5b5061025761027436600461110c565b610554565b34801561028557600080fd5b5061029362f718eb60e81b81565b60405161017e919061113c565b6102576102ae366004611073565b6105d7565b3480156102bf57600080fd5b506102576102ce366004611073565b610698565b3480156102df57600080fd5b506102576102ee366004611073565b61070b565b3480156102ff57600080fd5b5061025761030e36600461110c565b61077b565b34801561031f57600080fd5b5061025761032e366004611073565b610871565b34801561033f57600080fd5b5061017261034e36600461110c565b61090f565b34801561035f57600080fd5b506102097f0aaf57387812c7f832412470a57567b5648a930069be49aa9c98d04f88520d3481565b34801561039357600080fd5b506101726103a2366004611073565b60026020526000908152604090205460ff1681565b3480156103c357600080fd5b50610209600081565b3480156103d857600080fd5b506102576103e7366004611073565b610938565b3480156103f857600080fd5b5061040c610407366004611151565b610971565b60405161017e91906111c5565b34801561042557600080fd5b50610257610434366004611073565b610a65565b34801561044557600080fd5b5061025761045436600461110c565b610bc4565b60006001600160e01b03198216637965db0b60e01b148061048a57506301ffc9a760e01b6001600160e01b03198316145b92915050565b6001805461049d90611227565b80601f01602080910402602001604051908101604052809291908181526020018280546104c990611227565b80156105165780601f106104eb57610100808354040283529160200191610516565b820191906000526020600020905b8154815290600101906020018083116104f957829003601f168201915b505050505081565b600061048a818361090f565b60008281526020819052604090206001015461054581610be9565b61054f8383610bf6565b505050565b6001600160a01b03811633146105c95760405162461bcd60e51b815260206004820152602f60248201527f416363657373436f6e74726f6c3a2063616e206f6e6c792072656e6f756e636560448201526e103937b632b9903337b91039b2b63360891b60648201526084015b60405180910390fd5b6105d38282610c7a565b5050565b6105e260003361090f565b6105fe5760405162461bcd60e51b81526004016105c090611261565b6000816001600160a01b03164760405160006040518083038185875af1925050503d806000811461064b576040519150601f19603f3d011682016040523d82523d6000602084013e610650565b606091505b50509050806105d35760405162461bcd60e51b81526020600482015260146024820152732330b4b632b2103a379039b2b7321022ba3432b960611b60448201526064016105c0565b6106a360003361090f565b6106bf5760405162461bcd60e51b81526004016105c090611261565b6001600160a01b038116600081815260026020526040808220805460ff19166001179055517fc3e089fc6227e049d0e41c3d7a383d57efe69c1955c5752f7e5a9b5f1f1130209190a250565b61071660003361090f565b6107325760405162461bcd60e51b81526004016105c090611261565b6001600160a01b038116600081815260026020526040808220805460ff19169055517f72977dad29432f655f11c2f0e72ef5124bb9ade7a512fb7a43a9f504df2234289190a250565b61078660003361090f565b6107a25760405162461bcd60e51b81526004016105c090611261565b6107ac828261052a565b67016345785d8a0000816001600160a01b03163110156105d3576000816001600160a01b031667016345785d8a000060405160006040518083038185875af1925050503d806000811461081b576040519150601f19603f3d011682016040523d82523d6000602084013e610820565b606091505b505090508061054f5760405162461bcd60e51b815260206004820152601c60248201527f436f6d6d756e6e697479206e65656473206d6f72652065746865722e0000000060448201526064016105c0565b61087c60003361090f565b6108985760405162461bcd60e51b81526004016105c090611261565b6001600160a01b03811660009081526003602052604090205460ff16156108ee576040516001600160a01b038216907f5a8e20baa8796ab20fa077fa27ed310aacb99e0f45a4fe14a7bd5af8f3fd6eaf90600090a25b6001600160a01b03166000908152600360205260409020805460ff19169055565b6000918252602082815260408084206001600160a01b0393909316845291905290205460ff1690565b6040516001600160a01b0382169032907fd5c80a2c58ac61253d52bedf9c2ab71759cbeff8bb3dfd1c20beba441f19dc7690600090a350565b6060816001600160401b0381111561098b5761098b611287565b6040519080825280602002602001820160405280156109be57816020015b60608152602001906001900390816109a95790505b50905060005b82811015610a5e57610a2e308585848181106109e2576109e261129d565b90506020028101906109f491906112b3565b8080601f016020809104026020016040519081016040528093929190818152602001838380828437600092019190915250610cdf92505050565b828281518110610a4057610a4061129d565b60200260200101819052508080610a5690611316565b9150506109c4565b5092915050565b610a7060003361090f565b610a8c5760405162461bcd60e51b81526004016105c090611261565b6040516301ffc9a760e01b81526001600160a01b038216906301ffc9a790610abe9062f718eb60e81b9060040161113c565b602060405180830381865afa158015610adb573d6000803e3d6000fd5b505050506040513d601f19601f82011682018060405250810190610aff919061132f565b610b4b5760405162461bcd60e51b815260206004820152601f60248201527f70726f6a65637420696e74657266616365206e6f7420737570706f727465640060448201526064016105c0565b6001600160a01b03811660009081526003602052604090205460ff16610ba0576040516001600160a01b038216907f8b16df08b6a45161a2accfac7e351325ff3df2aed213dd821e0be370c010831c90600090a25b6001600160a01b03166000908152600360205260409020805460ff19166001179055565b600082815260208190526040902060010154610bdf81610be9565b61054f8383610c7a565b610bf38133610d0b565b50565b610c00828261090f565b6105d3576000828152602081815260408083206001600160a01b03851684529091529020805460ff19166001179055610c363390565b6001600160a01b0316816001600160a01b0316837f2f8788117e7eff1d82e926ec794901d17c78024a50270940304540a733656f0d60405160405180910390a45050565b610c84828261090f565b156105d3576000828152602081815260408083206001600160a01b0385168085529252808320805460ff1916905551339285917ff6391f5c32d9c69d2a47ea670b442974b53935d1edc7fd64eb21e047a839171b9190a45050565b6060610d04838360405180606001604052806027815260200161141e60279139610d64565b9392505050565b610d15828261090f565b6105d357610d2281610ddc565b610d2d836020610dee565b604051602001610d3e929190611351565b60408051601f198184030181529082905262461bcd60e51b82526105c0916004016110e0565b6060600080856001600160a01b031685604051610d8191906113c0565b600060405180830381855af49150503d8060008114610dbc576040519150601f19603f3d011682016040523d82523d6000602084013e610dc1565b606091505b5091509150610dd286838387610f89565b9695505050505050565b606061048a6001600160a01b03831660145b60606000610dfd8360026113dc565b610e089060026113f3565b6001600160401b03811115610e1f57610e1f611287565b6040519080825280601f01601f191660200182016040528015610e49576020820181803683370190505b509050600360fc1b81600081518110610e6457610e6461129d565b60200101906001600160f81b031916908160001a905350600f60fb1b81600181518110610e9357610e9361129d565b60200101906001600160f81b031916908160001a9053506000610eb78460026113dc565b610ec29060016113f3565b90505b6001811115610f3a576f181899199a1a9b1b9c1cb0b131b232b360811b85600f1660108110610ef657610ef661129d565b1a60f81b828281518110610f0c57610f0c61129d565b60200101906001600160f81b031916908160001a90535060049490941c93610f3381611406565b9050610ec5565b508315610d045760405162461bcd60e51b815260206004820181905260248201527f537472696e67733a20686578206c656e67746820696e73756666696369656e7460448201526064016105c0565b60608315610ff8578251600003610ff1576001600160a01b0385163b610ff15760405162461bcd60e51b815260206004820152601d60248201527f416464726573733a2063616c6c20746f206e6f6e2d636f6e747261637400000060448201526064016105c0565b5081611002565b611002838361100a565b949350505050565b81511561101a5781518083602001fd5b8060405162461bcd60e51b81526004016105c091906110e0565b60006020828403121561104657600080fd5b81356001600160e01b031981168114610d0457600080fd5b6001600160a01b0381168114610bf357600080fd5b60006020828403121561108557600080fd5b8135610d048161105e565b60005b838110156110ab578181015183820152602001611093565b50506000910152565b600081518084526110cc816020860160208601611090565b601f01601f19169290920160200192915050565b602081526000610d0460208301846110b4565b60006020828403121561110557600080fd5b5035919050565b6000806040838503121561111f57600080fd5b8235915060208301356111318161105e565b809150509250929050565b6001600160e01b031991909116815260200190565b6000806020838503121561116457600080fd5b82356001600160401b038082111561117b57600080fd5b818501915085601f83011261118f57600080fd5b81358181111561119e57600080fd5b8660208260051b85010111156111b357600080fd5b60209290920196919550909350505050565b6000602080830181845280855180835260408601915060408160051b870101925083870160005b8281101561121a57603f198886030184526112088583516110b4565b945092850192908501906001016111ec565b5092979650505050505050565b600181811c9082168061123b57607f821691505b60208210810361125b57634e487b7160e01b600052602260045260246000fd5b50919050565b6020808252600c908201526b2737ba1030b71030b236b4b760a11b604082015260600190565b634e487b7160e01b600052604160045260246000fd5b634e487b7160e01b600052603260045260246000fd5b6000808335601e198436030181126112ca57600080fd5b8301803591506001600160401b038211156112e457600080fd5b6020019150368190038213156112f957600080fd5b9250929050565b634e487b7160e01b600052601160045260246000fd5b60006001820161132857611328611300565b5060010190565b60006020828403121561134157600080fd5b81518015158114610d0457600080fd5b76020b1b1b2b9b9a1b7b73a3937b61d1030b1b1b7bab73a1604d1b815260008351611383816017850160208801611090565b7001034b99036b4b9b9b4b733903937b6329607d1b60179184019182015283516113b4816028840160208801611090565b01602801949350505050565b600082516113d2818460208701611090565b9190910192915050565b808202811582820484141761048a5761048a611300565b8082018082111561048a5761048a611300565b60008161141557611415611300565b50600019019056fe416464726573733a206c6f772d6c6576656c2064656c65676174652063616c6c206661696c6564a2646970667358221220836670f972ef6f3a95f06e6c40f45b0a1f6aaf80eb4eab4588c3e5cb0876a1c764736f6c63430008110033",
  "linkReferences": {},
  "deployedLinkReferences": {}
}