{
  "_format": "hh-sol-artifact-1",
  "contractName": "RahatCommunity",
  "sourceName": "src/contracts/RahatCommunity.sol",
  "abi": [
    {
      "inputs": [
        {
          "internalType": "string",
          "name": "_name",
          "type": "string"
        },
        {
          "internalType": "address",
          "name": "_admin",
          "type": "address"
        }
      ],
      "stateMutability": "nonpayable",
      "type": "constructor"
    },
    {
      "anonymous": false,
      "inputs": [
        {
          "indexed": true,
          "internalType": "address",
          "name": "",
          "type": "address"
        }
      ],
      "name": "BeneficiaryAdded",
      "type": "event"
    },
    {
      "anonymous": false,
      "inputs": [
        {
          "indexed": true,
          "internalType": "address",
          "name": "",
          "type": "address"
        }
      ],
      "name": "BeneficiaryRemoved",
      "type": "event"
    },
    {
      "anonymous": false,
      "inputs": [
        {
          "indexed": true,
          "internalType": "address",
          "name": "requestor",
          "type": "address"
        },
        {
          "indexed": true,
          "internalType": "address",
          "name": "project",
          "type": "address"
        }
      ],
      "name": "ProjectApprovalRequest",
      "type": "event"
    },
    {
      "anonymous": false,
      "inputs": [
        {
          "indexed": true,
          "internalType": "address",
          "name": "",
          "type": "address"
        }
      ],
      "name": "ProjectApproved",
      "type": "event"
    },
    {
      "anonymous": false,
      "inputs": [
        {
          "indexed": true,
          "internalType": "address",
          "name": "",
          "type": "address"
        }
      ],
      "name": "ProjectRevoked",
      "type": "event"
    },
    {
      "anonymous": false,
      "inputs": [
        {
          "indexed": true,
          "internalType": "bytes32",
          "name": "role",
          "type": "bytes32"
        },
        {
          "indexed": true,
          "internalType": "bytes32",
          "name": "previousAdminRole",
          "type": "bytes32"
        },
        {
          "indexed": true,
          "internalType": "bytes32",
          "name": "newAdminRole",
          "type": "bytes32"
        }
      ],
      "name": "RoleAdminChanged",
      "type": "event"
    },
    {
      "anonymous": false,
      "inputs": [
        {
          "indexed": true,
          "internalType": "bytes32",
          "name": "role",
          "type": "bytes32"
        },
        {
          "indexed": true,
          "internalType": "address",
          "name": "account",
          "type": "address"
        },
        {
          "indexed": true,
          "internalType": "address",
          "name": "sender",
          "type": "address"
        }
      ],
      "name": "RoleGranted",
      "type": "event"
    },
    {
      "anonymous": false,
      "inputs": [
        {
          "indexed": true,
          "internalType": "bytes32",
          "name": "role",
          "type": "bytes32"
        },
        {
          "indexed": true,
          "internalType": "address",
          "name": "account",
          "type": "address"
        },
        {
          "indexed": true,
          "internalType": "address",
          "name": "sender",
          "type": "address"
        }
      ],
      "name": "RoleRevoked",
      "type": "event"
    },
    {
      "inputs": [],
      "name": "DEFAULT_ADMIN_ROLE",
      "outputs": [
        {
          "internalType": "bytes32",
          "name": "",
          "type": "bytes32"
        }
      ],
      "stateMutability": "view",
      "type": "function"
    },
    {
      "inputs": [],
      "name": "IID_RAHAT_PROJECT",
      "outputs": [
        {
          "internalType": "bytes4",
          "name": "",
          "type": "bytes4"
        }
      ],
      "stateMutability": "view",
      "type": "function"
    },
    {
      "inputs": [],
      "name": "VENDOR_ROLE",
      "outputs": [
        {
          "internalType": "bytes32",
          "name": "",
          "type": "bytes32"
        }
      ],
      "stateMutability": "view",
      "type": "function"
    },
    {
      "inputs": [
        {
          "internalType": "address",
          "name": "_address",
          "type": "address"
        }
      ],
      "name": "addBeneficiary",
      "outputs": [],
      "stateMutability": "nonpayable",
      "type": "function"
    },
    {
      "inputs": [
        {
          "internalType": "address",
          "name": "_projectAddress",
          "type": "address"
        }
      ],
      "name": "approveProject",
      "outputs": [],
      "stateMutability": "nonpayable",
      "type": "function"
    },
    {
      "inputs": [
        {
          "internalType": "bytes32",
          "name": "role",
          "type": "bytes32"
        }
      ],
      "name": "getRoleAdmin",
      "outputs": [
        {
          "internalType": "bytes32",
          "name": "",
          "type": "bytes32"
        }
      ],
      "stateMutability": "view",
      "type": "function"
    },
    {
      "inputs": [
        {
          "internalType": "bytes32",
          "name": "role",
          "type": "bytes32"
        },
        {
          "internalType": "address",
          "name": "account",
          "type": "address"
        }
      ],
      "name": "grantRole",
      "outputs": [],
      "stateMutability": "nonpayable",
      "type": "function"
    },
    {
      "inputs": [
        {
          "internalType": "bytes32",
          "name": "role",
          "type": "bytes32"
        },
        {
          "internalType": "address",
          "name": "account",
          "type": "address"
        }
      ],
      "name": "hasRole",
      "outputs": [
        {
          "internalType": "bool",
          "name": "",
          "type": "bool"
        }
      ],
      "stateMutability": "view",
      "type": "function"
    },
    {
      "inputs": [
        {
          "internalType": "address",
          "name": "_address",
          "type": "address"
        }
      ],
      "name": "isAdmin",
      "outputs": [
        {
          "internalType": "bool",
          "name": "",
          "type": "bool"
        }
      ],
      "stateMutability": "view",
      "type": "function"
    },
    {
      "inputs": [
        {
          "internalType": "address",
          "name": "",
          "type": "address"
        }
      ],
      "name": "isBeneficiary",
      "outputs": [
        {
          "internalType": "bool",
          "name": "",
          "type": "bool"
        }
      ],
      "stateMutability": "view",
      "type": "function"
    },
    {
      "inputs": [
        {
          "internalType": "address",
          "name": "",
          "type": "address"
        }
      ],
      "name": "isProject",
      "outputs": [
        {
          "internalType": "bool",
          "name": "",
          "type": "bool"
        }
      ],
      "stateMutability": "view",
      "type": "function"
    },
    {
      "inputs": [
        {
          "internalType": "bytes[]",
          "name": "data",
          "type": "bytes[]"
        }
      ],
      "name": "multicall",
      "outputs": [
        {
          "internalType": "bytes[]",
          "name": "results",
          "type": "bytes[]"
        }
      ],
      "stateMutability": "nonpayable",
      "type": "function"
    },
    {
      "inputs": [],
      "name": "name",
      "outputs": [
        {
          "internalType": "string",
          "name": "",
          "type": "string"
        }
      ],
      "stateMutability": "view",
      "type": "function"
    },
    {
      "inputs": [
        {
          "internalType": "address",
          "name": "_address",
          "type": "address"
        }
      ],
      "name": "removeBeneficiary",
      "outputs": [],
      "stateMutability": "nonpayable",
      "type": "function"
    },
    {
      "inputs": [
        {
          "internalType": "bytes32",
          "name": "role",
          "type": "bytes32"
        },
        {
          "internalType": "address",
          "name": "account",
          "type": "address"
        }
      ],
      "name": "renounceRole",
      "outputs": [],
      "stateMutability": "nonpayable",
      "type": "function"
    },
    {
      "inputs": [
        {
          "internalType": "address",
          "name": "_projectAddress",
          "type": "address"
        }
      ],
      "name": "requestProjectApproval",
      "outputs": [],
      "stateMutability": "nonpayable",
      "type": "function"
    },
    {
      "inputs": [
        {
          "internalType": "address",
          "name": "_projectAddress",
          "type": "address"
        }
      ],
      "name": "revokeProject",
      "outputs": [],
      "stateMutability": "nonpayable",
      "type": "function"
    },
    {
      "inputs": [
        {
          "internalType": "bytes32",
          "name": "role",
          "type": "bytes32"
        },
        {
          "internalType": "address",
          "name": "account",
          "type": "address"
        }
      ],
      "name": "revokeRole",
      "outputs": [],
      "stateMutability": "nonpayable",
      "type": "function"
    },
    {
      "inputs": [
        {
          "internalType": "bytes4",
          "name": "interfaceId",
          "type": "bytes4"
        }
      ],
      "name": "supportsInterface",
      "outputs": [
        {
          "internalType": "bool",
          "name": "",
          "type": "bool"
        }
      ],
      "stateMutability": "view",
      "type": "function"
    }
  ],
  "bytecode": "0x60806040523480156200001157600080fd5b5060405162001545380380620015458339810160408190526200003491620001a4565b6200004160008262000085565b6200006e7f0aaf57387812c7f832412470a57567b5648a930069be49aa9c98d04f88520d34600062000126565b60016200007c83826200031b565b505050620003e7565b6000828152602081815260408083206001600160a01b038516845290915290205460ff1662000122576000828152602081815260408083206001600160a01b03851684529091529020805460ff19166001179055620000e13390565b6001600160a01b0316816001600160a01b0316837f2f8788117e7eff1d82e926ec794901d17c78024a50270940304540a733656f0d60405160405180910390a45b5050565b600082815260208190526040808220600101805490849055905190918391839186917fbd79b86ffe0ab8e8776151514217cd7cacd52c909f66475c3af44e129f0b00ff9190a4505050565b634e487b7160e01b600052604160045260246000fd5b80516001600160a01b03811681146200019f57600080fd5b919050565b60008060408385031215620001b857600080fd5b82516001600160401b0380821115620001d057600080fd5b818501915085601f830112620001e557600080fd5b815181811115620001fa57620001fa62000171565b604051601f8201601f19908116603f0116810190838211818310171562000225576200022562000171565b816040528281526020935088848487010111156200024257600080fd5b600091505b8282101562000266578482018401518183018501529083019062000247565b60008484830101528096505050506200028181860162000187565b925050509250929050565b600181811c90821680620002a157607f821691505b602082108103620002c257634e487b7160e01b600052602260045260246000fd5b50919050565b601f8211156200031657600081815260208120601f850160051c81016020861015620002f15750805b601f850160051c820191505b818110156200031257828155600101620002fd565b5050505b505050565b81516001600160401b0381111562000337576200033762000171565b6200034f816200034884546200028c565b84620002c8565b602080601f8311600181146200038757600084156200036e5750858301515b600019600386901b1c1916600185901b17855562000312565b600085815260208120601f198616915b82811015620003b85788860151825594840194600190910190840162000397565b5085821015620003d75787850151600019600388901b60f8161c191681555b5050505050600190811b01905550565b61114e80620003f76000396000f3fe608060405234801561001057600080fd5b50600436106101015760003560e01c806359633a1c1161009d57806359633a1c146101ff5780638494b3281461021257806391d1485414610225578063926a694d146102385780639d19b2261461025f578063a217fddf14610282578063a434b1a61461028a578063ac9650d81461029d578063be261752146102bd578063d547741f146102d057600080fd5b806301ffc9a71461010657806305c814081461012e57806306fdde0314610151578063248a9ca31461016657806324d7806c146101975780632f2ff15d146101aa57806336568abe146101bf5780634fe21571146101d25780635926651d146101ec575b600080fd5b610119610114366004610d07565b6102e3565b60405190151581526020015b60405180910390f35b61011961013c366004610d4d565b60036020526000908152604090205460ff1681565b61015961031a565b6040516101259190610db8565b610189610174366004610dcb565b60009081526020819052604090206001015490565b604051908152602001610125565b6101196101a5366004610d4d565b6103a8565b6101bd6101b8366004610de4565b6103b4565b005b6101bd6101cd366004610de4565b6103de565b6101df62f718eb60e81b81565b6040516101259190610e10565b6101bd6101fa366004610d4d565b610461565b6101bd61020d366004610d4d565b6104d4565b6101bd610220366004610d4d565b610544565b610119610233366004610de4565b6105e2565b6101897f0aaf57387812c7f832412470a57567b5648a930069be49aa9c98d04f88520d3481565b61011961026d366004610d4d565b60026020526000908152604090205460ff1681565b610189600081565b6101bd610298366004610d4d565b61060b565b6102b06102ab366004610e25565b610644565b6040516101259190610e99565b6101bd6102cb366004610d4d565b610738565b6101bd6102de366004610de4565b610897565b60006001600160e01b03198216637965db0b60e01b148061031457506301ffc9a760e01b6001600160e01b03198316145b92915050565b6001805461032790610efb565b80601f016020809104026020016040519081016040528092919081815260200182805461035390610efb565b80156103a05780601f10610375576101008083540402835291602001916103a0565b820191906000526020600020905b81548152906001019060200180831161038357829003601f168201915b505050505081565b600061031481836105e2565b6000828152602081905260409020600101546103cf816108bc565b6103d983836108c9565b505050565b6001600160a01b03811633146104535760405162461bcd60e51b815260206004820152602f60248201527f416363657373436f6e74726f6c3a2063616e206f6e6c792072656e6f756e636560448201526e103937b632b9903337b91039b2b63360891b60648201526084015b60405180910390fd5b61045d828261094d565b5050565b61046c6000336105e2565b6104885760405162461bcd60e51b815260040161044a90610f35565b6001600160a01b038116600081815260026020526040808220805460ff19166001179055517fc3e089fc6227e049d0e41c3d7a383d57efe69c1955c5752f7e5a9b5f1f1130209190a250565b6104df6000336105e2565b6104fb5760405162461bcd60e51b815260040161044a90610f35565b6001600160a01b038116600081815260026020526040808220805460ff19169055517f72977dad29432f655f11c2f0e72ef5124bb9ade7a512fb7a43a9f504df2234289190a250565b61054f6000336105e2565b61056b5760405162461bcd60e51b815260040161044a90610f35565b6001600160a01b03811660009081526003602052604090205460ff16156105c1576040516001600160a01b038216907f5a8e20baa8796ab20fa077fa27ed310aacb99e0f45a4fe14a7bd5af8f3fd6eaf90600090a25b6001600160a01b03166000908152600360205260409020805460ff19169055565b6000918252602082815260408084206001600160a01b0393909316845291905290205460ff1690565b6040516001600160a01b0382169032907fd5c80a2c58ac61253d52bedf9c2ab71759cbeff8bb3dfd1c20beba441f19dc7690600090a350565b6060816001600160401b0381111561065e5761065e610f5b565b60405190808252806020026020018201604052801561069157816020015b606081526020019060019003908161067c5790505b50905060005b8281101561073157610701308585848181106106b5576106b5610f71565b90506020028101906106c79190610f87565b8080601f0160208091040260200160405190810160405280939291908181526020018383808284376000920191909152506109b292505050565b82828151811061071357610713610f71565b6020026020010181905250808061072990610fea565b915050610697565b5092915050565b6107436000336105e2565b61075f5760405162461bcd60e51b815260040161044a90610f35565b6040516301ffc9a760e01b81526001600160a01b038216906301ffc9a7906107919062f718eb60e81b90600401610e10565b602060405180830381865afa1580156107ae573d6000803e3d6000fd5b505050506040513d601f19601f820116820180604052508101906107d29190611003565b61081e5760405162461bcd60e51b815260206004820152601f60248201527f70726f6a65637420696e74657266616365206e6f7420737570706f7274656400604482015260640161044a565b6001600160a01b03811660009081526003602052604090205460ff16610873576040516001600160a01b038216907f8b16df08b6a45161a2accfac7e351325ff3df2aed213dd821e0be370c010831c90600090a25b6001600160a01b03166000908152600360205260409020805460ff19166001179055565b6000828152602081905260409020600101546108b2816108bc565b6103d9838361094d565b6108c681336109de565b50565b6108d382826105e2565b61045d576000828152602081815260408083206001600160a01b03851684529091529020805460ff191660011790556109093390565b6001600160a01b0316816001600160a01b0316837f2f8788117e7eff1d82e926ec794901d17c78024a50270940304540a733656f0d60405160405180910390a45050565b61095782826105e2565b1561045d576000828152602081815260408083206001600160a01b0385168085529252808320805460ff1916905551339285917ff6391f5c32d9c69d2a47ea670b442974b53935d1edc7fd64eb21e047a839171b9190a45050565b60606109d783836040518060600160405280602781526020016110f260279139610a37565b9392505050565b6109e882826105e2565b61045d576109f581610aaf565b610a00836020610ac1565b604051602001610a11929190611025565b60408051601f198184030181529082905262461bcd60e51b825261044a91600401610db8565b6060600080856001600160a01b031685604051610a549190611094565b600060405180830381855af49150503d8060008114610a8f576040519150601f19603f3d011682016040523d82523d6000602084013e610a94565b606091505b5091509150610aa586838387610c5c565b9695505050505050565b60606103146001600160a01b03831660145b60606000610ad08360026110b0565b610adb9060026110c7565b6001600160401b03811115610af257610af2610f5b565b6040519080825280601f01601f191660200182016040528015610b1c576020820181803683370190505b509050600360fc1b81600081518110610b3757610b37610f71565b60200101906001600160f81b031916908160001a905350600f60fb1b81600181518110610b6657610b66610f71565b60200101906001600160f81b031916908160001a9053506000610b8a8460026110b0565b610b959060016110c7565b90505b6001811115610c0d576f181899199a1a9b1b9c1cb0b131b232b360811b85600f1660108110610bc957610bc9610f71565b1a60f81b828281518110610bdf57610bdf610f71565b60200101906001600160f81b031916908160001a90535060049490941c93610c06816110da565b9050610b98565b5083156109d75760405162461bcd60e51b815260206004820181905260248201527f537472696e67733a20686578206c656e67746820696e73756666696369656e74604482015260640161044a565b60608315610ccb578251600003610cc4576001600160a01b0385163b610cc45760405162461bcd60e51b815260206004820152601d60248201527f416464726573733a2063616c6c20746f206e6f6e2d636f6e7472616374000000604482015260640161044a565b5081610cd5565b610cd58383610cdd565b949350505050565b815115610ced5781518083602001fd5b8060405162461bcd60e51b815260040161044a9190610db8565b600060208284031215610d1957600080fd5b81356001600160e01b0319811681146109d757600080fd5b80356001600160a01b0381168114610d4857600080fd5b919050565b600060208284031215610d5f57600080fd5b6109d782610d31565b60005b83811015610d83578181015183820152602001610d6b565b50506000910152565b60008151808452610da4816020860160208601610d68565b601f01601f19169290920160200192915050565b6020815260006109d76020830184610d8c565b600060208284031215610ddd57600080fd5b5035919050565b60008060408385031215610df757600080fd5b82359150610e0760208401610d31565b90509250929050565b6001600160e01b031991909116815260200190565b60008060208385031215610e3857600080fd5b82356001600160401b0380821115610e4f57600080fd5b818501915085601f830112610e6357600080fd5b813581811115610e7257600080fd5b8660208260051b8501011115610e8757600080fd5b60209290920196919550909350505050565b6000602080830181845280855180835260408601915060408160051b870101925083870160005b82811015610eee57603f19888603018452610edc858351610d8c565b94509285019290850190600101610ec0565b5092979650505050505050565b600181811c90821680610f0f57607f821691505b602082108103610f2f57634e487b7160e01b600052602260045260246000fd5b50919050565b6020808252600c908201526b2737ba1030b71030b236b4b760a11b604082015260600190565b634e487b7160e01b600052604160045260246000fd5b634e487b7160e01b600052603260045260246000fd5b6000808335601e19843603018112610f9e57600080fd5b8301803591506001600160401b03821115610fb857600080fd5b602001915036819003821315610fcd57600080fd5b9250929050565b634e487b7160e01b600052601160045260246000fd5b600060018201610ffc57610ffc610fd4565b5060010190565b60006020828403121561101557600080fd5b815180151581146109d757600080fd5b76020b1b1b2b9b9a1b7b73a3937b61d1030b1b1b7bab73a1604d1b815260008351611057816017850160208801610d68565b7001034b99036b4b9b9b4b733903937b6329607d1b6017918401918201528351611088816028840160208801610d68565b01602801949350505050565b600082516110a6818460208701610d68565b9190910192915050565b808202811582820484141761031457610314610fd4565b8082018082111561031457610314610fd4565b6000816110e9576110e9610fd4565b50600019019056fe416464726573733a206c6f772d6c6576656c2064656c65676174652063616c6c206661696c6564a2646970667358221220bd7a85812d69f37a45e203a07be91ed7543b4a06ec17c4bf360b647f73552b9664736f6c63430008110033",
  "linkReferences": {},
  "deployedLinkReferences": {}
}