{
  "_format": "hh-sol-artifact-1",
  "contractName": "RahatToken",
  "sourceName": "src/contracts/RahatToken.sol",
  "abi": [
    {
      "inputs": [
        {
          "internalType": "string",
          "name": "_name",
          "type": "string"
        },
        {
          "internalType": "string",
          "name": "_symbol",
          "type": "string"
        },
        {
          "internalType": "address",
          "name": "_admin",
          "type": "address"
        },
        {
          "internalType": "uint8",
          "name": "_decimals",
          "type": "uint8"
        }
      ],
      "stateMutability": "nonpayable",
      "type": "constructor"
    },
    {
      "anonymous": false,
      "inputs": [
        {
          "indexed": true,
          "internalType": "address",
          "name": "owner",
          "type": "address"
        },
        {
          "indexed": true,
          "internalType": "address",
          "name": "spender",
          "type": "address"
        },
        {
          "indexed": false,
          "internalType": "uint256",
          "name": "value",
          "type": "uint256"
        }
      ],
      "name": "Approval",
      "type": "event"
    },
    {
      "anonymous": false,
      "inputs": [
        {
          "indexed": true,
          "internalType": "address",
          "name": "",
          "type": "address"
        }
      ],
      "name": "OwnerAdded",
      "type": "event"
    },
    {
      "anonymous": false,
      "inputs": [
        {
          "indexed": true,
          "internalType": "address",
          "name": "",
          "type": "address"
        }
      ],
      "name": "OwnerRemoved",
      "type": "event"
    },
    {
      "anonymous": false,
      "inputs": [
        {
          "indexed": false,
          "internalType": "uint256",
          "name": "id",
          "type": "uint256"
        }
      ],
      "name": "Snapshot",
      "type": "event"
    },
    {
      "anonymous": false,
      "inputs": [
        {
          "indexed": true,
          "internalType": "address",
          "name": "from",
          "type": "address"
        },
        {
          "indexed": true,
          "internalType": "address",
          "name": "to",
          "type": "address"
        },
        {
          "indexed": false,
          "internalType": "uint256",
          "name": "value",
          "type": "uint256"
        }
      ],
      "name": "Transfer",
      "type": "event"
    },
    {
      "inputs": [
        {
          "internalType": "address",
          "name": "_address",
          "type": "address"
        }
      ],
      "name": "addOwner",
      "outputs": [
        {
          "internalType": "bool",
          "name": "success",
          "type": "bool"
        }
      ],
      "stateMutability": "nonpayable",
      "type": "function"
    },
    {
      "inputs": [
        {
          "internalType": "address",
          "name": "owner",
          "type": "address"
        },
        {
          "internalType": "address",
          "name": "spender",
          "type": "address"
        }
      ],
      "name": "allowance",
      "outputs": [
        {
          "internalType": "uint256",
          "name": "",
          "type": "uint256"
        }
      ],
      "stateMutability": "view",
      "type": "function"
    },
    {
      "inputs": [
        {
          "internalType": "address",
          "name": "spender",
          "type": "address"
        },
        {
          "internalType": "uint256",
          "name": "amount",
          "type": "uint256"
        }
      ],
      "name": "approve",
      "outputs": [
        {
          "internalType": "bool",
          "name": "",
          "type": "bool"
        }
      ],
      "stateMutability": "nonpayable",
      "type": "function"
    },
    {
      "inputs": [
        {
          "internalType": "address",
          "name": "account",
          "type": "address"
        }
      ],
      "name": "balanceOf",
      "outputs": [
        {
          "internalType": "uint256",
          "name": "",
          "type": "uint256"
        }
      ],
      "stateMutability": "view",
      "type": "function"
    },
    {
      "inputs": [
        {
          "internalType": "address",
          "name": "account",
          "type": "address"
        },
        {
          "internalType": "uint256",
          "name": "snapshotId",
          "type": "uint256"
        }
      ],
      "name": "balanceOfAt",
      "outputs": [
        {
          "internalType": "uint256",
          "name": "",
          "type": "uint256"
        }
      ],
      "stateMutability": "view",
      "type": "function"
    },
    {
      "inputs": [
        {
          "internalType": "uint256",
          "name": "amount",
          "type": "uint256"
        }
      ],
      "name": "burn",
      "outputs": [],
      "stateMutability": "nonpayable",
      "type": "function"
    },
    {
      "inputs": [
        {
          "internalType": "address",
          "name": "account",
          "type": "address"
        },
        {
          "internalType": "uint256",
          "name": "amount",
          "type": "uint256"
        }
      ],
      "name": "burnFrom",
      "outputs": [],
      "stateMutability": "nonpayable",
      "type": "function"
    },
    {
      "inputs": [],
      "name": "decimals",
      "outputs": [
        {
          "internalType": "uint8",
          "name": "",
          "type": "uint8"
        }
      ],
      "stateMutability": "view",
      "type": "function"
    },
    {
      "inputs": [
        {
          "internalType": "address",
          "name": "spender",
          "type": "address"
        },
        {
          "internalType": "uint256",
          "name": "subtractedValue",
          "type": "uint256"
        }
      ],
      "name": "decreaseAllowance",
      "outputs": [
        {
          "internalType": "bool",
          "name": "",
          "type": "bool"
        }
      ],
      "stateMutability": "nonpayable",
      "type": "function"
    },
    {
      "inputs": [
        {
          "internalType": "address",
          "name": "spender",
          "type": "address"
        },
        {
          "internalType": "uint256",
          "name": "addedValue",
          "type": "uint256"
        }
      ],
      "name": "increaseAllowance",
      "outputs": [
        {
          "internalType": "bool",
          "name": "",
          "type": "bool"
        }
      ],
      "stateMutability": "nonpayable",
      "type": "function"
    },
    {
      "inputs": [
        {
          "internalType": "address",
          "name": "_address",
          "type": "address"
        }
      ],
      "name": "isOwner",
      "outputs": [
        {
          "internalType": "bool",
          "name": "",
          "type": "bool"
        }
      ],
      "stateMutability": "view",
      "type": "function"
    },
    {
      "inputs": [],
      "name": "listOwners",
      "outputs": [
        {
          "internalType": "address[]",
          "name": "",
          "type": "address[]"
        }
      ],
      "stateMutability": "view",
      "type": "function"
    },
    {
      "inputs": [
        {
          "internalType": "address",
          "name": "_address",
          "type": "address"
        },
        {
          "internalType": "uint256",
          "name": "_amount",
          "type": "uint256"
        }
      ],
      "name": "mint",
      "outputs": [
        {
          "internalType": "uint256",
          "name": "",
          "type": "uint256"
        }
      ],
      "stateMutability": "nonpayable",
      "type": "function"
    },
    {
      "inputs": [
        {
          "internalType": "bytes[]",
          "name": "data",
          "type": "bytes[]"
        }
      ],
      "name": "multicall",
      "outputs": [
        {
          "internalType": "bytes[]",
          "name": "results",
          "type": "bytes[]"
        }
      ],
      "stateMutability": "nonpayable",
      "type": "function"
    },
    {
      "inputs": [],
      "name": "name",
      "outputs": [
        {
          "internalType": "string",
          "name": "",
          "type": "string"
        }
      ],
      "stateMutability": "view",
      "type": "function"
    },
    {
      "inputs": [],
      "name": "ownerCount",
      "outputs": [
        {
          "internalType": "uint256",
          "name": "",
          "type": "uint256"
        }
      ],
      "stateMutability": "view",
      "type": "function"
    },
    {
      "inputs": [
        {
          "internalType": "address",
          "name": "_address",
          "type": "address"
        }
      ],
      "name": "removeOwner",
      "outputs": [
        {
          "internalType": "bool",
          "name": "success",
          "type": "bool"
        }
      ],
      "stateMutability": "nonpayable",
      "type": "function"
    },
    {
      "inputs": [],
      "name": "symbol",
      "outputs": [
        {
          "internalType": "string",
          "name": "",
          "type": "string"
        }
      ],
      "stateMutability": "view",
      "type": "function"
    },
    {
      "inputs": [],
      "name": "totalSupply",
      "outputs": [
        {
          "internalType": "uint256",
          "name": "",
          "type": "uint256"
        }
      ],
      "stateMutability": "view",
      "type": "function"
    },
    {
      "inputs": [
        {
          "internalType": "uint256",
          "name": "snapshotId",
          "type": "uint256"
        }
      ],
      "name": "totalSupplyAt",
      "outputs": [
        {
          "internalType": "uint256",
          "name": "",
          "type": "uint256"
        }
      ],
      "stateMutability": "view",
      "type": "function"
    },
    {
      "inputs": [
        {
          "internalType": "address",
          "name": "to",
          "type": "address"
        },
        {
          "internalType": "uint256",
          "name": "amount",
          "type": "uint256"
        }
      ],
      "name": "transfer",
      "outputs": [
        {
          "internalType": "bool",
          "name": "",
          "type": "bool"
        }
      ],
      "stateMutability": "nonpayable",
      "type": "function"
    },
    {
      "inputs": [
        {
          "internalType": "address",
          "name": "from",
          "type": "address"
        },
        {
          "internalType": "address",
          "name": "to",
          "type": "address"
        },
        {
          "internalType": "uint256",
          "name": "amount",
          "type": "uint256"
        }
      ],
      "name": "transferFrom",
      "outputs": [
        {
          "internalType": "bool",
          "name": "",
          "type": "bool"
        }
      ],
      "stateMutability": "nonpayable",
      "type": "function"
    }
  ],
  "bytecode": "0x608060405260326000553480156200001657600080fd5b5060405162001ca338038062001ca3833981016040819052620000399162000288565b83836006620000498382620003bd565b506007620000588282620003bd565b5050506200006c826200008b60201b60201c565b50600c805460ff191660ff929092169190911790555062000489915050565b60008054620000a660016200014260201b620007811760201c565b1115620000eb5760405162461bcd60e51b815260206004820152600f60248201526e1bdddb995c9cc8195e18d959591959608a1b604482015260640160405180910390fd5b620001068260016200015360201b6200078b1790919060201c565b6040519091506001600160a01b038316907f994a936646fe87ffe4f1e469d3d6aa417d6b855598397f323de5b449f765f0c390600090a2919050565b60006200014d825490565b92915050565b60006200016a836001600160a01b03841662000171565b9392505050565b6000818152600183016020526040812054620001ba575081546001818101845560008481526020808220909301849055845484825282860190935260409020919091556200014d565b5060006200014d565b634e487b7160e01b600052604160045260246000fd5b600082601f830112620001eb57600080fd5b81516001600160401b0380821115620002085762000208620001c3565b604051601f8301601f19908116603f01168101908282118183101715620002335762000233620001c3565b816040528381526020925086838588010111156200025057600080fd5b600091505b8382101562000274578582018301518183018401529082019062000255565b600093810190920192909252949350505050565b600080600080608085870312156200029f57600080fd5b84516001600160401b0380821115620002b757600080fd5b620002c588838901620001d9565b95506020870151915080821115620002dc57600080fd5b50620002eb87828801620001d9565b604087015190945090506001600160a01b03811681146200030b57600080fd5b606086015190925060ff811681146200032357600080fd5b939692955090935050565b600181811c908216806200034357607f821691505b6020821081036200036457634e487b7160e01b600052602260045260246000fd5b50919050565b601f821115620003b857600081815260208120601f850160051c81016020861015620003935750805b601f850160051c820191505b81811015620003b4578281556001016200039f565b5050505b505050565b81516001600160401b03811115620003d957620003d9620001c3565b620003f181620003ea84546200032e565b846200036a565b602080601f831160018114620004295760008415620004105750858301515b600019600386901b1c1916600185901b178555620003b4565b600085815260208120601f198616915b828110156200045a5788860151825594840194600190910190840162000439565b5085821015620004795787850151600019600388901b60f8161c191681555b5050505050600190811b01905550565b61180a80620004996000396000f3fe608060405234801561001057600080fd5b50600436106101425760003560e01c80634ee2cd7e116100b8578063981b24d01161007c578063981b24d014610299578063a457c2d7146102ac578063a9059cbb146102bf578063ac9650d8146102d2578063dd62ed3e146102f2578063ed60c0fc1461030557600080fd5b80634ee2cd7e1461022f5780637065cb481461024257806370a082311461025557806379cc67901461027e57806395d89b411461029157600080fd5b806323b872dd1161010a57806323b872dd146101b95780632f54bf6e146101cc578063313ce567146101df57806339509351146101f457806340c10f191461020757806342966c681461021a57600080fd5b806306fdde0314610147578063095ea7b3146101655780630db0262214610188578063173825d91461019e57806318160ddd146101b1575b600080fd5b61014f61031a565b60405161015c91906113fb565b60405180910390f35b610178610173366004611425565b6103ac565b604051901515815260200161015c565b6101906103c6565b60405190815260200161015c565b6101786101ac36600461144f565b6103d7565b600554610190565b6101786101c736600461146a565b610450565b6101786101da36600461144f565b610474565b600c5460405160ff909116815260200161015c565b610178610202366004611425565b610481565b610190610215366004611425565b6104a3565b61022d6102283660046114a6565b6104dc565b005b61019061023d366004611425565b6104e9565b61017861025036600461144f565b610542565b61019061026336600461144f565b6001600160a01b031660009081526003602052604090205490565b61022d61028c366004611425565b610579565b61014f610592565b6101906102a73660046114a6565b6105a1565b6101786102ba366004611425565b6105cc565b6101786102cd366004611425565b610647565b6102e56102e03660046114bf565b610655565b60405161015c9190611534565b610190610300366004611596565b61074a565b61030d610775565b60405161015c91906115c9565b60606006805461032990611616565b80601f016020809104026020016040519081016040528092919081815260200182805461035590611616565b80156103a25780601f10610377576101008083540402835291602001916103a2565b820191906000526020600020905b81548152906001019060200180831161038557829003601f168201915b5050505050905090565b6000336103ba8185856107a7565b60019150505b92915050565b60006103d26001610781565b905090565b60006103e46001336108cc565b6104095760405162461bcd60e51b81526004016104009061164a565b60405180910390fd5b6104146001836108ee565b6040519091506001600160a01b038316907f58619076adf5bb0943d100ef88d52d7c3fd691b19d3a9071b555b651fbf418da90600090a2919050565b60003361045e858285610903565b61046985858561097d565b506001949350505050565b60006103c06001836108cc565b6000336103ba818585610494838361074a565b61049e91906116a7565b6107a7565b60006104b06001336108cc565b6104cc5760405162461bcd60e51b81526004016104009061164a565b6104d68383610b33565b50919050565b6104e63382610c00565b50565b6001600160a01b038216600090815260086020526040812081908190610510908590610d3d565b9150915081610537576001600160a01b038516600090815260036020526040902054610539565b805b95945050505050565b600061054f6001336108cc565b61056b5760405162461bcd60e51b81526004016104009061164a565b6103c082610e33565b919050565b610584823383610903565b61058e8282610c00565b5050565b60606007805461032990611616565b60008060006105b1846009610d3d565b91509150816105c2576005546105c4565b805b949350505050565b600033816105da828661074a565b90508381101561063a5760405162461bcd60e51b815260206004820152602560248201527f45524332303a2064656372656173656420616c6c6f77616e63652062656c6f77604482015264207a65726f60d81b6064820152608401610400565b61046982868684036107a7565b6000336103ba81858561097d565b60608167ffffffffffffffff811115610670576106706116ba565b6040519080825280602002602001820160405280156106a357816020015b606081526020019060019003908161068e5790505b50905060005b8281101561074357610713308585848181106106c7576106c76116d0565b90506020028101906106d991906116e6565b8080601f016020809104026020016040519081016040528093929190818152602001838380828437600092019190915250610ec892505050565b828281518110610725576107256116d0565b6020026020010181905250808061073b9061172d565b9150506106a9565b5092915050565b6001600160a01b03918216600090815260046020908152604080832093909416825291909152205490565b60606103d26001610eed565b60006103c0825490565b60006107a0836001600160a01b038416610efa565b9392505050565b6001600160a01b0383166108095760405162461bcd60e51b8152602060048201526024808201527f45524332303a20617070726f76652066726f6d20746865207a65726f206164646044820152637265737360e01b6064820152608401610400565b6001600160a01b03821661086a5760405162461bcd60e51b815260206004820152602260248201527f45524332303a20617070726f766520746f20746865207a65726f206164647265604482015261737360f01b6064820152608401610400565b6001600160a01b0383811660008181526004602090815260408083209487168084529482529182902085905590518481527f8c5be1e5ebec7d5bd14f71427d1e84f3dd0314c0f7b2291e5b200ac8c7c3b92591015b60405180910390a3505050565b6001600160a01b038116600090815260018301602052604081205415156107a0565b60006107a0836001600160a01b038416610f49565b600061090f848461074a565b90506000198114610977578181101561096a5760405162461bcd60e51b815260206004820152601d60248201527f45524332303a20696e73756666696369656e7420616c6c6f77616e63650000006044820152606401610400565b61097784848484036107a7565b50505050565b6001600160a01b0383166109e15760405162461bcd60e51b815260206004820152602560248201527f45524332303a207472616e736665722066726f6d20746865207a65726f206164604482015264647265737360d81b6064820152608401610400565b6001600160a01b038216610a435760405162461bcd60e51b815260206004820152602360248201527f45524332303a207472616e7366657220746f20746865207a65726f206164647260448201526265737360e81b6064820152608401610400565b610a4e83838361103c565b6001600160a01b03831660009081526003602052604090205481811015610ac65760405162461bcd60e51b815260206004820152602660248201527f45524332303a207472616e7366657220616d6f756e7420657863656564732062604482015265616c616e636560d01b6064820152608401610400565b6001600160a01b0380851660008181526003602052604080822086860390559286168082529083902080548601905591517fddf252ad1be2c89b69c2b068fc378daa952ba7f163c4a11628f55a4df523b3ef90610b269086815260200190565b60405180910390a3610977565b6001600160a01b038216610b895760405162461bcd60e51b815260206004820152601f60248201527f45524332303a206d696e7420746f20746865207a65726f2061646472657373006044820152606401610400565b610b956000838361103c565b8060056000828254610ba791906116a7565b90915550506001600160a01b0382166000818152600360209081526040808320805486019055518481527fddf252ad1be2c89b69c2b068fc378daa952ba7f163c4a11628f55a4df523b3ef910160405180910390a35050565b6001600160a01b038216610c605760405162461bcd60e51b815260206004820152602160248201527f45524332303a206275726e2066726f6d20746865207a65726f206164647265736044820152607360f81b6064820152608401610400565b610c6c8260008361103c565b6001600160a01b03821660009081526003602052604090205481811015610ce05760405162461bcd60e51b815260206004820152602260248201527f45524332303a206275726e20616d6f756e7420657863656564732062616c616e604482015261636560f01b6064820152608401610400565b6001600160a01b03831660008181526003602090815260408083208686039055600580548790039055518581529192917fddf252ad1be2c89b69c2b068fc378daa952ba7f163c4a11628f55a4df523b3ef91016108bf565b505050565b60008060008411610d895760405162461bcd60e51b815260206004820152601660248201527504552433230536e617073686f743a20696420697320360541b6044820152606401610400565b610d91611047565b841115610de05760405162461bcd60e51b815260206004820152601d60248201527f4552433230536e617073686f743a206e6f6e6578697374656e742069640000006044820152606401610400565b6000610dec8486611052565b84549091508103610e04576000809250925050610e2c565b6001846001018281548110610e1b57610e1b6116d0565b906000526020600020015492509250505b9250929050565b60008054610e416001610781565b1115610e815760405162461bcd60e51b815260206004820152600f60248201526e1bdddb995c9cc8195e18d959591959608a1b6044820152606401610400565b610e8c60018361078b565b6040519091506001600160a01b038316907f994a936646fe87ffe4f1e469d3d6aa417d6b855598397f323de5b449f765f0c390600090a2919050565b60606107a083836040518060600160405280602781526020016117ae602791396110ff565b606060006107a083611177565b6000818152600183016020526040812054610f41575081546001818101845560008481526020808220909301849055845484825282860190935260409020919091556103c0565b5060006103c0565b60008181526001830160205260408120548015611032576000610f6d600183611746565b8554909150600090610f8190600190611746565b9050818114610fe6576000866000018281548110610fa157610fa16116d0565b9060005260206000200154905080876000018481548110610fc457610fc46116d0565b6000918252602080832090910192909255918252600188019052604090208390555b8554869080610ff757610ff7611759565b6001900381819060005260206000200160009055905585600101600086815260200190815260200160002060009055600193505050506103c0565b60009150506103c0565b610d388383836111d3565b60006103d2600b5490565b81546000908103611065575060006103c0565b82546000905b808210156110b257600061107f838361121b565b6000878152602090209091508590820154111561109e578091506110ac565b6110a98160016116a7565b92505b5061106b565b6000821180156110de5750836110db866110cd600186611746565b600091825260209091200190565b54145b156110f7576110ee600183611746565b925050506103c0565b5090506103c0565b6060600080856001600160a01b03168560405161111c919061176f565b600060405180830381855af49150503d8060008114611157576040519150601f19603f3d011682016040523d82523d6000602084013e61115c565b606091505b509150915061116d86838387611236565b9695505050505050565b6060816000018054806020026020016040519081016040528092919081815260200182805480156111c757602002820191906000526020600020905b8154815260200190600101908083116111b3575b50505050509050919050565b6001600160a01b0383166111f2576111ea826112af565b610d386112e2565b6001600160a01b038216611209576111ea836112af565b611212836112af565b610d38826112af565b600061122a600284841861178b565b6107a0908484166116a7565b606083156112a557825160000361129e576001600160a01b0385163b61129e5760405162461bcd60e51b815260206004820152601d60248201527f416464726573733a2063616c6c20746f206e6f6e2d636f6e74726163740000006044820152606401610400565b50816105c4565b6105c483836112f2565b6001600160a01b03811660009081526008602090815260408083206003909252909120546104e6919061131c565b61131c565b6112f060096112dd60055490565b565b8151156113025781518083602001fd5b8060405162461bcd60e51b815260040161040091906113fb565b6000611326611047565b90508061133284611366565b1015610d38578254600180820185556000858152602080822090930193909355938401805494850181558252902090910155565b8054600090810361137957506000919050565b8154829061138990600190611746565b81548110611399576113996116d0565b90600052602060002001549050919050565b60005b838110156113c65781810151838201526020016113ae565b50506000910152565b600081518084526113e78160208601602086016113ab565b601f01601f19169290920160200192915050565b6020815260006107a060208301846113cf565b80356001600160a01b038116811461057457600080fd5b6000806040838503121561143857600080fd5b6114418361140e565b946020939093013593505050565b60006020828403121561146157600080fd5b6107a08261140e565b60008060006060848603121561147f57600080fd5b6114888461140e565b92506114966020850161140e565b9150604084013590509250925092565b6000602082840312156114b857600080fd5b5035919050565b600080602083850312156114d257600080fd5b823567ffffffffffffffff808211156114ea57600080fd5b818501915085601f8301126114fe57600080fd5b81358181111561150d57600080fd5b8660208260051b850101111561152257600080fd5b60209290920196919550909350505050565b6000602080830181845280855180835260408601915060408160051b870101925083870160005b8281101561158957603f198886030184526115778583516113cf565b9450928501929085019060010161155b565b5092979650505050505050565b600080604083850312156115a957600080fd5b6115b28361140e565b91506115c06020840161140e565b90509250929050565b6020808252825182820181905260009190848201906040850190845b8181101561160a5783516001600160a01b0316835292840192918401916001016115e5565b50909695505050505050565b600181811c9082168061162a57607f821691505b6020821081036104d657634e487b7160e01b600052602260045260246000fd5b60208082526027908201527f4f6e6c79206f776e65722063616e20657865637574652074686973207472616e60408201526639b0b1ba34b7b760c91b606082015260800190565b634e487b7160e01b600052601160045260246000fd5b808201808211156103c0576103c0611691565b634e487b7160e01b600052604160045260246000fd5b634e487b7160e01b600052603260045260246000fd5b6000808335601e198436030181126116fd57600080fd5b83018035915067ffffffffffffffff82111561171857600080fd5b602001915036819003821315610e2c57600080fd5b60006001820161173f5761173f611691565b5060010190565b818103818111156103c0576103c0611691565b634e487b7160e01b600052603160045260246000fd5b600082516117818184602087016113ab565b9190910192915050565b6000826117a857634e487b7160e01b600052601260045260246000fd5b50049056fe416464726573733a206c6f772d6c6576656c2064656c65676174652063616c6c206661696c6564a2646970667358221220f6b7a05d967423a5ef695e7ef3471200b214e453ac0f8d28e497ebb1aa8bbeb264736f6c63430008110033",
  "linkReferences": {},
  "deployedLinkReferences": {}
}