{
  "_format": "hh-sol-artifact-1",
  "contractName": "RahatDonor",
  "sourceName": "src/contracts/RahatDonor.sol",
  "abi": [
    {
      "inputs": [
        {
          "internalType": "address",
          "name": "_admin",
          "type": "address"
        }
      ],
      "stateMutability": "nonpayable",
      "type": "constructor"
    },
    {
      "anonymous": false,
      "inputs": [
        {
          "indexed": true,
          "internalType": "address",
          "name": "",
          "type": "address"
        }
      ],
      "name": "OwnerAdded",
      "type": "event"
    },
    {
      "anonymous": false,
      "inputs": [
        {
          "indexed": true,
          "internalType": "address",
          "name": "",
          "type": "address"
        }
      ],
      "name": "OwnerRemoved",
      "type": "event"
    },
    {
      "anonymous": false,
      "inputs": [
        {
          "indexed": true,
          "internalType": "address",
          "name": "tokenAddress",
          "type": "address"
        }
      ],
      "name": "TokenCreated",
      "type": "event"
    },
    {
      "anonymous": false,
      "inputs": [
        {
          "indexed": true,
          "internalType": "address",
          "name": "tokenAddress",
          "type": "address"
        },
        {
          "indexed": true,
          "internalType": "address",
          "name": "approveAddress",
          "type": "address"
        },
        {
          "indexed": false,
          "internalType": "uint256",
          "name": "amount",
          "type": "uint256"
        }
      ],
      "name": "TokenMintedAndApproved",
      "type": "event"
    },
    {
      "inputs": [],
      "name": "IID_RAHAT_DONOR",
      "outputs": [
        {
          "internalType": "bytes4",
          "name": "",
          "type": "bytes4"
        }
      ],
      "stateMutability": "view",
      "type": "function"
    },
    {
      "inputs": [
        {
          "internalType": "address",
          "name": "_address",
          "type": "address"
        }
      ],
      "name": "addOwner",
      "outputs": [
        {
          "internalType": "bool",
          "name": "success",
          "type": "bool"
        }
      ],
      "stateMutability": "nonpayable",
      "type": "function"
    },
    {
      "inputs": [
        {
          "internalType": "address",
          "name": "_token",
          "type": "address"
        },
        {
          "internalType": "address",
          "name": "_ownerAddress",
          "type": "address"
        }
      ],
      "name": "addTokenOwner",
      "outputs": [],
      "stateMutability": "nonpayable",
      "type": "function"
    },
    {
      "inputs": [
        {
          "internalType": "address",
          "name": "_token",
          "type": "address"
        },
        {
          "internalType": "address",
          "name": "_spender",
          "type": "address"
        },
        {
          "internalType": "uint256",
          "name": "_amount",
          "type": "uint256"
        }
      ],
      "name": "approveToken",
      "outputs": [],
      "stateMutability": "nonpayable",
      "type": "function"
    },
    {
      "inputs": [
        {
          "internalType": "address",
          "name": "_token",
          "type": "address"
        },
        {
          "internalType": "address",
          "name": "_from",
          "type": "address"
        },
        {
          "internalType": "uint256",
          "name": "_amount",
          "type": "uint256"
        }
      ],
      "name": "claimToken",
      "outputs": [],
      "stateMutability": "nonpayable",
      "type": "function"
    },
    {
      "inputs": [
        {
          "internalType": "string",
          "name": "_name",
          "type": "string"
        },
        {
          "internalType": "string",
          "name": "_symbol",
          "type": "string"
        },
        {
          "internalType": "uint8",
          "name": "decimals",
          "type": "uint8"
        }
      ],
      "name": "createToken",
      "outputs": [
        {
          "internalType": "address",
          "name": "",
          "type": "address"
        }
      ],
      "stateMutability": "nonpayable",
      "type": "function"
    },
    {
      "inputs": [
        {
          "internalType": "address",
          "name": "_token",
          "type": "address"
        },
        {
          "internalType": "address",
          "name": "_from",
          "type": "address"
        }
      ],
      "name": "getAllowanceAndBalance",
      "outputs": [
        {
          "internalType": "uint256",
          "name": "allowance",
          "type": "uint256"
        },
        {
          "internalType": "uint256",
          "name": "balance",
          "type": "uint256"
        }
      ],
      "stateMutability": "view",
      "type": "function"
    },
    {
      "inputs": [
        {
          "internalType": "address",
          "name": "_address",
          "type": "address"
        }
      ],
      "name": "isOwner",
      "outputs": [
        {
          "internalType": "bool",
          "name": "",
          "type": "bool"
        }
      ],
      "stateMutability": "view",
      "type": "function"
    },
    {
      "inputs": [],
      "name": "listOwners",
      "outputs": [
        {
          "internalType": "address[]",
          "name": "",
          "type": "address[]"
        }
      ],
      "stateMutability": "view",
      "type": "function"
    },
    {
      "inputs": [
        {
          "internalType": "address",
          "name": "_address",
          "type": "address"
        }
      ],
      "name": "lockProject",
      "outputs": [],
      "stateMutability": "nonpayable",
      "type": "function"
    },
    {
      "inputs": [
        {
          "internalType": "address",
          "name": "_token",
          "type": "address"
        },
        {
          "internalType": "uint256",
          "name": "_amount",
          "type": "uint256"
        }
      ],
      "name": "mintToken",
      "outputs": [],
      "stateMutability": "nonpayable",
      "type": "function"
    },
    {
      "inputs": [
        {
          "internalType": "address",
          "name": "_token",
          "type": "address"
        },
        {
          "internalType": "address",
          "name": "_approveAddress",
          "type": "address"
        },
        {
          "internalType": "uint256",
          "name": "_amount",
          "type": "uint256"
        }
      ],
      "name": "mintTokenAndApprove",
      "outputs": [],
      "stateMutability": "nonpayable",
      "type": "function"
    },
    {
      "inputs": [
        {
          "internalType": "bytes[]",
          "name": "data",
          "type": "bytes[]"
        }
      ],
      "name": "multicall",
      "outputs": [
        {
          "internalType": "bytes[]",
          "name": "results",
          "type": "bytes[]"
        }
      ],
      "stateMutability": "nonpayable",
      "type": "function"
    },
    {
      "inputs": [],
      "name": "ownerCount",
      "outputs": [
        {
          "internalType": "uint256",
          "name": "",
          "type": "uint256"
        }
      ],
      "stateMutability": "view",
      "type": "function"
    },
    {
      "inputs": [
        {
          "internalType": "address",
          "name": "_address",
          "type": "address"
        }
      ],
      "name": "removeOwner",
      "outputs": [
        {
          "internalType": "bool",
          "name": "success",
          "type": "bool"
        }
      ],
      "stateMutability": "nonpayable",
      "type": "function"
    },
    {
      "inputs": [
        {
          "internalType": "bytes4",
          "name": "interfaceId",
          "type": "bytes4"
        }
      ],
      "name": "supportsInterface",
      "outputs": [
        {
          "internalType": "bool",
          "name": "",
          "type": "bool"
        }
      ],
      "stateMutability": "view",
      "type": "function"
    },
    {
      "inputs": [
        {
          "internalType": "address",
          "name": "_token",
          "type": "address"
        },
        {
          "internalType": "address",
          "name": "_from",
          "type": "address"
        },
        {
          "internalType": "address",
          "name": "_to",
          "type": "address"
        },
        {
          "internalType": "uint256",
          "name": "_amount",
          "type": "uint256"
        }
      ],
      "name": "transferFromToken",
      "outputs": [],
      "stateMutability": "nonpayable",
      "type": "function"
    },
    {
      "inputs": [
        {
          "internalType": "address",
          "name": "_token",
          "type": "address"
        },
        {
          "internalType": "address",
          "name": "_to",
          "type": "address"
        },
        {
          "internalType": "uint256",
          "name": "_amount",
          "type": "uint256"
        }
      ],
      "name": "transferToken",
      "outputs": [],
      "stateMutability": "nonpayable",
      "type": "function"
    },
    {
      "inputs": [
        {
          "internalType": "address",
          "name": "_address",
          "type": "address"
        }
      ],
      "name": "unlockProject",
      "outputs": [],
      "stateMutability": "nonpayable",
      "type": "function"
    }
  ],
  "bytecode": "0x608060405260326000553480156200001657600080fd5b506040516200369638038062003696833981016040819052620000399162000184565b62000044816200004c565b5050620001af565b600080546200006760016200010360201b62000ddd1760201c565b1115620000ac5760405162461bcd60e51b815260206004820152600f60248201526e1bdddb995c9cc8195e18d959591959608a1b604482015260640160405180910390fd5b620000c78260016200011460201b62000de81790919060201c565b6040519091506001600160a01b038316907f994a936646fe87ffe4f1e469d3d6aa417d6b855598397f323de5b449f765f0c390600090a2919050565b60006200010e825490565b92915050565b60006200012b836001600160a01b03841662000132565b9392505050565b60008181526001830160205260408120546200017b575081546001818101845560008481526020808220909301849055845484825282860190935260409020919091556200010e565b5060006200010e565b6000602082840312156200019757600080fd5b81516001600160a01b03811681146200012b57600080fd5b6134d780620001bf6000396000f3fe60806040523480156200001157600080fd5b5060043610620001395760003560e01c806379c6506811620000bb578063da3e3397116200007a578063da3e339714620002d0578063e8a0aed314620002e7578063ed60c0fc1462000317578063f5537ede1462000330578063fb3c0d70146200034757600080fd5b806379c65068146200023c5780637f89328f14620002535780639a7b612a146200026a5780639c1f22261462000293578063ac9650d814620002aa57600080fd5b80632cb5568e11620001085780632cb5568e14620001b35780632f54bf6e14620001ca5780634937b17414620001e15780635297bfcd146200020e5780637065cb48146200022557600080fd5b806301ffc9a7146200013e5780630db02622146200016a578063125bfb661462000183578063173825d9146200019c575b600080fd5b620001556200014f36600462001207565b6200035e565b60405190151581526020015b60405180910390f35b6200017462000396565b60405190815260200162000161565b6200019a620001943660046200124b565b620003a9565b005b62000155620001ad3660046200128c565b62000461565b6200019a620001c4366004620012aa565b620004d8565b62000155620001db3660046200128c565b62000578565b620001f8620001f2366004620012aa565b62000587565b6040805192835260208301919091520162000161565b6200019a6200021f3660046200128c565b62000676565b62000155620002363660046200128c565b620006fa565b6200019a6200024d366004620012d9565b62000738565b6200019a620002643660046200124b565b620007d8565b62000279630cd2075160e01b81565b6040516001600160e01b0319909116815260200162000161565b6200019a620002a43660046200128c565b62000a40565b620002c1620002bb36600462001306565b62000aa8565b604051620001619190620013d4565b6200019a620002e13660046200124b565b62000bb0565b620002fe620002f8366004620014e5565b62000c12565b6040516001600160a01b03909116815260200162000161565b6200032162000cc3565b6040516200016191906200156b565b6200019a620003413660046200124b565b62000cd1565b6200019a62000358366004620015ba565b62000d33565b60006001600160e01b03198216630cd2075160e01b14806200039057506301ffc9a760e01b6001600160e01b03198316145b92915050565b6000620003a4600162000ddd565b905090565b620003b660013362000e06565b620003de5760405162461bcd60e51b8152600401620003d5906200160c565b60405180910390fd5b6040516323b872dd60e01b81526001600160a01b038381166004830152306024830152604482018390528416906323b872dd906064015b6020604051808303816000875af115801562000435573d6000803e3d6000fd5b505050506040513d601f19601f820116820180604052508101906200045b919062001653565b50505050565b60006200047060013362000e06565b6200048f5760405162461bcd60e51b8152600401620003d5906200160c565b6200049c60018362000e29565b6040519091506001600160a01b038316907f58619076adf5bb0943d100ef88d52d7c3fd691b19d3a9071b555b651fbf418da90600090a2919050565b620004e560013362000e06565b620005045760405162461bcd60e51b8152600401620003d5906200160c565b604051630e0cb96960e31b81526001600160a01b038281166004830152831690637065cb48906024016020604051808303816000875af11580156200054d573d6000803e3d6000fd5b505050506040513d601f19601f8201168201806040525081019062000573919062001653565b505050565b60006200039060018362000e06565b604051636eb1769f60e11b81526001600160a01b038281166004830152306024830152600091829185169063dd62ed3e90604401602060405180830381865afa158015620005d9573d6000803e3d6000fd5b505050506040513d601f19601f82011682018060405250810190620005ff919062001677565b6040516370a0823160e01b81523060048201529092506001600160a01b038516906370a0823190602401602060405180830381865afa15801562000647573d6000803e3d6000fd5b505050506040513d601f19601f820116820180604052508101906200066d919062001677565b90509250929050565b6200068360013362000e06565b620006a25760405162461bcd60e51b8152600401620003d5906200160c565b806001600160a01b03166398815c7f6040518163ffffffff1660e01b8152600401600060405180830381600087803b158015620006de57600080fd5b505af1158015620006f3573d6000803e3d6000fd5b5050505050565b60006200070960013362000e06565b620007285760405162461bcd60e51b8152600401620003d5906200160c565b620003908262000e40565b919050565b6200074560013362000e06565b620007645760405162461bcd60e51b8152600401620003d5906200160c565b6040516340c10f1960e01b8152306004820152602481018290526001600160a01b038316906340c10f19906044016020604051808303816000875af1158015620007b2573d6000803e3d6000fd5b505050506040513d601f19601f8201168201806040525081019062000573919062001677565b620007e560013362000e06565b620008045760405162461bcd60e51b8152600401620003d5906200160c565b6001600160a01b0383166200085c5760405162461bcd60e51b815260206004820152601c60248201527f746f6b656e20616464726573732063616e6e6f74206265207a65726f000000006044820152606401620003d5565b6001600160a01b038216620008b45760405162461bcd60e51b815260206004820152601e60248201527f617070726f766520616464726573732063616e6e6f74206265207a65726f00006044820152606401620003d5565b60008111620008fe5760405162461bcd60e51b8152602060048201526015602482015274616d6f756e742063616e6e6f74206265207a65726f60581b6044820152606401620003d5565b6040516340c10f1960e01b81523060048201526024810182905283906001600160a01b038216906340c10f19906044016020604051808303816000875af11580156200094e573d6000803e3d6000fd5b505050506040513d601f19601f8201168201806040525081019062000974919062001677565b5060405163095ea7b360e01b81526001600160a01b0384811660048301526024820184905282169063095ea7b3906044016020604051808303816000875af1158015620009c5573d6000803e3d6000fd5b505050506040513d601f19601f82011682018060405250810190620009eb919062001653565b50826001600160a01b0316846001600160a01b03167fdc6904c4e8e3746f835eb600662c644c895c758995784a4b39c68f75355b2d278460405162000a3291815260200190565b60405180910390a350505050565b62000a4d60013362000e06565b62000a6c5760405162461bcd60e51b8152600401620003d5906200160c565b806001600160a01b03166314e6d3d46040518163ffffffff1660e01b8152600401600060405180830381600087803b158015620006de57600080fd5b60608167ffffffffffffffff81111562000ac65762000ac66200143a565b60405190808252806020026020018201604052801562000afb57816020015b606081526020019060019003908162000ae55790505b50905060005b8281101562000ba95762000b733085858481811062000b245762000b2462001691565b905060200281019062000b389190620016a7565b8080601f01602080910402602001604051908101604052809392919081815260200183838082843760009201919091525062000edb92505050565b82828151811062000b885762000b8862001691565b6020026020010181905250808062000ba0906200170e565b91505062000b01565b5092915050565b62000bbd60013362000e06565b62000bdc5760405162461bcd60e51b8152600401620003d5906200160c565b60405163095ea7b360e01b81526001600160a01b0383811660048301526024820183905284169063095ea7b39060440162000415565b600062000c2160013362000e06565b62000c405760405162461bcd60e51b8152600401620003d5906200160c565b60008484308560405162000c5490620011f9565b62000c6394939291906200172a565b604051809103906000f08015801562000c80573d6000803e3d6000fd5b5060405190915081906001600160a01b038216907f2e2b3f61b70d2d131b2a807371103cc98d51adcaa5e9a8f9c32658ad8426e74e90600090a295945050505050565b6060620003a4600162000f03565b62000cde60013362000e06565b62000cfd5760405162461bcd60e51b8152600401620003d5906200160c565b60405163a9059cbb60e01b81526001600160a01b0383811660048301526024820183905284169063a9059cbb9060440162000415565b62000d4060013362000e06565b62000d5f5760405162461bcd60e51b8152600401620003d5906200160c565b6040516323b872dd60e01b81526001600160a01b0384811660048301528381166024830152604482018390528516906323b872dd906064016020604051808303816000875af115801562000db7573d6000803e3d6000fd5b505050506040513d601f19601f82011682018060405250810190620006f3919062001653565b600062000390825490565b600062000dff836001600160a01b03841662000f12565b9392505050565b6001600160a01b0381166000908152600183016020526040812054151562000dff565b600062000dff836001600160a01b03841662000f64565b6000805462000e50600162000ddd565b111562000e925760405162461bcd60e51b815260206004820152600f60248201526e1bdddb995c9cc8195e18d959591959608a1b6044820152606401620003d5565b62000e9f60018362000de8565b6040519091506001600160a01b038316907f994a936646fe87ffe4f1e469d3d6aa417d6b855598397f323de5b449f765f0c390600090a2919050565b606062000dff83836040518060600160405280602781526020016200347b6027913962001068565b6060600062000dff83620010e6565b600081815260018301602052604081205462000f5b5750815460018181018455600084815260208082209093018490558454848252828601909352604090209190915562000390565b50600062000390565b600081815260018301602052604081205480156200105d57600062000f8b60018362001778565b855490915060009062000fa19060019062001778565b90508181146200100d57600086600001828154811062000fc55762000fc562001691565b906000526020600020015490508087600001848154811062000feb5762000feb62001691565b6000918252602080832090910192909255918252600188019052604090208390555b85548690806200102157620010216200178e565b60019003818190600052602060002001600090559055856001016000868152602001908152602001600020600090556001935050505062000390565b600091505062000390565b6060600080856001600160a01b031685604051620010879190620017a4565b600060405180830381855af49150503d8060008114620010c4576040519150601f19603f3d011682016040523d82523d6000602084013e620010c9565b606091505b5091509150620010dc8683838762001144565b9695505050505050565b6060816000018054806020026020016040519081016040528092919081815260200182805480156200113857602002820191906000526020600020905b81548152602001906001019080831162001123575b50505050509050919050565b60608315620011b8578251600003620011b0576001600160a01b0385163b620011b05760405162461bcd60e51b815260206004820152601d60248201527f416464726573733a2063616c6c20746f206e6f6e2d636f6e74726163740000006044820152606401620003d5565b5081620011c4565b620011c48383620011cc565b949350505050565b815115620011dd5781518083602001fd5b8060405162461bcd60e51b8152600401620003d59190620017c2565b611ca380620017d883390190565b6000602082840312156200121a57600080fd5b81356001600160e01b03198116811462000dff57600080fd5b80356001600160a01b03811681146200073357600080fd5b6000806000606084860312156200126157600080fd5b6200126c8462001233565b92506200127c6020850162001233565b9150604084013590509250925092565b6000602082840312156200129f57600080fd5b62000dff8262001233565b60008060408385031215620012be57600080fd5b620012c98362001233565b91506200066d6020840162001233565b60008060408385031215620012ed57600080fd5b620012f88362001233565b946020939093013593505050565b600080602083850312156200131a57600080fd5b823567ffffffffffffffff808211156200133357600080fd5b818501915085601f8301126200134857600080fd5b8135818111156200135857600080fd5b8660208260051b85010111156200136e57600080fd5b60209290920196919550909350505050565b60005b838110156200139d57818101518382015260200162001383565b50506000910152565b60008151808452620013c081602086016020860162001380565b601f01601f19169290920160200192915050565b6000602080830181845280855180835260408601915060408160051b870101925083870160005b828110156200142d57603f198886030184526200141a858351620013a6565b94509285019290850190600101620013fb565b5092979650505050505050565b634e487b7160e01b600052604160045260246000fd5b600082601f8301126200146257600080fd5b813567ffffffffffffffff808211156200148057620014806200143a565b604051601f8301601f19908116603f01168101908282118183101715620014ab57620014ab6200143a565b81604052838152866020858801011115620014c557600080fd5b836020870160208301376000602085830101528094505050505092915050565b600080600060608486031215620014fb57600080fd5b833567ffffffffffffffff808211156200151457600080fd5b620015228783880162001450565b945060208601359150808211156200153957600080fd5b50620015488682870162001450565b925050604084013560ff811681146200156057600080fd5b809150509250925092565b6020808252825182820181905260009190848201906040850190845b81811015620015ae5783516001600160a01b03168352928401929184019160010162001587565b50909695505050505050565b60008060008060808587031215620015d157600080fd5b620015dc8562001233565b9350620015ec6020860162001233565b9250620015fc6040860162001233565b9396929550929360600135925050565b60208082526027908201527f4f6e6c79206f776e65722063616e20657865637574652074686973207472616e60408201526639b0b1ba34b7b760c91b606082015260800190565b6000602082840312156200166657600080fd5b8151801515811462000dff57600080fd5b6000602082840312156200168a57600080fd5b5051919050565b634e487b7160e01b600052603260045260246000fd5b6000808335601e19843603018112620016bf57600080fd5b83018035915067ffffffffffffffff821115620016db57600080fd5b602001915036819003821315620016f157600080fd5b9250929050565b634e487b7160e01b600052601160045260246000fd5b600060018201620017235762001723620016f8565b5060010190565b6080815260006200173f6080830187620013a6565b8281036020840152620017538187620013a6565b6001600160a01b03959095166040840152505060ff9190911660609091015292915050565b81810381811115620003905762000390620016f8565b634e487b7160e01b600052603160045260246000fd5b60008251620017b881846020870162001380565b9190910192915050565b60208152600062000dff6020830184620013a656fe608060405260326000553480156200001657600080fd5b5060405162001ca338038062001ca3833981016040819052620000399162000288565b83836006620000498382620003bd565b506007620000588282620003bd565b5050506200006c826200008b60201b60201c565b50600c805460ff191660ff929092169190911790555062000489915050565b60008054620000a660016200014260201b620007811760201c565b1115620000eb5760405162461bcd60e51b815260206004820152600f60248201526e1bdddb995c9cc8195e18d959591959608a1b604482015260640160405180910390fd5b620001068260016200015360201b6200078b1790919060201c565b6040519091506001600160a01b038316907f994a936646fe87ffe4f1e469d3d6aa417d6b855598397f323de5b449f765f0c390600090a2919050565b60006200014d825490565b92915050565b60006200016a836001600160a01b03841662000171565b9392505050565b6000818152600183016020526040812054620001ba575081546001818101845560008481526020808220909301849055845484825282860190935260409020919091556200014d565b5060006200014d565b634e487b7160e01b600052604160045260246000fd5b600082601f830112620001eb57600080fd5b81516001600160401b0380821115620002085762000208620001c3565b604051601f8301601f19908116603f01168101908282118183101715620002335762000233620001c3565b816040528381526020925086838588010111156200025057600080fd5b600091505b8382101562000274578582018301518183018401529082019062000255565b600093810190920192909252949350505050565b600080600080608085870312156200029f57600080fd5b84516001600160401b0380821115620002b757600080fd5b620002c588838901620001d9565b95506020870151915080821115620002dc57600080fd5b50620002eb87828801620001d9565b604087015190945090506001600160a01b03811681146200030b57600080fd5b606086015190925060ff811681146200032357600080fd5b939692955090935050565b600181811c908216806200034357607f821691505b6020821081036200036457634e487b7160e01b600052602260045260246000fd5b50919050565b601f821115620003b857600081815260208120601f850160051c81016020861015620003935750805b601f850160051c820191505b81811015620003b4578281556001016200039f565b5050505b505050565b81516001600160401b03811115620003d957620003d9620001c3565b620003f181620003ea84546200032e565b846200036a565b602080601f831160018114620004295760008415620004105750858301515b600019600386901b1c1916600185901b178555620003b4565b600085815260208120601f198616915b828110156200045a5788860151825594840194600190910190840162000439565b5085821015620004795787850151600019600388901b60f8161c191681555b5050505050600190811b01905550565b61180a80620004996000396000f3fe608060405234801561001057600080fd5b50600436106101425760003560e01c80634ee2cd7e116100b8578063981b24d01161007c578063981b24d014610299578063a457c2d7146102ac578063a9059cbb146102bf578063ac9650d8146102d2578063dd62ed3e146102f2578063ed60c0fc1461030557600080fd5b80634ee2cd7e1461022f5780637065cb481461024257806370a082311461025557806379cc67901461027e57806395d89b411461029157600080fd5b806323b872dd1161010a57806323b872dd146101b95780632f54bf6e146101cc578063313ce567146101df57806339509351146101f457806340c10f191461020757806342966c681461021a57600080fd5b806306fdde0314610147578063095ea7b3146101655780630db0262214610188578063173825d91461019e57806318160ddd146101b1575b600080fd5b61014f61031a565b60405161015c91906113fb565b60405180910390f35b610178610173366004611425565b6103ac565b604051901515815260200161015c565b6101906103c6565b60405190815260200161015c565b6101786101ac36600461144f565b6103d7565b600554610190565b6101786101c736600461146a565b610450565b6101786101da36600461144f565b610474565b600c5460405160ff909116815260200161015c565b610178610202366004611425565b610481565b610190610215366004611425565b6104a3565b61022d6102283660046114a6565b6104dc565b005b61019061023d366004611425565b6104e9565b61017861025036600461144f565b610542565b61019061026336600461144f565b6001600160a01b031660009081526003602052604090205490565b61022d61028c366004611425565b610579565b61014f610592565b6101906102a73660046114a6565b6105a1565b6101786102ba366004611425565b6105cc565b6101786102cd366004611425565b610647565b6102e56102e03660046114bf565b610655565b60405161015c9190611534565b610190610300366004611596565b61074a565b61030d610775565b60405161015c91906115c9565b60606006805461032990611616565b80601f016020809104026020016040519081016040528092919081815260200182805461035590611616565b80156103a25780601f10610377576101008083540402835291602001916103a2565b820191906000526020600020905b81548152906001019060200180831161038557829003601f168201915b5050505050905090565b6000336103ba8185856107a7565b60019150505b92915050565b60006103d26001610781565b905090565b60006103e46001336108cc565b6104095760405162461bcd60e51b81526004016104009061164a565b60405180910390fd5b6104146001836108ee565b6040519091506001600160a01b038316907f58619076adf5bb0943d100ef88d52d7c3fd691b19d3a9071b555b651fbf418da90600090a2919050565b60003361045e858285610903565b61046985858561097d565b506001949350505050565b60006103c06001836108cc565b6000336103ba818585610494838361074a565b61049e91906116a7565b6107a7565b60006104b06001336108cc565b6104cc5760405162461bcd60e51b81526004016104009061164a565b6104d68383610b33565b50919050565b6104e63382610c00565b50565b6001600160a01b038216600090815260086020526040812081908190610510908590610d3d565b9150915081610537576001600160a01b038516600090815260036020526040902054610539565b805b95945050505050565b600061054f6001336108cc565b61056b5760405162461bcd60e51b81526004016104009061164a565b6103c082610e33565b919050565b610584823383610903565b61058e8282610c00565b5050565b60606007805461032990611616565b60008060006105b1846009610d3d565b91509150816105c2576005546105c4565b805b949350505050565b600033816105da828661074a565b90508381101561063a5760405162461bcd60e51b815260206004820152602560248201527f45524332303a2064656372656173656420616c6c6f77616e63652062656c6f77604482015264207a65726f60d81b6064820152608401610400565b61046982868684036107a7565b6000336103ba81858561097d565b60608167ffffffffffffffff811115610670576106706116ba565b6040519080825280602002602001820160405280156106a357816020015b606081526020019060019003908161068e5790505b50905060005b8281101561074357610713308585848181106106c7576106c76116d0565b90506020028101906106d991906116e6565b8080601f016020809104026020016040519081016040528093929190818152602001838380828437600092019190915250610ec892505050565b828281518110610725576107256116d0565b6020026020010181905250808061073b9061172d565b9150506106a9565b5092915050565b6001600160a01b03918216600090815260046020908152604080832093909416825291909152205490565b60606103d26001610eed565b60006103c0825490565b60006107a0836001600160a01b038416610efa565b9392505050565b6001600160a01b0383166108095760405162461bcd60e51b8152602060048201526024808201527f45524332303a20617070726f76652066726f6d20746865207a65726f206164646044820152637265737360e01b6064820152608401610400565b6001600160a01b03821661086a5760405162461bcd60e51b815260206004820152602260248201527f45524332303a20617070726f766520746f20746865207a65726f206164647265604482015261737360f01b6064820152608401610400565b6001600160a01b0383811660008181526004602090815260408083209487168084529482529182902085905590518481527f8c5be1e5ebec7d5bd14f71427d1e84f3dd0314c0f7b2291e5b200ac8c7c3b92591015b60405180910390a3505050565b6001600160a01b038116600090815260018301602052604081205415156107a0565b60006107a0836001600160a01b038416610f49565b600061090f848461074a565b90506000198114610977578181101561096a5760405162461bcd60e51b815260206004820152601d60248201527f45524332303a20696e73756666696369656e7420616c6c6f77616e63650000006044820152606401610400565b61097784848484036107a7565b50505050565b6001600160a01b0383166109e15760405162461bcd60e51b815260206004820152602560248201527f45524332303a207472616e736665722066726f6d20746865207a65726f206164604482015264647265737360d81b6064820152608401610400565b6001600160a01b038216610a435760405162461bcd60e51b815260206004820152602360248201527f45524332303a207472616e7366657220746f20746865207a65726f206164647260448201526265737360e81b6064820152608401610400565b610a4e83838361103c565b6001600160a01b03831660009081526003602052604090205481811015610ac65760405162461bcd60e51b815260206004820152602660248201527f45524332303a207472616e7366657220616d6f756e7420657863656564732062604482015265616c616e636560d01b6064820152608401610400565b6001600160a01b0380851660008181526003602052604080822086860390559286168082529083902080548601905591517fddf252ad1be2c89b69c2b068fc378daa952ba7f163c4a11628f55a4df523b3ef90610b269086815260200190565b60405180910390a3610977565b6001600160a01b038216610b895760405162461bcd60e51b815260206004820152601f60248201527f45524332303a206d696e7420746f20746865207a65726f2061646472657373006044820152606401610400565b610b956000838361103c565b8060056000828254610ba791906116a7565b90915550506001600160a01b0382166000818152600360209081526040808320805486019055518481527fddf252ad1be2c89b69c2b068fc378daa952ba7f163c4a11628f55a4df523b3ef910160405180910390a35050565b6001600160a01b038216610c605760405162461bcd60e51b815260206004820152602160248201527f45524332303a206275726e2066726f6d20746865207a65726f206164647265736044820152607360f81b6064820152608401610400565b610c6c8260008361103c565b6001600160a01b03821660009081526003602052604090205481811015610ce05760405162461bcd60e51b815260206004820152602260248201527f45524332303a206275726e20616d6f756e7420657863656564732062616c616e604482015261636560f01b6064820152608401610400565b6001600160a01b03831660008181526003602090815260408083208686039055600580548790039055518581529192917fddf252ad1be2c89b69c2b068fc378daa952ba7f163c4a11628f55a4df523b3ef91016108bf565b505050565b60008060008411610d895760405162461bcd60e51b815260206004820152601660248201527504552433230536e617073686f743a20696420697320360541b6044820152606401610400565b610d91611047565b841115610de05760405162461bcd60e51b815260206004820152601d60248201527f4552433230536e617073686f743a206e6f6e6578697374656e742069640000006044820152606401610400565b6000610dec8486611052565b84549091508103610e04576000809250925050610e2c565b6001846001018281548110610e1b57610e1b6116d0565b906000526020600020015492509250505b9250929050565b60008054610e416001610781565b1115610e815760405162461bcd60e51b815260206004820152600f60248201526e1bdddb995c9cc8195e18d959591959608a1b6044820152606401610400565b610e8c60018361078b565b6040519091506001600160a01b038316907f994a936646fe87ffe4f1e469d3d6aa417d6b855598397f323de5b449f765f0c390600090a2919050565b60606107a083836040518060600160405280602781526020016117ae602791396110ff565b606060006107a083611177565b6000818152600183016020526040812054610f41575081546001818101845560008481526020808220909301849055845484825282860190935260409020919091556103c0565b5060006103c0565b60008181526001830160205260408120548015611032576000610f6d600183611746565b8554909150600090610f8190600190611746565b9050818114610fe6576000866000018281548110610fa157610fa16116d0565b9060005260206000200154905080876000018481548110610fc457610fc46116d0565b6000918252602080832090910192909255918252600188019052604090208390555b8554869080610ff757610ff7611759565b6001900381819060005260206000200160009055905585600101600086815260200190815260200160002060009055600193505050506103c0565b60009150506103c0565b610d388383836111d3565b60006103d2600b5490565b81546000908103611065575060006103c0565b82546000905b808210156110b257600061107f838361121b565b6000878152602090209091508590820154111561109e578091506110ac565b6110a98160016116a7565b92505b5061106b565b6000821180156110de5750836110db866110cd600186611746565b600091825260209091200190565b54145b156110f7576110ee600183611746565b925050506103c0565b5090506103c0565b6060600080856001600160a01b03168560405161111c919061176f565b600060405180830381855af49150503d8060008114611157576040519150601f19603f3d011682016040523d82523d6000602084013e61115c565b606091505b509150915061116d86838387611236565b9695505050505050565b6060816000018054806020026020016040519081016040528092919081815260200182805480156111c757602002820191906000526020600020905b8154815260200190600101908083116111b3575b50505050509050919050565b6001600160a01b0383166111f2576111ea826112af565b610d386112e2565b6001600160a01b038216611209576111ea836112af565b611212836112af565b610d38826112af565b600061122a600284841861178b565b6107a0908484166116a7565b606083156112a557825160000361129e576001600160a01b0385163b61129e5760405162461bcd60e51b815260206004820152601d60248201527f416464726573733a2063616c6c20746f206e6f6e2d636f6e74726163740000006044820152606401610400565b50816105c4565b6105c483836112f2565b6001600160a01b03811660009081526008602090815260408083206003909252909120546104e6919061131c565b61131c565b6112f060096112dd60055490565b565b8151156113025781518083602001fd5b8060405162461bcd60e51b815260040161040091906113fb565b6000611326611047565b90508061133284611366565b1015610d38578254600180820185556000858152602080822090930193909355938401805494850181558252902090910155565b8054600090810361137957506000919050565b8154829061138990600190611746565b81548110611399576113996116d0565b90600052602060002001549050919050565b60005b838110156113c65781810151838201526020016113ae565b50506000910152565b600081518084526113e78160208601602086016113ab565b601f01601f19169290920160200192915050565b6020815260006107a060208301846113cf565b80356001600160a01b038116811461057457600080fd5b6000806040838503121561143857600080fd5b6114418361140e565b946020939093013593505050565b60006020828403121561146157600080fd5b6107a08261140e565b60008060006060848603121561147f57600080fd5b6114888461140e565b92506114966020850161140e565b9150604084013590509250925092565b6000602082840312156114b857600080fd5b5035919050565b600080602083850312156114d257600080fd5b823567ffffffffffffffff808211156114ea57600080fd5b818501915085601f8301126114fe57600080fd5b81358181111561150d57600080fd5b8660208260051b850101111561152257600080fd5b60209290920196919550909350505050565b6000602080830181845280855180835260408601915060408160051b870101925083870160005b8281101561158957603f198886030184526115778583516113cf565b9450928501929085019060010161155b565b5092979650505050505050565b600080604083850312156115a957600080fd5b6115b28361140e565b91506115c06020840161140e565b90509250929050565b6020808252825182820181905260009190848201906040850190845b8181101561160a5783516001600160a01b0316835292840192918401916001016115e5565b50909695505050505050565b600181811c9082168061162a57607f821691505b6020821081036104d657634e487b7160e01b600052602260045260246000fd5b60208082526027908201527f4f6e6c79206f776e65722063616e20657865637574652074686973207472616e60408201526639b0b1ba34b7b760c91b606082015260800190565b634e487b7160e01b600052601160045260246000fd5b808201808211156103c0576103c0611691565b634e487b7160e01b600052604160045260246000fd5b634e487b7160e01b600052603260045260246000fd5b6000808335601e198436030181126116fd57600080fd5b83018035915067ffffffffffffffff82111561171857600080fd5b602001915036819003821315610e2c57600080fd5b60006001820161173f5761173f611691565b5060010190565b818103818111156103c0576103c0611691565b634e487b7160e01b600052603160045260246000fd5b600082516117818184602087016113ab565b9190910192915050565b6000826117a857634e487b7160e01b600052601260045260246000fd5b50049056fe416464726573733a206c6f772d6c6576656c2064656c65676174652063616c6c206661696c6564a2646970667358221220f6b7a05d967423a5ef695e7ef3471200b214e453ac0f8d28e497ebb1aa8bbeb264736f6c63430008110033416464726573733a206c6f772d6c6576656c2064656c65676174652063616c6c206661696c6564a2646970667358221220d2d669a456d788ba5af395e5f5262823ec076d9f3e667f7a3f2c62d6c48d1bbc64736f6c63430008110033",
  "linkReferences": {},
  "deployedLinkReferences": {}
}