{
  "_format": "hh-sol-artifact-1",
  "contractName": "RahatCommunity",
  "sourceName": "src/contracts/RahatCommunity.sol",
  "abi": [
    {
      "inputs": [
        {
          "internalType": "string",
          "name": "_name",
          "type": "string"
        },
        {
          "internalType": "address",
          "name": "_admin",
          "type": "address"
        }
      ],
      "stateMutability": "nonpayable",
      "type": "constructor"
    },
    {
      "anonymous": false,
      "inputs": [
        {
          "indexed": true,
          "internalType": "address",
          "name": "",
          "type": "address"
        }
      ],
      "name": "BeneficiaryAdded",
      "type": "event"
    },
    {
      "anonymous": false,
      "inputs": [
        {
          "indexed": true,
          "internalType": "address",
          "name": "",
          "type": "address"
        }
      ],
      "name": "BeneficiaryRemoved",
      "type": "event"
    },
    {
      "anonymous": false,
      "inputs": [
        {
          "indexed": true,
          "internalType": "address",
          "name": "requestor",
          "type": "address"
        },
        {
          "indexed": true,
          "internalType": "address",
          "name": "project",
          "type": "address"
        }
      ],
      "name": "ProjectApprovalRequest",
      "type": "event"
    },
    {
      "anonymous": false,
      "inputs": [
        {
          "indexed": true,
          "internalType": "address",
          "name": "",
          "type": "address"
        }
      ],
      "name": "ProjectApproved",
      "type": "event"
    },
    {
      "anonymous": false,
      "inputs": [
        {
          "indexed": true,
          "internalType": "address",
          "name": "",
          "type": "address"
        }
      ],
      "name": "ProjectRevoked",
      "type": "event"
    },
    {
      "anonymous": false,
      "inputs": [
        {
          "indexed": false,
          "internalType": "address",
          "name": "",
          "type": "address"
        },
        {
          "indexed": false,
          "internalType": "uint256",
          "name": "",
          "type": "uint256"
        }
      ],
      "name": "Received",
      "type": "event"
    },
    {
      "anonymous": false,
      "inputs": [
        {
          "indexed": true,
          "internalType": "bytes32",
          "name": "role",
          "type": "bytes32"
        },
        {
          "indexed": true,
          "internalType": "bytes32",
          "name": "previousAdminRole",
          "type": "bytes32"
        },
        {
          "indexed": true,
          "internalType": "bytes32",
          "name": "newAdminRole",
          "type": "bytes32"
        }
      ],
      "name": "RoleAdminChanged",
      "type": "event"
    },
    {
      "anonymous": false,
      "inputs": [
        {
          "indexed": true,
          "internalType": "bytes32",
          "name": "role",
          "type": "bytes32"
        },
        {
          "indexed": true,
          "internalType": "address",
          "name": "account",
          "type": "address"
        },
        {
          "indexed": true,
          "internalType": "address",
          "name": "sender",
          "type": "address"
        }
      ],
      "name": "RoleGranted",
      "type": "event"
    },
    {
      "anonymous": false,
      "inputs": [
        {
          "indexed": true,
          "internalType": "bytes32",
          "name": "role",
          "type": "bytes32"
        },
        {
          "indexed": true,
          "internalType": "address",
          "name": "account",
          "type": "address"
        },
        {
          "indexed": true,
          "internalType": "address",
          "name": "sender",
          "type": "address"
        }
      ],
      "name": "RoleRevoked",
      "type": "event"
    },
    {
      "inputs": [],
      "name": "DEFAULT_ADMIN_ROLE",
      "outputs": [
        {
          "internalType": "bytes32",
          "name": "",
          "type": "bytes32"
        }
      ],
      "stateMutability": "view",
      "type": "function"
    },
    {
      "inputs": [],
      "name": "IID_RAHAT_PROJECT",
      "outputs": [
        {
          "internalType": "bytes4",
          "name": "",
          "type": "bytes4"
        }
      ],
      "stateMutability": "view",
      "type": "function"
    },
    {
      "inputs": [],
      "name": "VENDOR_ROLE",
      "outputs": [
        {
          "internalType": "bytes32",
          "name": "",
          "type": "bytes32"
        }
      ],
      "stateMutability": "view",
      "type": "function"
    },
    {
      "inputs": [
        {
          "internalType": "address",
          "name": "_address",
          "type": "address"
        }
      ],
      "name": "addBeneficiary",
      "outputs": [],
      "stateMutability": "nonpayable",
      "type": "function"
    },
    {
      "inputs": [
        {
          "internalType": "address",
          "name": "_projectAddress",
          "type": "address"
        }
      ],
      "name": "approveProject",
      "outputs": [],
      "stateMutability": "nonpayable",
      "type": "function"
    },
    {
      "inputs": [
        {
          "internalType": "bytes32",
          "name": "role",
          "type": "bytes32"
        }
      ],
      "name": "getRoleAdmin",
      "outputs": [
        {
          "internalType": "bytes32",
          "name": "",
          "type": "bytes32"
        }
      ],
      "stateMutability": "view",
      "type": "function"
    },
    {
      "inputs": [
        {
          "internalType": "bytes32",
          "name": "role",
          "type": "bytes32"
        },
        {
          "internalType": "address",
          "name": "account",
          "type": "address"
        }
      ],
      "name": "grantRole",
      "outputs": [],
      "stateMutability": "nonpayable",
      "type": "function"
    },
    {
      "inputs": [
        {
          "internalType": "bytes32",
          "name": "_role",
          "type": "bytes32"
        },
        {
          "internalType": "address",
          "name": "_account",
          "type": "address"
        }
      ],
      "name": "grantRoleWithEth",
      "outputs": [],
      "stateMutability": "nonpayable",
      "type": "function"
    },
    {
      "inputs": [
        {
          "internalType": "bytes32",
          "name": "role",
          "type": "bytes32"
        },
        {
          "internalType": "address",
          "name": "account",
          "type": "address"
        }
      ],
      "name": "hasRole",
      "outputs": [
        {
          "internalType": "bool",
          "name": "",
          "type": "bool"
        }
      ],
      "stateMutability": "view",
      "type": "function"
    },
    {
      "inputs": [
        {
          "internalType": "address",
          "name": "_address",
          "type": "address"
        }
      ],
      "name": "isAdmin",
      "outputs": [
        {
          "internalType": "bool",
          "name": "",
          "type": "bool"
        }
      ],
      "stateMutability": "view",
      "type": "function"
    },
    {
      "inputs": [
        {
          "internalType": "address",
          "name": "",
          "type": "address"
        }
      ],
      "name": "isBeneficiary",
      "outputs": [
        {
          "internalType": "bool",
          "name": "",
          "type": "bool"
        }
      ],
      "stateMutability": "view",
      "type": "function"
    },
    {
      "inputs": [
        {
          "internalType": "address",
          "name": "",
          "type": "address"
        }
      ],
      "name": "isProject",
      "outputs": [
        {
          "internalType": "bool",
          "name": "",
          "type": "bool"
        }
      ],
      "stateMutability": "view",
      "type": "function"
    },
    {
      "inputs": [
        {
          "internalType": "bytes[]",
          "name": "data",
          "type": "bytes[]"
        }
      ],
      "name": "multicall",
      "outputs": [
        {
          "internalType": "bytes[]",
          "name": "results",
          "type": "bytes[]"
        }
      ],
      "stateMutability": "nonpayable",
      "type": "function"
    },
    {
      "inputs": [],
      "name": "name",
      "outputs": [
        {
          "internalType": "string",
          "name": "",
          "type": "string"
        }
      ],
      "stateMutability": "view",
      "type": "function"
    },
    {
      "inputs": [
        {
          "internalType": "address",
          "name": "_address",
          "type": "address"
        }
      ],
      "name": "removeBeneficiary",
      "outputs": [],
      "stateMutability": "nonpayable",
      "type": "function"
    },
    {
      "inputs": [
        {
          "internalType": "bytes32",
          "name": "role",
          "type": "bytes32"
        },
        {
          "internalType": "address",
          "name": "account",
          "type": "address"
        }
      ],
      "name": "renounceRole",
      "outputs": [],
      "stateMutability": "nonpayable",
      "type": "function"
    },
    {
      "inputs": [
        {
          "internalType": "address",
          "name": "_projectAddress",
          "type": "address"
        }
      ],
      "name": "requestProjectApproval",
      "outputs": [],
      "stateMutability": "nonpayable",
      "type": "function"
    },
    {
      "inputs": [
        {
          "internalType": "address",
          "name": "_projectAddress",
          "type": "address"
        }
      ],
      "name": "revokeProject",
      "outputs": [],
      "stateMutability": "nonpayable",
      "type": "function"
    },
    {
      "inputs": [
        {
          "internalType": "bytes32",
          "name": "role",
          "type": "bytes32"
        },
        {
          "internalType": "address",
          "name": "account",
          "type": "address"
        }
      ],
      "name": "revokeRole",
      "outputs": [],
      "stateMutability": "nonpayable",
      "type": "function"
    },
    {
      "inputs": [
        {
          "internalType": "bytes4",
          "name": "interfaceId",
          "type": "bytes4"
        }
      ],
      "name": "supportsInterface",
      "outputs": [
        {
          "internalType": "bool",
          "name": "",
          "type": "bool"
        }
      ],
      "stateMutability": "view",
      "type": "function"
    },
    {
      "inputs": [
        {
          "internalType": "address payable",
          "name": "_to",
          "type": "address"
        }
      ],
      "name": "withdraw",
      "outputs": [],
      "stateMutability": "payable",
      "type": "function"
    },
    {
      "stateMutability": "payable",
      "type": "receive"
    }
  ],
  "bytecode": "0x60806040523480156200001157600080fd5b506040516200188d3803806200188d8339810160408190526200003491620001a4565b6200004160008262000085565b6200006e7f0aaf57387812c7f832412470a57567b5648a930069be49aa9c98d04f88520d34600062000126565b60016200007c83826200031b565b505050620003e7565b6000828152602081815260408083206001600160a01b038516845290915290205460ff1662000122576000828152602081815260408083206001600160a01b03851684529091529020805460ff19166001179055620000e13390565b6001600160a01b0316816001600160a01b0316837f2f8788117e7eff1d82e926ec794901d17c78024a50270940304540a733656f0d60405160405180910390a45b5050565b600082815260208190526040808220600101805490849055905190918391839186917fbd79b86ffe0ab8e8776151514217cd7cacd52c909f66475c3af44e129f0b00ff9190a4505050565b634e487b7160e01b600052604160045260246000fd5b80516001600160a01b03811681146200019f57600080fd5b919050565b60008060408385031215620001b857600080fd5b82516001600160401b0380821115620001d057600080fd5b818501915085601f830112620001e557600080fd5b815181811115620001fa57620001fa62000171565b604051601f8201601f19908116603f0116810190838211818310171562000225576200022562000171565b816040528281526020935088848487010111156200024257600080fd5b600091505b8282101562000266578482018401518183018501529083019062000247565b60008484830101528096505050506200028181860162000187565b925050509250929050565b600181811c90821680620002a157607f821691505b602082108103620002c257634e487b7160e01b600052602260045260246000fd5b50919050565b601f8211156200031657600081815260208120601f850160051c81016020861015620002f15750805b601f850160051c820191505b818110156200031257828155600101620002fd565b5050505b505050565b81516001600160401b0381111562000337576200033762000171565b6200034f816200034884546200028c565b84620002c8565b602080601f8311600181146200038757600084156200036e5750858301515b600019600386901b1c1916600185901b17855562000312565b600085815260208120601f198616915b82811015620003b85788860151825594840194600190910190840162000397565b5085821015620003d75787850151600019600388901b60f8161c191681555b5050505050600190811b01905550565b61149680620003f76000396000f3fe60806040526004361061012e5760003560e01c806359633a1c116100ab5780639d19b2261161006f5780639d19b226146103b3578063a217fddf146103e3578063a434b1a6146103f8578063ac9650d814610418578063be26175214610445578063d547741f1461046557600080fd5b806359633a1c146102ff578063598444741461031f5780638494b3281461033f57806391d148541461035f578063926a694d1461037f57600080fd5b80632f2ff15d116100f25780632f2ff15d1461025757806336568abe146102795780634fe215711461029957806351cff8d9146102cc5780635926651d146102df57600080fd5b806301ffc9a71461017257806305c81408146101a757806306fdde03146101d7578063248a9ca3146101f957806324d7806c1461023757600080fd5b3661016d57604080513381523460208201527f88a5966d370b9919b20f3e2c13ff65706f196a4e32cc2c12bf57088f88525874910160405180910390a1005b600080fd5b34801561017e57600080fd5b5061019261018d36600461105d565b610485565b60405190151581526020015b60405180910390f35b3480156101b357600080fd5b506101926101c236600461109c565b60036020526000908152604090205460ff1681565b3480156101e357600080fd5b506101ec6104bc565b60405161019e9190611109565b34801561020557600080fd5b5061022961021436600461111c565b60009081526020819052604090206001015490565b60405190815260200161019e565b34801561024357600080fd5b5061019261025236600461109c565b61054a565b34801561026357600080fd5b50610277610272366004611135565b610556565b005b34801561028557600080fd5b50610277610294366004611135565b610580565b3480156102a557600080fd5b506102b362f718eb60e81b81565b6040516001600160e01b0319909116815260200161019e565b6102776102da36600461109c565b610603565b3480156102eb57600080fd5b506102776102fa36600461109c565b6106c4565b34801561030b57600080fd5b5061027761031a36600461109c565b610737565b34801561032b57600080fd5b5061027761033a366004611135565b6107a7565b34801561034b57600080fd5b5061027761035a36600461109c565b61089d565b34801561036b57600080fd5b5061019261037a366004611135565b61093b565b34801561038b57600080fd5b506102297f0aaf57387812c7f832412470a57567b5648a930069be49aa9c98d04f88520d3481565b3480156103bf57600080fd5b506101926103ce36600461109c565b60026020526000908152604090205460ff1681565b3480156103ef57600080fd5b50610229600081565b34801561040457600080fd5b5061027761041336600461109c565b610964565b34801561042457600080fd5b50610438610433366004611165565b61099d565b60405161019e91906111da565b34801561045157600080fd5b5061027761046036600461109c565b610a92565b34801561047157600080fd5b50610277610480366004611135565b610bec565b60006001600160e01b03198216637965db0b60e01b14806104b657506301ffc9a760e01b6001600160e01b03198316145b92915050565b600180546104c99061123c565b80601f01602080910402602001604051908101604052809291908181526020018280546104f59061123c565b80156105425780601f1061051757610100808354040283529160200191610542565b820191906000526020600020905b81548152906001019060200180831161052557829003601f168201915b505050505081565b60006104b6818361093b565b60008281526020819052604090206001015461057181610c11565b61057b8383610c1e565b505050565b6001600160a01b03811633146105f55760405162461bcd60e51b815260206004820152602f60248201527f416363657373436f6e74726f6c3a2063616e206f6e6c792072656e6f756e636560448201526e103937b632b9903337b91039b2b63360891b60648201526084015b60405180910390fd5b6105ff8282610ca2565b5050565b61060e60003361093b565b61062a5760405162461bcd60e51b81526004016105ec90611276565b6000816001600160a01b03164760405160006040518083038185875af1925050503d8060008114610677576040519150601f19603f3d011682016040523d82523d6000602084013e61067c565b606091505b50509050806105ff5760405162461bcd60e51b81526020600482015260146024820152732330b4b632b2103a379039b2b7321022ba3432b960611b60448201526064016105ec565b6106cf60003361093b565b6106eb5760405162461bcd60e51b81526004016105ec90611276565b6001600160a01b038116600081815260026020526040808220805460ff19166001179055517fc3e089fc6227e049d0e41c3d7a383d57efe69c1955c5752f7e5a9b5f1f1130209190a250565b61074260003361093b565b61075e5760405162461bcd60e51b81526004016105ec90611276565b6001600160a01b038116600081815260026020526040808220805460ff19169055517f72977dad29432f655f11c2f0e72ef5124bb9ade7a512fb7a43a9f504df2234289190a250565b6107b260003361093b565b6107ce5760405162461bcd60e51b81526004016105ec90611276565b6107d88282610556565b67016345785d8a0000816001600160a01b03163110156105ff576000816001600160a01b031667016345785d8a000060405160006040518083038185875af1925050503d8060008114610847576040519150601f19603f3d011682016040523d82523d6000602084013e61084c565b606091505b505090508061057b5760405162461bcd60e51b815260206004820152601c60248201527f436f6d6d756e6e697479206e65656473206d6f72652065746865722e0000000060448201526064016105ec565b6108a860003361093b565b6108c45760405162461bcd60e51b81526004016105ec90611276565b6001600160a01b03811660009081526003602052604090205460ff161561091a576040516001600160a01b038216907f5a8e20baa8796ab20fa077fa27ed310aacb99e0f45a4fe14a7bd5af8f3fd6eaf90600090a25b6001600160a01b03166000908152600360205260409020805460ff19169055565b6000918252602082815260408084206001600160a01b0393909316845291905290205460ff1690565b6040516001600160a01b0382169032907fd5c80a2c58ac61253d52bedf9c2ab71759cbeff8bb3dfd1c20beba441f19dc7690600090a350565b60608167ffffffffffffffff8111156109b8576109b861129c565b6040519080825280602002602001820160405280156109eb57816020015b60608152602001906001900390816109d65790505b50905060005b82811015610a8b57610a5b30858584818110610a0f57610a0f6112b2565b9050602002810190610a2191906112c8565b8080601f016020809104026020016040519081016040528093929190818152602001838380828437600092019190915250610d0792505050565b828281518110610a6d57610a6d6112b2565b60200260200101819052508080610a839061132c565b9150506109f1565b5092915050565b610a9d60003361093b565b610ab95760405162461bcd60e51b81526004016105ec90611276565b6040516301ffc9a760e01b815262f718eb60e81b60048201526001600160a01b038216906301ffc9a790602401602060405180830381865afa158015610b03573d6000803e3d6000fd5b505050506040513d601f19601f82011682018060405250810190610b279190611345565b610b735760405162461bcd60e51b815260206004820152601f60248201527f70726f6a65637420696e74657266616365206e6f7420737570706f727465640060448201526064016105ec565b6001600160a01b03811660009081526003602052604090205460ff16610bc8576040516001600160a01b038216907f8b16df08b6a45161a2accfac7e351325ff3df2aed213dd821e0be370c010831c90600090a25b6001600160a01b03166000908152600360205260409020805460ff19166001179055565b600082815260208190526040902060010154610c0781610c11565b61057b8383610ca2565b610c1b8133610d33565b50565b610c28828261093b565b6105ff576000828152602081815260408083206001600160a01b03851684529091529020805460ff19166001179055610c5e3390565b6001600160a01b0316816001600160a01b0316837f2f8788117e7eff1d82e926ec794901d17c78024a50270940304540a733656f0d60405160405180910390a45050565b610cac828261093b565b156105ff576000828152602081815260408083206001600160a01b0385168085529252808320805460ff1916905551339285917ff6391f5c32d9c69d2a47ea670b442974b53935d1edc7fd64eb21e047a839171b9190a45050565b6060610d2c838360405180606001604052806027815260200161143a60279139610d8c565b9392505050565b610d3d828261093b565b6105ff57610d4a81610e04565b610d55836020610e16565b604051602001610d66929190611367565b60408051601f198184030181529082905262461bcd60e51b82526105ec91600401611109565b6060600080856001600160a01b031685604051610da991906113dc565b600060405180830381855af49150503d8060008114610de4576040519150601f19603f3d011682016040523d82523d6000602084013e610de9565b606091505b5091509150610dfa86838387610fb2565b9695505050505050565b60606104b66001600160a01b03831660145b60606000610e258360026113f8565b610e3090600261140f565b67ffffffffffffffff811115610e4857610e4861129c565b6040519080825280601f01601f191660200182016040528015610e72576020820181803683370190505b509050600360fc1b81600081518110610e8d57610e8d6112b2565b60200101906001600160f81b031916908160001a905350600f60fb1b81600181518110610ebc57610ebc6112b2565b60200101906001600160f81b031916908160001a9053506000610ee08460026113f8565b610eeb90600161140f565b90505b6001811115610f63576f181899199a1a9b1b9c1cb0b131b232b360811b85600f1660108110610f1f57610f1f6112b2565b1a60f81b828281518110610f3557610f356112b2565b60200101906001600160f81b031916908160001a90535060049490941c93610f5c81611422565b9050610eee565b508315610d2c5760405162461bcd60e51b815260206004820181905260248201527f537472696e67733a20686578206c656e67746820696e73756666696369656e7460448201526064016105ec565b6060831561102157825160000361101a576001600160a01b0385163b61101a5760405162461bcd60e51b815260206004820152601d60248201527f416464726573733a2063616c6c20746f206e6f6e2d636f6e747261637400000060448201526064016105ec565b508161102b565b61102b8383611033565b949350505050565b8151156110435781518083602001fd5b8060405162461bcd60e51b81526004016105ec9190611109565b60006020828403121561106f57600080fd5b81356001600160e01b031981168114610d2c57600080fd5b6001600160a01b0381168114610c1b57600080fd5b6000602082840312156110ae57600080fd5b8135610d2c81611087565b60005b838110156110d45781810151838201526020016110bc565b50506000910152565b600081518084526110f58160208601602086016110b9565b601f01601f19169290920160200192915050565b602081526000610d2c60208301846110dd565b60006020828403121561112e57600080fd5b5035919050565b6000806040838503121561114857600080fd5b82359150602083013561115a81611087565b809150509250929050565b6000806020838503121561117857600080fd5b823567ffffffffffffffff8082111561119057600080fd5b818501915085601f8301126111a457600080fd5b8135818111156111b357600080fd5b8660208260051b85010111156111c857600080fd5b60209290920196919550909350505050565b6000602080830181845280855180835260408601915060408160051b870101925083870160005b8281101561122f57603f1988860301845261121d8583516110dd565b94509285019290850190600101611201565b5092979650505050505050565b600181811c9082168061125057607f821691505b60208210810361127057634e487b7160e01b600052602260045260246000fd5b50919050565b6020808252600c908201526b2737ba1030b71030b236b4b760a11b604082015260600190565b634e487b7160e01b600052604160045260246000fd5b634e487b7160e01b600052603260045260246000fd5b6000808335601e198436030181126112df57600080fd5b83018035915067ffffffffffffffff8211156112fa57600080fd5b60200191503681900382131561130f57600080fd5b9250929050565b634e487b7160e01b600052601160045260246000fd5b60006001820161133e5761133e611316565b5060010190565b60006020828403121561135757600080fd5b81518015158114610d2c57600080fd5b7f416363657373436f6e74726f6c3a206163636f756e742000000000000000000081526000835161139f8160178501602088016110b9565b7001034b99036b4b9b9b4b733903937b6329607d1b60179184019182015283516113d08160288401602088016110b9565b01602801949350505050565b600082516113ee8184602087016110b9565b9190910192915050565b80820281158282048414176104b6576104b6611316565b808201808211156104b6576104b6611316565b60008161143157611431611316565b50600019019056fe416464726573733a206c6f772d6c6576656c2064656c65676174652063616c6c206661696c6564a2646970667358221220e859955514fbc5e19eaeea4fc819955973609be27f2d154b80991de65aad7e8b64736f6c63430008110033",
  "linkReferences": {},
  "deployedLinkReferences": {}
}