{
  "_format": "hh-sol-artifact-1",
  "contractName": "RahatCommunity",
  "sourceName": "src/contracts/RahatCommunity.sol",
  "abi": [
    {
      "inputs": [
        {
          "internalType": "string",
          "name": "_name",
          "type": "string"
        },
        {
          "internalType": "address",
          "name": "_admin",
          "type": "address"
        }
      ],
      "stateMutability": "nonpayable",
      "type": "constructor"
    },
    {
      "anonymous": false,
      "inputs": [
        {
          "indexed": true,
          "internalType": "address",
          "name": "_address",
          "type": "address"
        }
      ],
      "name": "BeneficiaryAdded",
      "type": "event"
    },
    {
      "anonymous": false,
      "inputs": [
        {
          "indexed": true,
          "internalType": "address",
          "name": "_address",
          "type": "address"
        }
      ],
      "name": "BeneficiaryRemoved",
      "type": "event"
    },
    {
      "anonymous": false,
      "inputs": [
        {
          "indexed": true,
          "internalType": "address",
          "name": "requestor",
          "type": "address"
        },
        {
          "indexed": true,
          "internalType": "address",
          "name": "project",
          "type": "address"
        }
      ],
      "name": "ProjectRequested",
      "type": "event"
    },
    {
      "anonymous": false,
      "inputs": [
        {
          "indexed": true,
          "internalType": "bytes32",
          "name": "role",
          "type": "bytes32"
        },
        {
          "indexed": true,
          "internalType": "bytes32",
          "name": "previousAdminRole",
          "type": "bytes32"
        },
        {
          "indexed": true,
          "internalType": "bytes32",
          "name": "newAdminRole",
          "type": "bytes32"
        }
      ],
      "name": "RoleAdminChanged",
      "type": "event"
    },
    {
      "anonymous": false,
      "inputs": [
        {
          "indexed": true,
          "internalType": "bytes32",
          "name": "role",
          "type": "bytes32"
        },
        {
          "indexed": true,
          "internalType": "address",
          "name": "account",
          "type": "address"
        },
        {
          "indexed": true,
          "internalType": "address",
          "name": "sender",
          "type": "address"
        }
      ],
      "name": "RoleGranted",
      "type": "event"
    },
    {
      "anonymous": false,
      "inputs": [
        {
          "indexed": true,
          "internalType": "bytes32",
          "name": "role",
          "type": "bytes32"
        },
        {
          "indexed": true,
          "internalType": "address",
          "name": "account",
          "type": "address"
        },
        {
          "indexed": true,
          "internalType": "address",
          "name": "sender",
          "type": "address"
        }
      ],
      "name": "RoleRevoked",
      "type": "event"
    },
    {
      "anonymous": false,
      "inputs": [
        {
          "indexed": true,
          "internalType": "address",
          "name": "_address",
          "type": "address"
        }
      ],
      "name": "VendorAdded",
      "type": "event"
    },
    {
      "anonymous": false,
      "inputs": [
        {
          "indexed": true,
          "internalType": "address",
          "name": "_address",
          "type": "address"
        }
      ],
      "name": "VendorRemoved",
      "type": "event"
    },
    {
      "inputs": [],
      "name": "DEFAULT_ADMIN_ROLE",
      "outputs": [
        {
          "internalType": "bytes32",
          "name": "",
          "type": "bytes32"
        }
      ],
      "stateMutability": "view",
      "type": "function"
    },
    {
      "inputs": [
        {
          "internalType": "address",
          "name": "_address",
          "type": "address"
        }
      ],
      "name": "addBeneficiary",
      "outputs": [],
      "stateMutability": "nonpayable",
      "type": "function"
    },
    {
      "inputs": [
        {
          "internalType": "address",
          "name": "_projectAddress",
          "type": "address"
        }
      ],
      "name": "addProject",
      "outputs": [],
      "stateMutability": "nonpayable",
      "type": "function"
    },
    {
      "inputs": [
        {
          "internalType": "address",
          "name": "_address",
          "type": "address"
        }
      ],
      "name": "addVendor",
      "outputs": [],
      "stateMutability": "nonpayable",
      "type": "function"
    },
    {
      "inputs": [
        {
          "internalType": "bytes32",
          "name": "role",
          "type": "bytes32"
        }
      ],
      "name": "getRoleAdmin",
      "outputs": [
        {
          "internalType": "bytes32",
          "name": "",
          "type": "bytes32"
        }
      ],
      "stateMutability": "view",
      "type": "function"
    },
    {
      "inputs": [
        {
          "internalType": "bytes32",
          "name": "role",
          "type": "bytes32"
        },
        {
          "internalType": "address",
          "name": "account",
          "type": "address"
        }
      ],
      "name": "grantRole",
      "outputs": [],
      "stateMutability": "nonpayable",
      "type": "function"
    },
    {
      "inputs": [
        {
          "internalType": "bytes32",
          "name": "role",
          "type": "bytes32"
        },
        {
          "internalType": "address",
          "name": "account",
          "type": "address"
        }
      ],
      "name": "hasRole",
      "outputs": [
        {
          "internalType": "bool",
          "name": "",
          "type": "bool"
        }
      ],
      "stateMutability": "view",
      "type": "function"
    },
    {
      "inputs": [
        {
          "internalType": "address",
          "name": "_address",
          "type": "address"
        }
      ],
      "name": "isAdmin",
      "outputs": [
        {
          "internalType": "bool",
          "name": "",
          "type": "bool"
        }
      ],
      "stateMutability": "view",
      "type": "function"
    },
    {
      "inputs": [
        {
          "internalType": "address",
          "name": "",
          "type": "address"
        }
      ],
      "name": "isBeneficiary",
      "outputs": [
        {
          "internalType": "bool",
          "name": "",
          "type": "bool"
        }
      ],
      "stateMutability": "view",
      "type": "function"
    },
    {
      "inputs": [
        {
          "internalType": "address",
          "name": "_address",
          "type": "address"
        }
      ],
      "name": "isVendor",
      "outputs": [
        {
          "internalType": "bool",
          "name": "",
          "type": "bool"
        }
      ],
      "stateMutability": "view",
      "type": "function"
    },
    {
      "inputs": [
        {
          "internalType": "uint256",
          "name": "start",
          "type": "uint256"
        },
        {
          "internalType": "uint256",
          "name": "limit",
          "type": "uint256"
        }
      ],
      "name": "listProjects",
      "outputs": [
        {
          "internalType": "address[]",
          "name": "_addresses",
          "type": "address[]"
        }
      ],
      "stateMutability": "view",
      "type": "function"
    },
    {
      "inputs": [],
      "name": "name",
      "outputs": [
        {
          "internalType": "string",
          "name": "",
          "type": "string"
        }
      ],
      "stateMutability": "view",
      "type": "function"
    },
    {
      "inputs": [],
      "name": "projectCount",
      "outputs": [
        {
          "internalType": "uint256",
          "name": "",
          "type": "uint256"
        }
      ],
      "stateMutability": "view",
      "type": "function"
    },
    {
      "inputs": [
        {
          "internalType": "address",
          "name": "_projectAddress",
          "type": "address"
        }
      ],
      "name": "projectExists",
      "outputs": [
        {
          "internalType": "bool",
          "name": "",
          "type": "bool"
        }
      ],
      "stateMutability": "view",
      "type": "function"
    },
    {
      "inputs": [
        {
          "internalType": "address",
          "name": "_address",
          "type": "address"
        }
      ],
      "name": "removeBeneficiary",
      "outputs": [],
      "stateMutability": "nonpayable",
      "type": "function"
    },
    {
      "inputs": [
        {
          "internalType": "address",
          "name": "_projectAddress",
          "type": "address"
        }
      ],
      "name": "removeProject",
      "outputs": [],
      "stateMutability": "nonpayable",
      "type": "function"
    },
    {
      "inputs": [
        {
          "internalType": "address",
          "name": "_address",
          "type": "address"
        }
      ],
      "name": "removeVendor",
      "outputs": [],
      "stateMutability": "nonpayable",
      "type": "function"
    },
    {
      "inputs": [
        {
          "internalType": "bytes32",
          "name": "role",
          "type": "bytes32"
        },
        {
          "internalType": "address",
          "name": "account",
          "type": "address"
        }
      ],
      "name": "renounceRole",
      "outputs": [],
      "stateMutability": "nonpayable",
      "type": "function"
    },
    {
      "inputs": [
        {
          "internalType": "address",
          "name": "_projectAddress",
          "type": "address"
        }
      ],
      "name": "requestToAddProject",
      "outputs": [],
      "stateMutability": "nonpayable",
      "type": "function"
    },
    {
      "inputs": [
        {
          "internalType": "bytes32",
          "name": "role",
          "type": "bytes32"
        },
        {
          "internalType": "address",
          "name": "account",
          "type": "address"
        }
      ],
      "name": "revokeRole",
      "outputs": [],
      "stateMutability": "nonpayable",
      "type": "function"
    },
    {
      "inputs": [
        {
          "internalType": "bytes4",
          "name": "interfaceId",
          "type": "bytes4"
        }
      ],
      "name": "supportsInterface",
      "outputs": [
        {
          "internalType": "bool",
          "name": "",
          "type": "bool"
        }
      ],
      "stateMutability": "view",
      "type": "function"
    }
  ],
  "bytecode": "0x60806040523480156200001157600080fd5b50604051620013fa380380620013fa8339810160408190526200003491620001b3565b6200004160008262000085565b6200006e7f0aaf57387812c7f832412470a57567b5648a930069be49aa9c98d04f88520d34600062000095565b60016200007c83826200032a565b505050620003f6565b620000918282620000e0565b5050565b600082815260208190526040808220600101805490849055905190918391839186917fbd79b86ffe0ab8e8776151514217cd7cacd52c909f66475c3af44e129f0b00ff9190a4505050565b6000828152602081815260408083206001600160a01b038516845290915290205460ff1662000091576000828152602081815260408083206001600160a01b03851684529091529020805460ff191660011790556200013c3390565b6001600160a01b0316816001600160a01b0316837f2f8788117e7eff1d82e926ec794901d17c78024a50270940304540a733656f0d60405160405180910390a45050565b634e487b7160e01b600052604160045260246000fd5b80516001600160a01b0381168114620001ae57600080fd5b919050565b60008060408385031215620001c757600080fd5b82516001600160401b0380821115620001df57600080fd5b818501915085601f830112620001f457600080fd5b81518181111562000209576200020962000180565b604051601f8201601f19908116603f0116810190838211818310171562000234576200023462000180565b816040528281526020935088848487010111156200025157600080fd5b600091505b8282101562000275578482018401518183018501529083019062000256565b60008484830101528096505050506200029081860162000196565b925050509250929050565b600181811c90821680620002b057607f821691505b602082108103620002d157634e487b7160e01b600052602260045260246000fd5b50919050565b601f8211156200032557600081815260208120601f850160051c81016020861015620003005750805b601f850160051c820191505b8181101562000321578281556001016200030c565b5050505b505050565b81516001600160401b0381111562000346576200034662000180565b6200035e816200035784546200029b565b84620002d7565b602080601f8311600181146200039657600084156200037d5750858301515b600019600386901b1c1916600185901b17855562000321565b600085815260208120601f198616915b82811015620003c757888601518255948401946001909101908401620003a6565b5085821015620003e65787850151600019600388901b60f8161c191681555b5050505050600190811b01905550565b610ff480620004066000396000f3fe608060405234801561001057600080fd5b50600436106101175760003560e01c806354b622c9116100a857806354b622c9146102135780635926651d1461022657806359633a1c14610239578063623d56521461024c5780637c56b7981461025f57806391d14854146102725780639d19b22614610285578063a217fddf146102a8578063cc4c84db146102b0578063d547741f146102c3578063ee54d54f146102d657600080fd5b806301ffc9a71461011c57806306fdde03146101445780630c0ad29914610159578063248a9ca31461016e57806324d7806c1461019f5780632f2ff15d146101b257806336568abe146101c557806336fbad26146101d85780633eb66ceb146101e057806345e0f75314610200575b600080fd5b61012f61012a366004610c9e565b6102e9565b60405190151581526020015b60405180910390f35b61014c610320565b60405161013b9190610cec565b61016c610167366004610d3b565b6103ae565b005b61019161017c366004610d56565b60009081526020819052604090206001015490565b60405190815260200161013b565b61012f6101ad366004610d3b565b6103ed565b61016c6101c0366004610d6f565b6103f9565b61016c6101d3366004610d6f565b610423565b61019161049d565b6101f36101ee366004610d9b565b6104ae565b60405161013b9190610dbd565b61016c61020e366004610d3b565b610513565b61016c610221366004610d3b565b610589565b61016c610234366004610d3b565b6105ff565b61016c610247366004610d3b565b610672565b61012f61025a366004610d3b565b6106e2565b61016c61026d366004610d3b565b6106ef565b61012f610280366004610d6f565b610721565b61012f610293366004610d3b565b60026020526000908152604090205460ff1681565b610191600081565b61016c6102be366004610d3b565b61074a565b61016c6102d1366004610d6f565b610783565b61012f6102e4366004610d3b565b6107a8565b60006001600160e01b03198216637965db0b60e01b148061031a57506301ffc9a760e01b6001600160e01b03198316145b92915050565b6001805461032d90610e0a565b80601f016020809104026020016040519081016040528092919081815260200182805461035990610e0a565b80156103a65780601f1061037b576101008083540402835291602001916103a6565b820191906000526020600020905b81548152906001019060200180831161038957829003601f168201915b505050505081565b6103b9600033610721565b6103de5760405162461bcd60e51b81526004016103d590610e44565b60405180910390fd5b6103e96003826107c2565b5050565b600061031a8183610721565b600082815260208190526040902060010154610414816107de565b61041e83836107eb565b505050565b6001600160a01b03811633146104935760405162461bcd60e51b815260206004820152602f60248201527f416363657373436f6e74726f6c3a2063616e206f6e6c792072656e6f756e636560448201526e103937b632b9903337b91039b2b63360891b60648201526084016103d5565b6103e9828261086f565b60006104a960036108d4565b905090565b606060005b8281101561050c576104d06104c88286610e80565b6003906108de565b8282815181106104e2576104e2610e93565b6001600160a01b03909216602092830291909101909101528061050481610ea9565b9150506104b3565b5092915050565b61051e600033610721565b61053a5760405162461bcd60e51b81526004016103d590610e44565b610552600080516020610f9f833981519152826108ea565b6040516001600160a01b038216907f187ea8b96b8ec4b770e46a85aa7421402f105827e5d2bb0705259f060c6043cb90600090a250565b610594600033610721565b6105b05760405162461bcd60e51b81526004016103d590610e44565b6105c8600080516020610f9f8339815191528261086f565b6040516001600160a01b038216907fceb8b5081e60cbeafb2db1ed5f2ef32309a5ba1d0d74ac127be270181f297e5890600090a250565b61060a600033610721565b6106265760405162461bcd60e51b81526004016103d590610e44565b6001600160a01b038116600081815260026020526040808220805460ff19166001179055517fc3e089fc6227e049d0e41c3d7a383d57efe69c1955c5752f7e5a9b5f1f1130209190a250565b61067d600033610721565b6106995760405162461bcd60e51b81526004016103d590610e44565b6001600160a01b038116600081815260026020526040808220805460ff19169055517f72977dad29432f655f11c2f0e72ef5124bb9ade7a512fb7a43a9f504df2234289190a250565b600061031a6003836108f4565b6106fa600033610721565b6107165760405162461bcd60e51b81526004016103d590610e44565b6103e9600382610916565b6000918252602082815260408084206001600160a01b0393909316845291905290205460ff1690565b6040516001600160a01b0382169032907f14f9e4d207f438974ccdee551b59f3ca5ee6e584d090a6da28105bcf321f958790600090a350565b60008281526020819052604090206001015461079e816107de565b61041e838361086f565b600061031a600080516020610f9f83398151915283610721565b60006107d7836001600160a01b03841661092b565b9392505050565b6107e88133610a1e565b50565b6107f58282610721565b6103e9576000828152602081815260408083206001600160a01b03851684529091529020805460ff1916600117905561082b3390565b6001600160a01b0316816001600160a01b0316837f2f8788117e7eff1d82e926ec794901d17c78024a50270940304540a733656f0d60405160405180910390a45050565b6108798282610721565b156103e9576000828152602081815260408083206001600160a01b0385168085529252808320805460ff1916905551339285917ff6391f5c32d9c69d2a47ea670b442974b53935d1edc7fd64eb21e047a839171b9190a45050565b600061031a825490565b60006107d78383610a77565b6103e982826107eb565b6001600160a01b038116600090815260018301602052604081205415156107d7565b60006107d7836001600160a01b038416610aa1565b60008181526001830160205260408120548015610a1457600061094f600183610ec2565b855490915060009061096390600190610ec2565b90508181146109c857600086600001828154811061098357610983610e93565b90600052602060002001549050808760000184815481106109a6576109a6610e93565b6000918252602080832090910192909255918252600188019052604090208390555b85548690806109d9576109d9610ed5565b60019003818190600052602060002001600090559055856001016000868152602001908152602001600020600090556001935050505061031a565b600091505061031a565b610a288282610721565b6103e957610a3581610af0565b610a40836020610b02565b604051602001610a51929190610eeb565b60408051601f198184030181529082905262461bcd60e51b82526103d591600401610cec565b6000826000018281548110610a8e57610a8e610e93565b9060005260206000200154905092915050565b6000818152600183016020526040812054610ae85750815460018181018455600084815260208082209093018490558454848252828601909352604090209190915561031a565b50600061031a565b606061031a6001600160a01b03831660145b60606000610b11836002610f5a565b610b1c906002610e80565b67ffffffffffffffff811115610b3457610b34610f71565b6040519080825280601f01601f191660200182016040528015610b5e576020820181803683370190505b509050600360fc1b81600081518110610b7957610b79610e93565b60200101906001600160f81b031916908160001a905350600f60fb1b81600181518110610ba857610ba8610e93565b60200101906001600160f81b031916908160001a9053506000610bcc846002610f5a565b610bd7906001610e80565b90505b6001811115610c4f576f181899199a1a9b1b9c1cb0b131b232b360811b85600f1660108110610c0b57610c0b610e93565b1a60f81b828281518110610c2157610c21610e93565b60200101906001600160f81b031916908160001a90535060049490941c93610c4881610f87565b9050610bda565b5083156107d75760405162461bcd60e51b815260206004820181905260248201527f537472696e67733a20686578206c656e67746820696e73756666696369656e7460448201526064016103d5565b600060208284031215610cb057600080fd5b81356001600160e01b0319811681146107d757600080fd5b60005b83811015610ce3578181015183820152602001610ccb565b50506000910152565b6020815260008251806020840152610d0b816040850160208701610cc8565b601f01601f19169190910160400192915050565b80356001600160a01b0381168114610d3657600080fd5b919050565b600060208284031215610d4d57600080fd5b6107d782610d1f565b600060208284031215610d6857600080fd5b5035919050565b60008060408385031215610d8257600080fd5b82359150610d9260208401610d1f565b90509250929050565b60008060408385031215610dae57600080fd5b50508035926020909101359150565b6020808252825182820181905260009190848201906040850190845b81811015610dfe5783516001600160a01b031683529284019291840191600101610dd9565b50909695505050505050565b600181811c90821680610e1e57607f821691505b602082108103610e3e57634e487b7160e01b600052602260045260246000fd5b50919050565b6020808252600c908201526b2737ba1030b71030b236b4b760a11b604082015260600190565b634e487b7160e01b600052601160045260246000fd5b8082018082111561031a5761031a610e6a565b634e487b7160e01b600052603260045260246000fd5b600060018201610ebb57610ebb610e6a565b5060010190565b8181038181111561031a5761031a610e6a565b634e487b7160e01b600052603160045260246000fd5b76020b1b1b2b9b9a1b7b73a3937b61d1030b1b1b7bab73a1604d1b815260008351610f1d816017850160208801610cc8565b7001034b99036b4b9b9b4b733903937b6329607d1b6017918401918201528351610f4e816028840160208801610cc8565b01602801949350505050565b808202811582820484141761031a5761031a610e6a565b634e487b7160e01b600052604160045260246000fd5b600081610f9657610f96610e6a565b50600019019056fe0aaf57387812c7f832412470a57567b5648a930069be49aa9c98d04f88520d34a2646970667358221220473e761dde51427a5dc3f39b185187c9b6f056cfa437c33a48153056dab3913364736f6c63430008110033",
  "linkReferences": {},
  "deployedLinkReferences": {}
}