{
  "_format": "hh-sol-artifact-1",
  "contractName": "RahatDonor",
  "sourceName": "src/contracts/RahatDonor.sol",
  "abi": [
    {
      "inputs": [
        {
          "internalType": "address",
          "name": "_admin",
          "type": "address"
        }
      ],
      "stateMutability": "nonpayable",
      "type": "constructor"
    },
    {
      "anonymous": false,
      "inputs": [
        {
          "indexed": true,
          "internalType": "address",
          "name": "",
          "type": "address"
        }
      ],
      "name": "OwnerAdded",
      "type": "event"
    },
    {
      "anonymous": false,
      "inputs": [
        {
          "indexed": true,
          "internalType": "address",
          "name": "",
          "type": "address"
        }
      ],
      "name": "OwnerRemoved",
      "type": "event"
    },
    {
      "anonymous": false,
      "inputs": [
        {
          "indexed": true,
          "internalType": "address",
          "name": "tokenAddress",
          "type": "address"
        }
      ],
      "name": "TokenCreated",
      "type": "event"
    },
    {
      "anonymous": false,
      "inputs": [
        {
          "indexed": true,
          "internalType": "address",
          "name": "tokenAddress",
          "type": "address"
        },
        {
          "indexed": true,
          "internalType": "address",
          "name": "approveAddress",
          "type": "address"
        },
        {
          "indexed": false,
          "internalType": "uint256",
          "name": "amount",
          "type": "uint256"
        }
      ],
      "name": "TokenMintedAndApproved",
      "type": "event"
    },
    {
      "inputs": [],
      "name": "IID_RAHAT_DONOR",
      "outputs": [
        {
          "internalType": "bytes4",
          "name": "",
          "type": "bytes4"
        }
      ],
      "stateMutability": "view",
      "type": "function"
    },
    {
      "inputs": [
        {
          "internalType": "address",
          "name": "_address",
          "type": "address"
        }
      ],
      "name": "addOwner",
      "outputs": [
        {
          "internalType": "bool",
          "name": "success",
          "type": "bool"
        }
      ],
      "stateMutability": "nonpayable",
      "type": "function"
    },
    {
      "inputs": [
        {
          "internalType": "address",
          "name": "_token",
          "type": "address"
        },
        {
          "internalType": "address",
          "name": "_ownerAddress",
          "type": "address"
        }
      ],
      "name": "addTokenOwner",
      "outputs": [],
      "stateMutability": "nonpayable",
      "type": "function"
    },
    {
      "inputs": [
        {
          "internalType": "address",
          "name": "_token",
          "type": "address"
        },
        {
          "internalType": "address",
          "name": "_spender",
          "type": "address"
        },
        {
          "internalType": "uint256",
          "name": "_amount",
          "type": "uint256"
        }
      ],
      "name": "approveToken",
      "outputs": [],
      "stateMutability": "nonpayable",
      "type": "function"
    },
    {
      "inputs": [
        {
          "internalType": "address",
          "name": "_token",
          "type": "address"
        },
        {
          "internalType": "address",
          "name": "_from",
          "type": "address"
        },
        {
          "internalType": "uint256",
          "name": "_amount",
          "type": "uint256"
        }
      ],
      "name": "claimToken",
      "outputs": [],
      "stateMutability": "nonpayable",
      "type": "function"
    },
    {
      "inputs": [
        {
          "internalType": "string",
          "name": "_name",
          "type": "string"
        },
        {
          "internalType": "string",
          "name": "_symbol",
          "type": "string"
        },
        {
          "internalType": "uint8",
          "name": "decimals",
          "type": "uint8"
        }
      ],
      "name": "createToken",
      "outputs": [
        {
          "internalType": "address",
          "name": "",
          "type": "address"
        }
      ],
      "stateMutability": "nonpayable",
      "type": "function"
    },
    {
      "inputs": [
        {
          "internalType": "address",
          "name": "_token",
          "type": "address"
        },
        {
          "internalType": "address",
          "name": "_from",
          "type": "address"
        }
      ],
      "name": "getAllowanceAndBalance",
      "outputs": [
        {
          "internalType": "uint256",
          "name": "allowance",
          "type": "uint256"
        },
        {
          "internalType": "uint256",
          "name": "balance",
          "type": "uint256"
        }
      ],
      "stateMutability": "view",
      "type": "function"
    },
    {
      "inputs": [
        {
          "internalType": "address",
          "name": "_address",
          "type": "address"
        }
      ],
      "name": "isOwner",
      "outputs": [
        {
          "internalType": "bool",
          "name": "",
          "type": "bool"
        }
      ],
      "stateMutability": "view",
      "type": "function"
    },
    {
      "inputs": [],
      "name": "listOwners",
      "outputs": [
        {
          "internalType": "address[]",
          "name": "",
          "type": "address[]"
        }
      ],
      "stateMutability": "view",
      "type": "function"
    },
    {
      "inputs": [
        {
          "internalType": "address",
          "name": "_address",
          "type": "address"
        }
      ],
      "name": "lockProject",
      "outputs": [],
      "stateMutability": "nonpayable",
      "type": "function"
    },
    {
      "inputs": [
        {
          "internalType": "address",
          "name": "_token",
          "type": "address"
        },
        {
          "internalType": "uint256",
          "name": "_amount",
          "type": "uint256"
        }
      ],
      "name": "mintToken",
      "outputs": [],
      "stateMutability": "nonpayable",
      "type": "function"
    },
    {
      "inputs": [
        {
          "internalType": "address",
          "name": "_token",
          "type": "address"
        },
        {
          "internalType": "address",
          "name": "_approveAddress",
          "type": "address"
        },
        {
          "internalType": "uint256",
          "name": "_amount",
          "type": "uint256"
        }
      ],
      "name": "mintTokenAndApprove",
      "outputs": [],
      "stateMutability": "nonpayable",
      "type": "function"
    },
    {
      "inputs": [
        {
          "internalType": "bytes[]",
          "name": "data",
          "type": "bytes[]"
        }
      ],
      "name": "multicall",
      "outputs": [
        {
          "internalType": "bytes[]",
          "name": "results",
          "type": "bytes[]"
        }
      ],
      "stateMutability": "nonpayable",
      "type": "function"
    },
    {
      "inputs": [],
      "name": "ownerCount",
      "outputs": [
        {
          "internalType": "uint256",
          "name": "",
          "type": "uint256"
        }
      ],
      "stateMutability": "view",
      "type": "function"
    },
    {
      "inputs": [
        {
          "internalType": "address",
          "name": "_address",
          "type": "address"
        }
      ],
      "name": "removeOwner",
      "outputs": [
        {
          "internalType": "bool",
          "name": "success",
          "type": "bool"
        }
      ],
      "stateMutability": "nonpayable",
      "type": "function"
    },
    {
      "inputs": [
        {
          "internalType": "bytes4",
          "name": "interfaceId",
          "type": "bytes4"
        }
      ],
      "name": "supportsInterface",
      "outputs": [
        {
          "internalType": "bool",
          "name": "",
          "type": "bool"
        }
      ],
      "stateMutability": "view",
      "type": "function"
    },
    {
      "inputs": [
        {
          "internalType": "address",
          "name": "_token",
          "type": "address"
        },
        {
          "internalType": "address",
          "name": "_from",
          "type": "address"
        },
        {
          "internalType": "address",
          "name": "_to",
          "type": "address"
        },
        {
          "internalType": "uint256",
          "name": "_amount",
          "type": "uint256"
        }
      ],
      "name": "transferFromToken",
      "outputs": [],
      "stateMutability": "nonpayable",
      "type": "function"
    },
    {
      "inputs": [
        {
          "internalType": "address",
          "name": "_token",
          "type": "address"
        },
        {
          "internalType": "address",
          "name": "_to",
          "type": "address"
        },
        {
          "internalType": "uint256",
          "name": "_amount",
          "type": "uint256"
        }
      ],
      "name": "transferToken",
      "outputs": [],
      "stateMutability": "nonpayable",
      "type": "function"
    },
    {
      "inputs": [
        {
          "internalType": "address",
          "name": "_address",
          "type": "address"
        }
      ],
      "name": "unlockProject",
      "outputs": [],
      "stateMutability": "nonpayable",
      "type": "function"
    }
  ],
  "bytecode": "0x608060405260326000553480156200001657600080fd5b506040516200356b3803806200356b833981016040819052620000399162000184565b62000044816200004c565b5050620001af565b600080546200006760016200010360201b62000caf1760201c565b1115620000ac5760405162461bcd60e51b815260206004820152600f60248201526e1bdddb995c9cc8195e18d959591959608a1b604482015260640160405180910390fd5b620000c78260016200011460201b62000cba1790919060201c565b6040519091506001600160a01b038316907f994a936646fe87ffe4f1e469d3d6aa417d6b855598397f323de5b449f765f0c390600090a2919050565b60006200010e825490565b92915050565b60006200012b836001600160a01b03841662000132565b9392505050565b60008181526001830160205260408120546200017b575081546001818101845560008481526020808220909301849055845484825282860190935260409020919091556200010e565b5060006200010e565b6000602082840312156200019757600080fd5b81516001600160a01b03811681146200012b57600080fd5b6133ac80620001bf6000396000f3fe60806040523480156200001157600080fd5b5060043610620001175760003560e01c806379c6506811620000aa57806379c65068146200021a5780637f89328f14620002315780639a7b612a14620002485780639c1f22261462000271578063ac9650d81462000288578063da3e339714620002ae578063e8a0aed314620002c5578063ed60c0fc14620002eb578063f5537ede1462000304578063fb3c0d70146200031b57600080fd5b806301ffc9a7146200011c5780630db026221462000148578063125bfb661462000161578063173825d9146200017a5780632cb5568e14620001915780632f54bf6e14620001a85780634937b17414620001bf5780635297bfcd14620001ec5780637065cb481462000203575b600080fd5b620001336200012d366004620010d9565b62000332565b60405190151581526020015b60405180910390f35b620001526200036a565b6040519081526020016200013f565b62000178620001723660046200111d565b6200037d565b005b620001336200018b3660046200115e565b62000430565b62000178620001a23660046200117c565b620004a7565b62000133620001b93660046200115e565b6200054c565b620001d6620001d03660046200117c565b6200055b565b604080519283526020830191909152016200013f565b62000178620001fd3660046200115e565b62000651565b62000133620002143660046200115e565b620006d5565b620001786200022b366004620011ab565b62000713565b62000178620002423660046200111d565b620007b5565b62000257630cd2075160e01b81565b6040516001600160e01b031990911681526020016200013f565b62000178620002823660046200115e565b62000925565b6200029f62000299366004620011d8565b6200098d565b6040516200013f9190620012a5565b62000178620002bf3660046200111d565b62000a94565b620002dc620002d6366004620013b5565b62000af0565b6040516200013f91906200143a565b620002f562000ba1565b6040516200013f91906200144e565b62000178620003153660046200111d565b62000baf565b620001786200032c3660046200149d565b62000c0b565b60006001600160e01b03198216630cd2075160e01b14806200036457506301ffc9a760e01b6001600160e01b03198316145b92915050565b600062000378600162000caf565b905090565b6200038a60013362000cd8565b620003b25760405162461bcd60e51b8152600401620003a990620014ef565b60405180910390fd5b6040516323b872dd60e01b81526001600160a01b038416906323b872dd90620003e49085903090869060040162001536565b6020604051808303816000875af115801562000404573d6000803e3d6000fd5b505050506040513d601f19601f820116820180604052508101906200042a91906200155a565b50505050565b60006200043f60013362000cd8565b6200045e5760405162461bcd60e51b8152600401620003a990620014ef565b6200046b60018362000cfb565b6040519091506001600160a01b038316907f58619076adf5bb0943d100ef88d52d7c3fd691b19d3a9071b555b651fbf418da90600090a2919050565b620004b460013362000cd8565b620004d35760405162461bcd60e51b8152600401620003a990620014ef565b604051630e0cb96960e31b81526001600160a01b03831690637065cb4890620005019084906004016200143a565b6020604051808303816000875af115801562000521573d6000803e3d6000fd5b505050506040513d601f19601f820116820180604052508101906200054791906200155a565b505050565b60006200036460018362000cd8565b604051636eb1769f60e11b81526001600160a01b038281166004830152306024830152600091829185169063dd62ed3e90604401602060405180830381865afa158015620005ad573d6000803e3d6000fd5b505050506040513d601f19601f82011682018060405250810190620005d391906200157e565b6040516370a0823160e01b81529092506001600160a01b038516906370a0823190620006049030906004016200143a565b602060405180830381865afa15801562000622573d6000803e3d6000fd5b505050506040513d601f19601f820116820180604052508101906200064891906200157e565b90509250929050565b6200065e60013362000cd8565b6200067d5760405162461bcd60e51b8152600401620003a990620014ef565b806001600160a01b03166398815c7f6040518163ffffffff1660e01b8152600401600060405180830381600087803b158015620006b957600080fd5b505af1158015620006ce573d6000803e3d6000fd5b5050505050565b6000620006e460013362000cd8565b620007035760405162461bcd60e51b8152600401620003a990620014ef565b620003648262000d12565b919050565b6200072060013362000cd8565b6200073f5760405162461bcd60e51b8152600401620003a990620014ef565b6040516340c10f1960e01b81526001600160a01b038316906340c10f19906200076f903090859060040162001598565b6020604051808303816000875af11580156200078f573d6000803e3d6000fd5b505050506040513d601f19601f820116820180604052508101906200054791906200157e565b620007c260013362000cd8565b620007e15760405162461bcd60e51b8152600401620003a990620014ef565b6040516340c10f1960e01b815283906001600160a01b038216906340c10f199062000813903090869060040162001598565b6020604051808303816000875af115801562000833573d6000803e3d6000fd5b505050506040513d601f19601f820116820180604052508101906200085991906200157e565b5060405163095ea7b360e01b81526001600160a01b0382169063095ea7b3906200088a908690869060040162001598565b6020604051808303816000875af1158015620008aa573d6000803e3d6000fd5b505050506040513d601f19601f82011682018060405250810190620008d091906200155a565b50826001600160a01b0316846001600160a01b03167fdc6904c4e8e3746f835eb600662c644c895c758995784a4b39c68f75355b2d27846040516200091791815260200190565b60405180910390a350505050565b6200093260013362000cd8565b620009515760405162461bcd60e51b8152600401620003a990620014ef565b806001600160a01b03166314e6d3d46040518163ffffffff1660e01b8152600401600060405180830381600087803b158015620006b957600080fd5b6060816001600160401b03811115620009aa57620009aa6200130b565b604051908082528060200260200182016040528015620009df57816020015b6060815260200190600190039081620009c95790505b50905060005b8281101562000a8d5762000a573085858481811062000a085762000a08620015b1565b905060200281019062000a1c9190620015c7565b8080601f01602080910402602001604051908101604052809392919081815260200183838082843760009201919091525062000dad92505050565b82828151811062000a6c5762000a6c620015b1565b6020026020010181905250808062000a84906200162d565b915050620009e5565b5092915050565b62000aa160013362000cd8565b62000ac05760405162461bcd60e51b8152600401620003a990620014ef565b60405163095ea7b360e01b81526001600160a01b0384169063095ea7b390620003e4908590859060040162001598565b600062000aff60013362000cd8565b62000b1e5760405162461bcd60e51b8152600401620003a990620014ef565b60008484308560405162000b3290620010cb565b62000b41949392919062001649565b604051809103906000f08015801562000b5e573d6000803e3d6000fd5b5060405190915081906001600160a01b038216907f2e2b3f61b70d2d131b2a807371103cc98d51adcaa5e9a8f9c32658ad8426e74e90600090a295945050505050565b606062000378600162000dd5565b62000bbc60013362000cd8565b62000bdb5760405162461bcd60e51b8152600401620003a990620014ef565b60405163a9059cbb60e01b81526001600160a01b0384169063a9059cbb90620003e4908590859060040162001598565b62000c1860013362000cd8565b62000c375760405162461bcd60e51b8152600401620003a990620014ef565b6040516323b872dd60e01b81526001600160a01b038516906323b872dd9062000c699086908690869060040162001536565b6020604051808303816000875af115801562000c89573d6000803e3d6000fd5b505050506040513d601f19601f82011682018060405250810190620006ce91906200155a565b600062000364825490565b600062000cd1836001600160a01b03841662000de4565b9392505050565b6001600160a01b0381166000908152600183016020526040812054151562000cd1565b600062000cd1836001600160a01b03841662000e36565b6000805462000d22600162000caf565b111562000d645760405162461bcd60e51b815260206004820152600f60248201526e1bdddb995c9cc8195e18d959591959608a1b6044820152606401620003a9565b62000d7160018362000cba565b6040519091506001600160a01b038316907f994a936646fe87ffe4f1e469d3d6aa417d6b855598397f323de5b449f765f0c390600090a2919050565b606062000cd18383604051806060016040528060278152602001620033506027913962000f3a565b6060600062000cd18362000fb8565b600081815260018301602052604081205462000e2d5750815460018181018455600084815260208082209093018490558454848252828601909352604090209190915562000364565b50600062000364565b6000818152600183016020526040812054801562000f2f57600062000e5d60018362001697565b855490915060009062000e739060019062001697565b905081811462000edf57600086600001828154811062000e975762000e97620015b1565b906000526020600020015490508087600001848154811062000ebd5762000ebd620015b1565b6000918252602080832090910192909255918252600188019052604090208390555b855486908062000ef35762000ef3620016ad565b60019003818190600052602060002001600090559055856001016000868152602001908152602001600020600090556001935050505062000364565b600091505062000364565b6060600080856001600160a01b03168560405162000f599190620016c3565b600060405180830381855af49150503d806000811462000f96576040519150601f19603f3d011682016040523d82523d6000602084013e62000f9b565b606091505b509150915062000fae8683838762001016565b9695505050505050565b6060816000018054806020026020016040519081016040528092919081815260200182805480156200100a57602002820191906000526020600020905b81548152602001906001019080831162000ff5575b50505050509050919050565b606083156200108a57825160000362001082576001600160a01b0385163b620010825760405162461bcd60e51b815260206004820152601d60248201527f416464726573733a2063616c6c20746f206e6f6e2d636f6e74726163740000006044820152606401620003a9565b508162001096565b6200109683836200109e565b949350505050565b815115620010af5781518083602001fd5b8060405162461bcd60e51b8152600401620003a99190620016e1565b611c5980620016f783390190565b600060208284031215620010ec57600080fd5b81356001600160e01b03198116811462000cd157600080fd5b80356001600160a01b03811681146200070e57600080fd5b6000806000606084860312156200113357600080fd5b6200113e8462001105565b92506200114e6020850162001105565b9150604084013590509250925092565b6000602082840312156200117157600080fd5b62000cd18262001105565b600080604083850312156200119057600080fd5b6200119b8362001105565b9150620006486020840162001105565b60008060408385031215620011bf57600080fd5b620011ca8362001105565b946020939093013593505050565b60008060208385031215620011ec57600080fd5b82356001600160401b03808211156200120457600080fd5b818501915085601f8301126200121957600080fd5b8135818111156200122957600080fd5b8660208260051b85010111156200123f57600080fd5b60209290920196919550909350505050565b60005b838110156200126e57818101518382015260200162001254565b50506000910152565b600081518084526200129181602086016020860162001251565b601f01601f19169290920160200192915050565b6000602080830181845280855180835260408601915060408160051b870101925083870160005b82811015620012fe57603f19888603018452620012eb85835162001277565b94509285019290850190600101620012cc565b5092979650505050505050565b634e487b7160e01b600052604160045260246000fd5b600082601f8301126200133357600080fd5b81356001600160401b03808211156200135057620013506200130b565b604051601f8301601f19908116603f011681019082821181831017156200137b576200137b6200130b565b816040528381528660208588010111156200139557600080fd5b836020870160208301376000602085830101528094505050505092915050565b600080600060608486031215620013cb57600080fd5b83356001600160401b0380821115620013e357600080fd5b620013f18783880162001321565b945060208601359150808211156200140857600080fd5b50620014178682870162001321565b925050604084013560ff811681146200142f57600080fd5b809150509250925092565b6001600160a01b0391909116815260200190565b6020808252825182820181905260009190848201906040850190845b81811015620014915783516001600160a01b0316835292840192918401916001016200146a565b50909695505050505050565b60008060008060808587031215620014b457600080fd5b620014bf8562001105565b9350620014cf6020860162001105565b9250620014df6040860162001105565b9396929550929360600135925050565b60208082526027908201527f4f6e6c79206f776e65722063616e20657865637574652074686973207472616e60408201526639b0b1ba34b7b760c91b606082015260800190565b6001600160a01b039384168152919092166020820152604081019190915260600190565b6000602082840312156200156d57600080fd5b8151801515811462000cd157600080fd5b6000602082840312156200159157600080fd5b5051919050565b6001600160a01b03929092168252602082015260400190565b634e487b7160e01b600052603260045260246000fd5b6000808335601e19843603018112620015df57600080fd5b8301803591506001600160401b03821115620015fa57600080fd5b6020019150368190038213156200161057600080fd5b9250929050565b634e487b7160e01b600052601160045260246000fd5b60006001820162001642576200164262001617565b5060010190565b6080815260006200165e608083018762001277565b828103602084015262001672818762001277565b6001600160a01b03959095166040840152505060ff9190911660609091015292915050565b8181038181111562000364576200036462001617565b634e487b7160e01b600052603160045260246000fd5b60008251620016d781846020870162001251565b9190910192915050565b60208152600062000cd160208301846200127756fe608060405260326000553480156200001657600080fd5b5060405162001c5938038062001c59833981016040819052620000399162000288565b83836006620000498382620003bd565b506007620000588282620003bd565b5050506200006c826200008b60201b60201c565b50600c805460ff191660ff929092169190911790555062000489915050565b60008054620000a660016200014260201b620007561760201c565b1115620000eb5760405162461bcd60e51b815260206004820152600f60248201526e1bdddb995c9cc8195e18d959591959608a1b604482015260640160405180910390fd5b620001068260016200015360201b620007601790919060201c565b6040519091506001600160a01b038316907f994a936646fe87ffe4f1e469d3d6aa417d6b855598397f323de5b449f765f0c390600090a2919050565b60006200014d825490565b92915050565b60006200016a836001600160a01b03841662000171565b9392505050565b6000818152600183016020526040812054620001ba575081546001818101845560008481526020808220909301849055845484825282860190935260409020919091556200014d565b5060006200014d565b634e487b7160e01b600052604160045260246000fd5b600082601f830112620001eb57600080fd5b81516001600160401b0380821115620002085762000208620001c3565b604051601f8301601f19908116603f01168101908282118183101715620002335762000233620001c3565b816040528381526020925086838588010111156200025057600080fd5b600091505b8382101562000274578582018301518183018401529082019062000255565b600093810190920192909252949350505050565b600080600080608085870312156200029f57600080fd5b84516001600160401b0380821115620002b757600080fd5b620002c588838901620001d9565b95506020870151915080821115620002dc57600080fd5b50620002eb87828801620001d9565b604087015190945090506001600160a01b03811681146200030b57600080fd5b606086015190925060ff811681146200032357600080fd5b939692955090935050565b600181811c908216806200034357607f821691505b6020821081036200036457634e487b7160e01b600052602260045260246000fd5b50919050565b601f821115620003b857600081815260208120601f850160051c81016020861015620003935750805b601f850160051c820191505b81811015620003b4578281556001016200039f565b5050505b505050565b81516001600160401b03811115620003d957620003d9620001c3565b620003f181620003ea84546200032e565b846200036a565b602080601f831160018114620004295760008415620004105750858301515b600019600386901b1c1916600185901b178555620003b4565b600085815260208120601f198616915b828110156200045a5788860151825594840194600190910190840162000439565b5085821015620004795787850151600019600388901b60f8161c191681555b5050505050600190811b01905550565b6117c080620004996000396000f3fe608060405234801561001057600080fd5b50600436106101225760003560e01c80634ee2cd7e116100a85780634ee2cd7e1461020f5780637065cb481461022257806370a082311461023557806379cc67901461024857806395d89b411461025b578063981b24d014610263578063a457c2d714610276578063a9059cbb14610289578063ac9650d81461029c578063dd62ed3e146102bc578063ed60c0fc146102cf57600080fd5b806306fdde0314610127578063095ea7b3146101455780630db0262214610168578063173825d91461017e57806318160ddd1461019157806323b872dd146101995780632f54bf6e146101ac578063313ce567146101bf57806339509351146101d457806340c10f19146101e757806342966c68146101fa575b600080fd5b61012f6102e4565b60405161013c9190611391565b60405180910390f35b6101586101533660046113bb565b610376565b604051901515815260200161013c565b610170610390565b60405190815260200161013c565b61015861018c3660046113e5565b6103a1565b600554610170565b6101586101a7366004611400565b61041a565b6101586101ba3660046113e5565b61043e565b600c5460405160ff909116815260200161013c565b6101586101e23660046113bb565b61044b565b6101706101f53660046113bb565b61046d565b61020d61020836600461143c565b6104a6565b005b61017061021d3660046113bb565b6104b3565b6101586102303660046113e5565b6104fc565b6101706102433660046113e5565b610533565b61020d6102563660046113bb565b61054e565b61012f610567565b61017061027136600461143c565b610576565b6101586102843660046113bb565b6105a1565b6101586102973660046113bb565b61061c565b6102af6102aa366004611455565b61062a565b60405161013c91906114ca565b6101706102ca36600461152c565b61071f565b6102d761074a565b60405161013c919061155f565b6060600680546102f3906115ac565b80601f016020809104026020016040519081016040528092919081815260200182805461031f906115ac565b801561036c5780601f106103415761010080835404028352916020019161036c565b820191906000526020600020905b81548152906001019060200180831161034f57829003601f168201915b5050505050905090565b60003361038481858561077c565b60019150505b92915050565b600061039c6001610756565b905090565b60006103ae6001336108a1565b6103d35760405162461bcd60e51b81526004016103ca906115e0565b60405180910390fd5b6103de6001836108c3565b6040519091506001600160a01b038316907f58619076adf5bb0943d100ef88d52d7c3fd691b19d3a9071b555b651fbf418da90600090a2919050565b6000336104288582856108d8565b610433858585610952565b506001949350505050565b600061038a6001836108a1565b60003361038481858561045e838361071f565b610468919061163d565b61077c565b600061047a6001336108a1565b6104965760405162461bcd60e51b81526004016103ca906115e0565b6104a08383610af6565b50919050565b6104b03382610bb1565b50565b6001600160a01b0382166000908152600860205260408120819081906104da908590610cdc565b91509150816104f1576104ec85610533565b6104f3565b805b95945050505050565b60006105096001336108a1565b6105255760405162461bcd60e51b81526004016103ca906115e0565b61038a82610dd2565b919050565b6001600160a01b031660009081526003602052604090205490565b6105598233836108d8565b6105638282610bb1565b5050565b6060600780546102f3906115ac565b6000806000610586846009610cdc565b915091508161059757600554610599565b805b949350505050565b600033816105af828661071f565b90508381101561060f5760405162461bcd60e51b815260206004820152602560248201527f45524332303a2064656372656173656420616c6c6f77616e63652062656c6f77604482015264207a65726f60d81b60648201526084016103ca565b610433828686840361077c565b600033610384818585610952565b60608167ffffffffffffffff81111561064557610645611650565b60405190808252806020026020018201604052801561067857816020015b60608152602001906001900390816106635790505b50905060005b82811015610718576106e83085858481811061069c5761069c611666565b90506020028101906106ae919061167c565b8080601f016020809104026020016040519081016040528093929190818152602001838380828437600092019190915250610e6792505050565b8282815181106106fa576106fa611666565b60200260200101819052508080610710906116c3565b91505061067e565b5092915050565b6001600160a01b03918216600090815260046020908152604080832093909416825291909152205490565b606061039c6001610e8c565b600061038a825490565b6000610775836001600160a01b038416610e99565b9392505050565b6001600160a01b0383166107de5760405162461bcd60e51b8152602060048201526024808201527f45524332303a20617070726f76652066726f6d20746865207a65726f206164646044820152637265737360e01b60648201526084016103ca565b6001600160a01b03821661083f5760405162461bcd60e51b815260206004820152602260248201527f45524332303a20617070726f766520746f20746865207a65726f206164647265604482015261737360f01b60648201526084016103ca565b6001600160a01b0383811660008181526004602090815260408083209487168084529482529182902085905590518481527f8c5be1e5ebec7d5bd14f71427d1e84f3dd0314c0f7b2291e5b200ac8c7c3b92591015b60405180910390a3505050565b6001600160a01b03811660009081526001830160205260408120541515610775565b6000610775836001600160a01b038416610ee8565b60006108e4848461071f565b9050600019811461094c578181101561093f5760405162461bcd60e51b815260206004820152601d60248201527f45524332303a20696e73756666696369656e7420616c6c6f77616e636500000060448201526064016103ca565b61094c848484840361077c565b50505050565b6001600160a01b0383166109b65760405162461bcd60e51b815260206004820152602560248201527f45524332303a207472616e736665722066726f6d20746865207a65726f206164604482015264647265737360d81b60648201526084016103ca565b6001600160a01b038216610a185760405162461bcd60e51b815260206004820152602360248201527f45524332303a207472616e7366657220746f20746865207a65726f206164647260448201526265737360e81b60648201526084016103ca565b610a23838383610fdb565b6001600160a01b03831660009081526003602052604090205481811015610a9b5760405162461bcd60e51b815260206004820152602660248201527f45524332303a207472616e7366657220616d6f756e7420657863656564732062604482015265616c616e636560d01b60648201526084016103ca565b6001600160a01b03808516600081815260036020526040808220868603905592861680825290839020805486019055915160008051602061176b83398151915290610ae99086815260200190565b60405180910390a361094c565b6001600160a01b038216610b4c5760405162461bcd60e51b815260206004820152601f60248201527f45524332303a206d696e7420746f20746865207a65726f20616464726573730060448201526064016103ca565b610b5860008383610fdb565b8060056000828254610b6a919061163d565b90915550506001600160a01b03821660008181526003602090815260408083208054860190555184815260008051602061176b833981519152910160405180910390a35050565b6001600160a01b038216610c115760405162461bcd60e51b815260206004820152602160248201527f45524332303a206275726e2066726f6d20746865207a65726f206164647265736044820152607360f81b60648201526084016103ca565b610c1d82600083610fdb565b6001600160a01b03821660009081526003602052604090205481811015610c915760405162461bcd60e51b815260206004820152602260248201527f45524332303a206275726e20616d6f756e7420657863656564732062616c616e604482015261636560f01b60648201526084016103ca565b6001600160a01b038316600081815260036020908152604080832086860390556005805487900390555185815291929160008051602061176b8339815191529101610894565b505050565b60008060008411610d285760405162461bcd60e51b815260206004820152601660248201527504552433230536e617073686f743a20696420697320360541b60448201526064016103ca565b610d30610fe6565b841115610d7f5760405162461bcd60e51b815260206004820152601d60248201527f4552433230536e617073686f743a206e6f6e6578697374656e7420696400000060448201526064016103ca565b6000610d8b8486610ff1565b84549091508103610da3576000809250925050610dcb565b6001846001018281548110610dba57610dba611666565b906000526020600020015492509250505b9250929050565b60008054610de06001610756565b1115610e205760405162461bcd60e51b815260206004820152600f60248201526e1bdddb995c9cc8195e18d959591959608a1b60448201526064016103ca565b610e2b600183610760565b6040519091506001600160a01b038316907f994a936646fe87ffe4f1e469d3d6aa417d6b855598397f323de5b449f765f0c390600090a2919050565b606061077583836040518060600160405280602781526020016117446027913961109e565b6060600061077583611116565b6000818152600183016020526040812054610ee05750815460018181018455600084815260208082209093018490558454848252828601909352604090209190915561038a565b50600061038a565b60008181526001830160205260408120548015610fd1576000610f0c6001836116dc565b8554909150600090610f20906001906116dc565b9050818114610f85576000866000018281548110610f4057610f40611666565b9060005260206000200154905080876000018481548110610f6357610f63611666565b6000918252602080832090910192909255918252600188019052604090208390555b8554869080610f9657610f966116ef565b60019003818190600052602060002001600090559055856001016000868152602001908152602001600020600090556001935050505061038a565b600091505061038a565b610cd7838383611172565b600061039c600b5490565b815460009081036110045750600061038a565b82546000905b8082101561105157600061101e83836111ba565b6000878152602090209091508590820154111561103d5780915061104b565b61104881600161163d565b92505b5061100a565b60008211801561107d57508361107a8661106c6001866116dc565b600091825260209091200190565b54145b156110965761108d6001836116dc565b9250505061038a565b50905061038a565b6060600080856001600160a01b0316856040516110bb9190611705565b600060405180830381855af49150503d80600081146110f6576040519150601f19603f3d011682016040523d82523d6000602084013e6110fb565b606091505b509150915061110c868383876111d5565b9695505050505050565b60608160000180548060200260200160405190810160405280929190818152602001828054801561116657602002820191906000526020600020905b815481526020019060010190808311611152575b50505050509050919050565b6001600160a01b038316611191576111898261124e565b610cd7611278565b6001600160a01b0382166111a8576111898361124e565b6111b18361124e565b610cd78261124e565b60006111c96002848418611721565b6107759084841661163d565b6060831561124457825160000361123d576001600160a01b0385163b61123d5760405162461bcd60e51b815260206004820152601d60248201527f416464726573733a2063616c6c20746f206e6f6e2d636f6e747261637400000060448201526064016103ca565b5081610599565b6105998383611288565b6001600160a01b03811660009081526008602052604090206104b09061127383610533565b6112b2565b611286600961127360055490565b565b8151156112985781518083602001fd5b8060405162461bcd60e51b81526004016103ca9190611391565b60006112bc610fe6565b9050806112c8846112fc565b1015610cd7578254600180820185556000858152602080822090930193909355938401805494850181558252902090910155565b8054600090810361130f57506000919050565b8154829061131f906001906116dc565b8154811061132f5761132f611666565b90600052602060002001549050919050565b60005b8381101561135c578181015183820152602001611344565b50506000910152565b6000815180845261137d816020860160208601611341565b601f01601f19169290920160200192915050565b6020815260006107756020830184611365565b80356001600160a01b038116811461052e57600080fd5b600080604083850312156113ce57600080fd5b6113d7836113a4565b946020939093013593505050565b6000602082840312156113f757600080fd5b610775826113a4565b60008060006060848603121561141557600080fd5b61141e846113a4565b925061142c602085016113a4565b9150604084013590509250925092565b60006020828403121561144e57600080fd5b5035919050565b6000806020838503121561146857600080fd5b823567ffffffffffffffff8082111561148057600080fd5b818501915085601f83011261149457600080fd5b8135818111156114a357600080fd5b8660208260051b85010111156114b857600080fd5b60209290920196919550909350505050565b6000602080830181845280855180835260408601915060408160051b870101925083870160005b8281101561151f57603f1988860301845261150d858351611365565b945092850192908501906001016114f1565b5092979650505050505050565b6000806040838503121561153f57600080fd5b611548836113a4565b9150611556602084016113a4565b90509250929050565b6020808252825182820181905260009190848201906040850190845b818110156115a05783516001600160a01b03168352928401929184019160010161157b565b50909695505050505050565b600181811c908216806115c057607f821691505b6020821081036104a057634e487b7160e01b600052602260045260246000fd5b60208082526027908201527f4f6e6c79206f776e65722063616e20657865637574652074686973207472616e60408201526639b0b1ba34b7b760c91b606082015260800190565b634e487b7160e01b600052601160045260246000fd5b8082018082111561038a5761038a611627565b634e487b7160e01b600052604160045260246000fd5b634e487b7160e01b600052603260045260246000fd5b6000808335601e1984360301811261169357600080fd5b83018035915067ffffffffffffffff8211156116ae57600080fd5b602001915036819003821315610dcb57600080fd5b6000600182016116d5576116d5611627565b5060010190565b8181038181111561038a5761038a611627565b634e487b7160e01b600052603160045260246000fd5b60008251611717818460208701611341565b9190910192915050565b60008261173e57634e487b7160e01b600052601260045260246000fd5b50049056fe416464726573733a206c6f772d6c6576656c2064656c65676174652063616c6c206661696c6564ddf252ad1be2c89b69c2b068fc378daa952ba7f163c4a11628f55a4df523b3efa26469706673582212201c2d999e50392bac7eee39d8b5c6f721dc526343820818b0edaa0005f5c1030d64736f6c63430008110033416464726573733a206c6f772d6c6576656c2064656c65676174652063616c6c206661696c6564a26469706673582212209ab081f76f4f56cd6e9cefd393a6e4b7ac239848459159efa1d0939cb352722264736f6c63430008110033",
  "linkReferences": {},
  "deployedLinkReferences": {}
}