{
  "_format": "hh-sol-artifact-1",
  "contractName": "RahatClaim",
  "sourceName": "src/contracts/RahatClaim.sol",
  "abi": [
    {
      "anonymous": false,
      "inputs": [
        {
          "indexed": true,
          "internalType": "uint256",
          "name": "claimId",
          "type": "uint256"
        }
      ],
      "name": "ClaimCreated",
      "type": "event"
    },
    {
      "anonymous": false,
      "inputs": [
        {
          "indexed": true,
          "internalType": "uint256",
          "name": "claimId",
          "type": "uint256"
        }
      ],
      "name": "ClaimProcessed",
      "type": "event"
    },
    {
      "anonymous": false,
      "inputs": [
        {
          "indexed": true,
          "internalType": "uint256",
          "name": "claimId",
          "type": "uint256"
        }
      ],
      "name": "OtpAddedToClaim",
      "type": "event"
    },
    {
      "inputs": [
        {
          "internalType": "uint256",
          "name": "_claimId",
          "type": "uint256"
        },
        {
          "internalType": "bytes32",
          "name": "_otpHash",
          "type": "bytes32"
        },
        {
          "internalType": "uint256",
          "name": "_expiryDate",
          "type": "uint256"
        }
      ],
      "name": "addOtpToClaim",
      "outputs": [],
      "stateMutability": "nonpayable",
      "type": "function"
    },
    {
      "inputs": [],
      "name": "claimCount",
      "outputs": [
        {
          "internalType": "uint256",
          "name": "",
          "type": "uint256"
        }
      ],
      "stateMutability": "view",
      "type": "function"
    },
    {
      "inputs": [
        {
          "internalType": "uint256",
          "name": "",
          "type": "uint256"
        }
      ],
      "name": "claims",
      "outputs": [
        {
          "internalType": "address",
          "name": "ownerAddress",
          "type": "address"
        },
        {
          "internalType": "address",
          "name": "claimerAddress",
          "type": "address"
        },
        {
          "internalType": "address",
          "name": "claimeeAddress",
          "type": "address"
        },
        {
          "internalType": "address",
          "name": "otpServerAddress",
          "type": "address"
        },
        {
          "internalType": "address",
          "name": "tokenAddress",
          "type": "address"
        },
        {
          "internalType": "uint256",
          "name": "amount",
          "type": "uint256"
        },
        {
          "internalType": "uint256",
          "name": "expiryDate",
          "type": "uint256"
        },
        {
          "internalType": "bytes32",
          "name": "otpHash",
          "type": "bytes32"
        },
        {
          "internalType": "bool",
          "name": "isProcessed",
          "type": "bool"
        }
      ],
      "stateMutability": "view",
      "type": "function"
    },
    {
      "inputs": [
        {
          "internalType": "address",
          "name": "_claimerAddress",
          "type": "address"
        },
        {
          "internalType": "address",
          "name": "_claimeeAddress",
          "type": "address"
        },
        {
          "internalType": "address",
          "name": "_otpServerAddress",
          "type": "address"
        },
        {
          "internalType": "address",
          "name": "_tokenAddress",
          "type": "address"
        },
        {
          "internalType": "uint256",
          "name": "_amount",
          "type": "uint256"
        }
      ],
      "name": "createClaim",
      "outputs": [
        {
          "internalType": "uint256",
          "name": "claimId",
          "type": "uint256"
        }
      ],
      "stateMutability": "nonpayable",
      "type": "function"
    },
    {
      "inputs": [
        {
          "internalType": "string",
          "name": "_data",
          "type": "string"
        }
      ],
      "name": "findHash",
      "outputs": [
        {
          "internalType": "bytes32",
          "name": "",
          "type": "bytes32"
        }
      ],
      "stateMutability": "pure",
      "type": "function"
    },
    {
      "inputs": [
        {
          "internalType": "uint256",
          "name": "_claimId",
          "type": "uint256"
        },
        {
          "internalType": "string",
          "name": "_otp",
          "type": "string"
        }
      ],
      "name": "processClaim",
      "outputs": [
        {
          "components": [
            {
              "internalType": "address",
              "name": "ownerAddress",
              "type": "address"
            },
            {
              "internalType": "address",
              "name": "claimerAddress",
              "type": "address"
            },
            {
              "internalType": "address",
              "name": "claimeeAddress",
              "type": "address"
            },
            {
              "internalType": "address",
              "name": "otpServerAddress",
              "type": "address"
            },
            {
              "internalType": "address",
              "name": "tokenAddress",
              "type": "address"
            },
            {
              "internalType": "uint256",
              "name": "amount",
              "type": "uint256"
            },
            {
              "internalType": "uint256",
              "name": "expiryDate",
              "type": "uint256"
            },
            {
              "internalType": "bytes32",
              "name": "otpHash",
              "type": "bytes32"
            },
            {
              "internalType": "bool",
              "name": "isProcessed",
              "type": "bool"
            }
          ],
          "internalType": "struct IRahatClaim.Claim",
          "name": "_claim",
          "type": "tuple"
        }
      ],
      "stateMutability": "nonpayable",
      "type": "function"
    }
  ],
  "bytecode": "0x608060405234801561001057600080fd5b50610924806100206000396000f3fe608060405234801561001057600080fd5b50600436106100625760003560e01c80630a5eccd31461006757806323fe50a31461009057806356844801146100b157806370c75107146100c65780638da4d3c9146100d9578063a888c2cd146100e2575b600080fd5b61007a61007536600461068a565b6101ab565b60405161008791906106de565b60405180910390f35b6100a361009e36600461078f565b6103a8565b604051908152602001610087565b6100c46100bf3660046107eb565b6104f0565b005b6100a36100d4366004610817565b6105b7565b6100a360015481565b6101506100f0366004610854565b6000602081905290815260409020805460018201546002830154600384015460048501546005860154600687015460078801546008909801546001600160a01b039788169896881697958616969486169590931693919290919060ff1689565b604080516001600160a01b039a8b168152988a1660208a015296891696880196909652938716606087015295909116608085015260a084015260c083019390935260e082019290925290151561010082015261012001610087565b6040805161012081018252600080825260208201819052918101829052606081018290526080810182905260a0810182905260c0810182905260e08101829052610100810191909152506000828152602081815260409182902082516101208101845281546001600160a01b039081168083526001840154821694830194909452600283015481169482019490945260038201548416606082015260048201549093166080840152600581015460a0840152600681015460c0840152600781015460e08401526008015460ff16151561010083015233146102bf5760405162461bcd60e51b81526020600482015260096024820152683737ba1037bbb732b960b91b60448201526064015b60405180910390fd5b8060c001514210156102fd5760405162461bcd60e51b8152602060048201526007602482015266195e1c1a5c995960ca1b60448201526064016102b6565b610100810151156103205760405162461bcd60e51b81526004016102b69061086d565b600061032b836105b7565b9050808260e001511461036e5760405162461bcd60e51b815260206004820152600b60248201526a0696e76616c6964206f74760ac1b60448201526064016102b6565b600161010083015260405184907fbe0c20f17a3125f7c3275eb0114bd2983f5238faf9e28bd76b26a057bc62924690600090a25092915050565b6001805460408051610120810182523381526001600160a01b0389811660208084019182528a83168486019081528a8416606086019081528a85166080870190815260a087018b81524260c08901908152600060e08a018181526101008b018281528d8352978290529a812099518a546001600160a01b0319908116918b16919091178b5597518a8e0180548a16918b16919091179055945160028a0180548916918a1691909117905592516003890180548816918916919091179055905160048801805490961696169590951790935592516005850155905160068401559251600783015591516008909101805460ff191691151591909117905582549192918291906104b7908390610898565b909155505060405181907f3106ccab17a8e74387554d8ef984d75d6c305d51cbe629c038b0bec803c1aad390600090a295945050505050565b600083815260208190526040902060038101546001600160a01b031633146105535760405162461bcd60e51b81526020600482015260166024820152753ab730baba3437b934bd32b21037ba3829b2b93b32b960511b60448201526064016102b6565b600881015460ff16156105785760405162461bcd60e51b81526004016102b69061086d565b600681018290556007810183905560405184907feab1e5f414e5056fca992d2f9323350fbf7d861790088fe15b91fa53dbeb41ef90600090a250505050565b6000816040516020016105ca91906108bf565b604051602081830303815290604052805190602001209050919050565b634e487b7160e01b600052604160045260246000fd5b600082601f83011261060e57600080fd5b813567ffffffffffffffff80821115610629576106296105e7565b604051601f8301601f19908116603f01168101908282118183101715610651576106516105e7565b8160405283815286602085880101111561066a57600080fd5b836020870160208301376000602085830101528094505050505092915050565b6000806040838503121561069d57600080fd5b82359150602083013567ffffffffffffffff8111156106bb57600080fd5b6106c7858286016105fd565b9150509250929050565b6001600160a01b03169052565b81516001600160a01b03908116825260208084015190911690820152604080830151610120830191610712908401826106d1565b50606083015161072560608401826106d1565b50608083015161073860808401826106d1565b5060a083015160a083015260c083015160c083015260e083015160e08301526101008084015161076b8285018215159052565b505092915050565b80356001600160a01b038116811461078a57600080fd5b919050565b600080600080600060a086880312156107a757600080fd5b6107b086610773565b94506107be60208701610773565b93506107cc60408701610773565b92506107da60608701610773565b949793965091946080013592915050565b60008060006060848603121561080057600080fd5b505081359360208301359350604090920135919050565b60006020828403121561082957600080fd5b813567ffffffffffffffff81111561084057600080fd5b61084c848285016105fd565b949350505050565b60006020828403121561086657600080fd5b5035919050565b602080825260119082015270185b1c9958591e481c1c9bd8d95cdcd959607a1b604082015260600190565b808201808211156108b957634e487b7160e01b600052601160045260246000fd5b92915050565b6000825160005b818110156108e057602081860181015185830152016108c6565b50600092019182525091905056fea264697066735822122093432f0813b5e558b2854c58c86612560dcd7b90db583236b2faa51d0655065a64736f6c63430008110033",
  "linkReferences": {},
  "deployedLinkReferences": {}
}